:020000022000DC
:1070000000000420197202000172020049340300DA
:1070100005720200077202000972020000000000FF
:107020000000000000000000000000003D560300CA
:107030000D720200000000005D5603001172020094
:1070400089D102001372020045D8020025E902002E
:1070500039E902001372020069D70200F5DF02006D
:107060000DEC020025EC02003DEC02001372020060
:1070700013720200137202001372020013720200F4
:1070800013720200A558030013720200137202006B
:107090001372020013720200651E030013720200D5
:1070A000137202001372020055EC02006DEC020034
:1070B000E1DE020013720200000000000000000088
:1070C0001372020013720200137202004DE90200F3
:1070D0001372020013720200137202001372020094
:1070E000137202001372020013720200000000000B
:1070F0000000000013720200000000001372020082
:10710000000000000000000000000000000000007F
:10711000000000000000000000000000000000006F
:10712000000000000000000000000000000000005F
:10713000000000000000000000000000000000004F
:10714000000000000000000000000000000000003F
:10715000000000000000000000000000000000002F
:10716000000000000000000000000000000000001F
:10717000000000000000000000000000000000000F
:1071800000000000000000000000000000000000FF
:1071900000000000000000000000000000000000EF
:1071A00000000000000000000000000000000000DF
:1071B00000000000000000000000000000000000CF
:1071C00000000000000000000000000000000000BF
:1071D00000000000000000000000000000000000AF
:1071E000000000000000000000000000000000009F
:1071F000000000000000000000000000000000008F
:10720000FEE7FEE7FEE7FEE7FEE7FEE7FEE7FEE756
:10721000FEE7FEE700F002B8FFF7FCBF0F484FF0B3
:107220000701884385460E4880470E48016841F4AF
:1072300070010160BFF34F8FBFF36F8F00F01AB87A
:1072400009480A490A4A884207D0521A05D00378E9
:1072500001300B700131013AF9D170470000042070
:10726000E995020088ED00E0387C0300082B00203F
:107270001C2B00203A493B480A1A02D007229143AE
:107280008D46394939480A1A06D00722914381F3BD
:107290000988022282F3148835483649364A00F0BC
:1072A00041F836483649374A00F03CF83648374905
:1072B000374A00F037F837483749384A00F032F893
:1072C00037483849384A00F02DF838483849394AA3
:1072D00000F028F838483949394A00F023F839488D
:1072E0003949002200F036F838483949002200F0C8
:1072F00031F838483849091A10F022FB374A9047CC
:1073000025482649884205D00268043003B49047D6
:1073100003BCF7E700208646EC4600200021304AF7
:107320009047FEE7884214D0521A12D003460B430E
:1073300013430324234206D1036804300B60043155
:10734000043AF9D17047037801300B700131013AEA
:10735000F9D17047884202D002700130FAE77047D5
:107360000000042000F80320000004200000042096
:10737000A8DE03001C2B00205C2B0020E47302001D
:10738000E4730200CA7A0300A8DE03001C2B00206D
:107390001C2B00204C7C03004C7C03005C7C030015
:1073A0004C7C03004C7C03004C7C03005C7C0300A1
:1073B0005C7C0300A7DE0300E8DE03005C2B0020FA
:1073C0005C2B00205C2B0020E47F0020E47F002069
:1073D000E47F002054800020548400204172020089
:0473E000856F0300B2
:1073E400BFF34F8F0549CA6802F4E062044B1343AC
:1073F400CB60BFF34F8F00BFFDE700BF00ED00E09F
:107404000400FA0510B5044600F05AFD22460D2189
:10741400012000F075FF10BD10B5044600F050FDCA
:1074240022460821012000F06BFF10BD10B5044670
:1074340000F046FD22460F21012000F061FF10BD3F
:1074440010B5044600F03CFD22460E21012000F058
:1074540057FF10BD08B500F033FD002210210120B4
:1074640000F064FF08BD08B500F02AFD00221121D8
:10747400012000F05BFF08BD08B501212F2001F0B9
:1074840062FC0021142001F05EFCFFF7A9FF00005C
:1074940038B5044603461F4A43F8142B43600023BF
:1074A4008360C3601C4B03611C4B03601C4D45612E
:1074B40080611C4BC3611C4B4361056240621B4BE2
:1074C40083621B4B03620CF01BFFE0622563646361
:1074D400184BA363184B23630CF012FFE06325647D
:1074E4006464164BA364164B2364E5642465154B4E
:1074F4006365154BE3640CF003FFA065E565246642
:10750400124B6366124BE3650CF0FAFEA06620464C
:1075140038BD00BF2CD703005C7C03007CD603007D
:1075240018D70300607C03009CD60300707C030022
:1075340088D60300907C0300C4D60300787C030043
:10754400ECD60300807C0300D8D60300987C0300AB
:10755400B0D60300034600F114020848026003F1A8
:107564002002426003F13002826003F14002C260F3
:1075740003F14C0202615C33436170475C2B0020D1
:107584002DE9F04F8DB0059000F09AFC06AC674DE4
:107594000FCD0FC495E8030084E80300644C654BE9
:1075A400E41AE408240444F003046349204609F07F
:1075B400ADFF6249204609F0A9FF9DF818206049F3
:1075C400204609F0A9FF9DF819205E49204609F0DC
:1075D400A3FF9DF81A8042465B49204609F09CFFB0
:1075E4009DF81B609DF81C3032465849204609F02E
:1075F4009DFF9DF81D709DF81E303A465449204663
:1076040009F094FF5349204609F080FFBDF820207B
:107614005149204609F080FFBDF822204F492046F9
:1076240009F07AFFBDF824204D49204609F074FF83
:107634000A9D1FFA85FA4FEA154B5D465B46524692
:107644004849204609F072FF4749204609F05EFF89
:10765400DDF82C905FFA89F24449204609F05CFF7A
:10766400C9F307224249204609F056FFC9F30742ED
:107674004049204609F050FFB8F1010F14BF002320
:107684000123012E21D00022012F26D00021B8F1A0
:10769400010F05D1BAF57A7F27D2B5F57A7F26D2C4
:1076A400CDF808B0CDF804A000933B4632463249E9
:1076B400204609F062FF0DF027FF059A09210220F8
:1076C40000F01EFE0DB0BDE8F08F41F203029245BA
:1076D40001D80022D8E70122D6E741F203018D4206
:1076E40001D80021D3E70121D1E7002AD8D0B5F58C
:1076F4007A7F01D30029D3D0CDF808B0CDF804A007
:1077040000933B4632461D49204609F036FF0DF0F2
:10771400FBFE059C22460B21022000F0F1FD2246CF
:107724000C21012000F0ECFDCCE700BFAC5500209B
:10773400987B0300487B0300A07C0300C47C030007
:10774400DC7C0300007D0300247D0300507D0300E6
:10775400887D0300C07D0300D47D0300EC7D03001D
:10776400007E0300147E0300487E03005C7E030059
:10777400747E0300907E0300AC7E0300007F030050
:1077840010B5044600F09CFB2046FFF7F9FE2246A4
:107794000921012000F0B4FD10BD000010B50AF06D
:1077A400EFFE0446074A032100F0A4FD064A08211F
:1077B400204600F09FFD054A0721204600F09AFD6F
:1077C40010BD00BF09740200857702001D74020019
:1077D40010B50DF099FE0446044A052100F08AFD17
:1077E400034A0D21204600F085FD10BD31740200CE
:1077F4004574020008B5FFF7D1FFFFF7E9FF01F078
:10780400A5F8254B1B68BFF35B8F13F0010F15D050
:10781400224B1B68BFF35B8F13F0010F1DD0204B6D
:107824001B68BFF35B8F13F0010F25D001F01EFB23
:1078340001F0E0FA014601F024FC08BD164810F0FE
:1078440025F90028E4D00023164A1321164801F034
:1078540033F8114810F02EF9DAE7104810F016F951
:107864000028DCD00023114A0D21114801F024F82E
:107874000A4810F01FF9D2E7094810F007F9002868
:10788400D4D000230B4A11210B4801F015F8044809
:1078940010F010F9CAE700BF942B0020842B0020BD
:1078A400742B002059740200982B00206B74020082
:1078B400882B00207D740200782B002010B504462C
:1078C4000BF05CFA00220321042000F019FD0D4B9B
:1078D4000D4A9B1ADB081B040C4943F0030009F012
:1078E40015FE01F087FA012101F0F3FB0DF00CFE07
:1078F40000220321022000F003FDE0680CF078FE72
:1079040010BD00BF987B0300487B0300547F030035
:1079140008B50AF035FE00220621032000F0F0FC31
:107924000DF0F2FD00220721022000F0E9FC01F035
:1079340061FA002101F0CDFB08BD70B50C46466824
:107944003046FFF707FE0546A1B203390F290DD8CB
:10795400DFE801F0170C0C0C0C1C0C0C0C0D0C24A7
:107964000C082E29C168304600F031FD70BD01F0CD
:1079740041FA012101F0D6FBE968304600F027FD09
:10798400F4E7C168304600F022FDEFE70AF0F8FDA5
:1079940000220421032000F0B3FCE7E7C16830466D
:1079A40000F015FDE2E74169304600F010FDDDE727
:1079B40001F0D6F801F0EEF80028D7D101F0D0F8A4
:1079C40001F0EAF8D2E7704708B51048104BC01A26
:1079D400C00800040F4940F0030009F097FD0AF0C5
:1079E400CFFD00220221032000F08AFC0DF08CFD63
:1079F40000220221084600F083FC0BF0BFF90022AC
:107A04000221042000F07CFC08BD00BF987B030029
:107A1400487B0300707F030038B50C464568284650
:107A2400FFF798FDA1B20D290BD011290DD101F05A
:107A340097F801F0AFF840B901F092F801F0ACF812
:107A440003E0C168284600F0C2FC38BD10B50BF055
:107A540013FF0BF093F900220321042000F050FCE3
:107A64000AF08EFD00220421032000F049FC0DF0F1
:107A74004BFD00221121022000F042FC01F0BAF972
:107A8400044605230022014601F072FA21462046ED
:107A940001F0D4FA0548064BC01AC0080004054991
:107AA40040F0020009F032FD10BD00BF987B0300D6
:107AB400487B0300A07F030070B50C46466830463F
:107AC400FFF748FDA1B203390E2918D8DFE801F009
:107AD4000817171717231717172B1717171833001B
:107AE40005461A481A4BC01AC0080004194940F048
:107AF400020009F00BFDE968304600F068FC70BD37
:107B04001248134BC01AC0080004134940F0020085
:107B140009F0FCFCF3E70AF033FD00220421032002
:107B240000F0EEFBEBE70AF02BFD0022042103201A
:107B340000F0E6FBE3E701F013F801F02BF800286E
:107B4400DDD101F00DF801F027F8D8E7987B0300A8
:107B5400487B0300EC7F03001C80030010B504463F
:107B64000BF04CFDE0680CF07DFD0DF0CDFC002227
:107B74000721022000F0C4FB0AF002FD00220621C6
:107B8400032000F0BDFB0BF0F9F8002204210846A5
:107B940000F0B6FB01F02EF9014601F072FA10BDB7
:107BA40008B50AF0EDFC00220421032000F0A8FB34
:107BB40001F020F9012101F078FA08BDF8B5054675
:107BC4000C4647683846FFF7C5FC06461B4B1C4A63
:107BD4009B1ADB081B0422461A4943F0030009F0F0
:107BE4009BFCA4B2083C0A2C0ED8DFE804F0060E75
:107BF4000D0D0D0D0D0D0D1B1600E8680CF032FD7A
:107C04003169384600F0E3FBF8BDE8680CF0F0FC9D
:107C14007168384600F0DBFBF6E77169384600F01E
:107C2400D6FBF1E700F09CFF00F0B4FF0028EBD195
:107C340000F096FF00F0B0FFE6E700BF987B03007A
:107C4400487B03006C80030008B50DF05DFC002246
:107C54000321022000F054FB01F0CCF8002101F0D4
:107C640024FA08BD08B542F210700AF039FB01F09D
:107C7400C1F8002101F041FA08BD000008B50F4821
:107C84000AF02EFB0AF07CFC00220421032000F001
:107C940037FB0DF039FC00220C21022000F030FBF0
:107CA4000BF06CF800220321042000F029FB01F002
:107CB400A1F8012101F021FA08BD00BF70F305000D
:107CC400F8B505460C4647683846FFF743FC0646B8
:107CD400A1B208390A2923D8DFE801F006232222B9
:107CE40022222B2222433E000AF04AFC00220621D3
:107CF400032000F005FBE8680CF0B4FC0DF004FC74
:107D040000220721022000F0FBFA0BF037F80022D2
:107D14000421084600F0F4FAF168384600F057FBF5
:107D2400F8BDE8680CF064FC7168384600F04FFB5D
:107D3400F6E70DF0E9FB00220721022000F0E0FA4B
:107D44000BF01CF800220421084600F0D9FAF1686F
:107D5400384600F03CFBE3E74169384600F037FB66
:107D6400DEE700F0FDFE00F015FF0028D8D100F09A
:107D7400F7FE00F011FFD3E7704738B50C464568AD
:107D84002846FFF7E7FBA1B211290DD0122906D02E
:107D9400102903D18168284600F019FB38BD4169D8
:107DA400284600F014FBF9E700F0DAFE00F0F2FEDA
:107DB4000028F3D100F0D4FE00F0EEFEEEE708B5A3
:107DC40001F018F8014601F05CF908BD38B50C461D
:107DD400154600F075F82A46214600F6EC1000F02E
:107DE400EEFA38BD10B5044600F070FA014B23607A
:107DF400204610BD00D7030038B51B4D2A68013258
:107E04002A601A4C1A4BE41AE408240444F00304CC
:107E14001849204609F080FB28680BF06BFA2A68A1
:107E2400154BA3FB0213DB0803EB4303B2EB830FF5
:107E340016D00CF065FA05460CF04CFBB5F904209D
:107E44000E49204609F068FB0AF0C2FD05460AF017
:107E5400DBFEB5F900200A49204609F05DFB38BD78
:107E64000BF056FAE5E700BFA42B0020987B030033
:107E7400487B030094800300ABAAAAAAA88003004D
:107E8400CC80030010B582B0044600F024F904F558
:107E94001960FFF7A7FF04F6EC10FFF7F9FA064B99
:107EA4000093012341F28832044904F6582000F07B
:107EB400B9FA204602B010BDFD7D0200EC8003003B
:107EC40008B50A4B1B68BFF35B8F13F0010F01D099
:107ED400074808BD05480FF0D9FD0028F8D004482C
:107EE400FFF7D0FF01480FF0E5FDF1E7A82B0020D4
:107EF400AC2B002010B582B0044600F0C1F90BF0A1
:107F04004FF9194A0421204600F00EF922460121B6
:107F140004F5196000F0E2F90AF030FF0AF048FFB6
:107F24000DF0F2FA0DF00AFB0AF02AFB0AF042FB0C
:107F340004F6EC1000F05FFA04F6582000F08CFA16
:107F44000BF0DEFA09480A4BC01AC0080004094BBA
:107F54000193002200920123074940F0030009F035
:107F6400FDFA02B010BD00BFFC800300987B030043
:107F7400487B03003C8103001081030008B500F036
:107F84004FF908BD032824D8012A06D001290CD0B2
:107F9400022910D0B1B107207047012901D0002275
:107FA400F4E700F10E02D2B2F0E700EB40000A4B16
:107FB4001A540020704700EB4000074B03445A70EA
:107FC4000020704700EB4000034B03449A700020EC
:107FD40070470720704700BF3836002008B50122DB
:107FE40000210846FFF7CEFF10B10346072812D13F
:107FF400072202210120FFF7C5FF034608B1072825
:1080040009D1042202210020FFF7BCFF034610B16E
:10801400072800D10023184608BD08B50122022113
:108024000020FFF7AFFF10B10346072812D1072243
:1080340002210120FFF7A6FF034608B1072809D152
:108044000A2200210846FFF79DFF034610B10728C6
:1080540000D10023184608BD08B50388102B0ED0A4
:10806400112B13D10F4A1368013B136073B9FFF747
:10807400D4FF58B10C4B1B6843B1984706E0094B39
:108084001B6823B1074A13680133136008BDFFF767
:10809400A5FF0028F6D0044B1B68002BF2D09847AC
:1080A400F0E700BF443600204836002010B584B005
:1080B40004464FF0FF3201A9D4F8F4080DF086FE0F
:1080C4000128F6D101980028F3D003681B68039AAD
:1080D40002999847EDE738B504460025C0F8F058F2
:1080E400C0F8F4585022294600F6F8000FF09EFC20
:1080F4004822294604F648100FF098FC204638BD63
:10810400014B1878704700BF4C360020044B1B7895
:10811400834203D9034B53F8200070470020704773
:108124004C3600205036002010B584B004460B466F
:10813400114600F1F00200F6F8000290019200935B
:1081440023464FF400720F480EF0C0F8C4F8F0084C
:108154000023009304F6481322460C2114200DF04A
:10816400E1FCC4F8F408D4F8F0284AB1064B1B78B3
:10817400072B05D8054941F823200133024A13701F
:1081840004B010BDB18002004C36002050360020EF
:1081940000B585B001910292039300231A4601A908
:1081A400D0F8F4080DF0FEFC05B05DF804FB000007
:1081B40000B585B0019102920393002300936A46AF
:1081C40001A9D0F8F4080DF0A5FD009B43B1064BBE
:1081D4004FF080525A6040BFBFF34F8FBFF36F8F91
:1081E40005B05DF804FB00BF00ED00E0704700003F
:1081F400034B0360034B0B6080231360704700BF85
:10820400C0400020C03E0020034B0360034B0B60C2
:108214004FF4007313607047703E002070360020E6
:1082240008B50EF095F8FEE710B50E4C0E4BE41AA7
:10823400E40824040D4944F0020009F067F94FF4FE
:108244000041002008F03AFF08F032FE44F0030435
:108254000749204609F05AF90649204609F056F91B
:1082640010BD00BF987B0300487B03004C810300D2
:108274006C8103008C81030008B504F079FD08BD0E
:1082840030B589B0FFF7F8FFFFF7CEFF0024DCB16B
:1082940009B030BD04F01F0343EA451302930023E1
:1082A40003930122049205930693079308AB13E901
:1082B40003008DE8030002AB0FCB00F065FD013530
:1082C400002DE7D00134E2E72546F9E7024A0260CF
:1082D40000220271826070470CD703004B1EDBB290
:1082E400092B04D80171024B43F8210082607047C6
:1082F40010410020023100EB810042607047000011
:1083040000F1FF3C5FFA8CFCBCF1090F00D9704707
:1083140008B5054B53F8200013460A460146806809
:10832400FFF736FF08BD00BF1041002000F1FF3CFD
:108334005FFA8CFCBCF1090F00D9704708B5054BF6
:1083440053F8200013460A4601468068FFF730FFC1
:1083540008BD00BF1041002038B505460C468B1CF3
:1083640000EB83035B688BB1002098470E4B0F4AE8
:10837400A3EB020C4FEADC0C4FEA0C4C2B7922469F
:108384000B494CF0040009F0D1F838BD0648074BFE
:10839400C01AC00800042B790A46064940F00400BC
:1083A40009F0C4F8F1E700BF987B0300487B0300A1
:1083B400A0810300CC810300704770477047406878
:1083C40020B108B503689B68984708BD704738B565
:1083D40004460D46406803685B6898476368A36079
:1083E40065602B681B682846984738BDC06800380C
:1083F40018BF0120704710B5044603681B689847EE
:108404002046FFF7F3FF20B1E368A3606360002315
:10841400E360606803681B68984710BD4368986808
:108424007047000030B583B00446084611461A462A
:10843400069B63608902074DA5FB015104F1080501
:1084440001950093002389090EF068FB2060204603
:1084540003B030BDD34D621030B583B0056865B14B
:108464000DF0C4FF0246002400942346012128464F
:108474000EF080FB204603B030BD0120FBE7000076
:1084840030B583B005460068B8B189020C4BA3FB34
:108494000132002400942346920904210EF06AFB61
:1084A4002D680DF0A3FF02460094234601212846BF
:1084B4000EF060FB204603B030BD0120FBE700BF97
:1084C400D34D6210006850B100B583B00022009211
:1084D400134603210EF04EFB03B05DF804FB704716
:1084E40030B583B005460068B8B189020C4BA3FBD4
:1084F4000132002400942346920909210EF03AFB2C
:108504002D680DF079FF0246009423460621284683
:108514000EF030FB204603B030BD0120FBE700BF66
:10852400D34D6210006850B100B583B000220092B0
:10853400134608210EF01EFB03B05DF804FB7047E0
:108544007047000010B503681B681878044C0138A4
:108554002146C0B205F0EAFEB4F9000010BD00BF28
:108564004241002030B589B001900C460178254B7A
:1085740000221A705A709A70DA70022018715A71B7
:108584009A71D9711A722049204805F009FE58B928
:10859400019B187801381B49C0B205F063FE40B94D
:1085A40001AB029303AD0EE0194A262106F068FBE5
:1085B400EEE7174A272106F063FBF1E702A8FFF76D
:1085C400C1FF25F8020B08AB9D42F7D1002303AA93
:1085D40002E032F9021B0B4408A98A42F9D10D4A80
:1085E40082FB0312DB17C3EBA2031BB2C3EB03131F
:1085F400C3EB03139B09238005F0F6FF002009B0A9
:1086040030BD00BF384100204585020030D703004B
:10861400F88103006766666608B5094B1B68BFF3FB
:108624005B8F13F0010F01D0064808BD04480FF01A
:108634002DFA0028F8D002480FF03CFAF4E700BF06
:10864400484100204C41002030B583B00446002549
:1086540040F8045B074A00942B4606CA00F0F6FD76
:108664002022294604F144000FF0E0F9204603B02B
:1086740030BD00BF34D7030010B51048104BC01AEA
:10868400C00800040F4940F0030008F03FFFFFF763
:10869400C3FF0D4C21460D48FFF764FF0AF098F91B
:1086A400B4F9003040F2145202FB03F3084A82FB8F
:1086B4000312DB17C3EBA213038010BD987B0300E6
:1086C400487B030054820300444100201C2B0020FB
:1086D400D34D621008B5FFF7CFFF08BD08B5027887
:1086E400094B1A70094A5A60436843B19969116089
:1086F4009B8B9380064B1B680348984708BD034B2C
:1087040000221A609A80F5E7584100205041002069
:10871400704100207047000008B50A480A4BC01A8F
:10872400C0080004094940F0030008F0EFFE0848BF
:1087340002F0BEFC00B908BD064A2E2106F0A0FADC
:10874400F9E700BF987B0300487B030074820300B1
:10875400744100208482030008B502F0C1FB08BD07
:1087640000B583B009F0D6FA68B90023019301A9D2
:10877400012009F0C5FB58B901A809F08FFC60B9C4
:1087840003B05DF804FB074A3B2106F079FAECE7F5
:10879400044A3F2106F074FAEEE7024A422106F049
:1087A4006FFAEDE784820300084B4FF4FA725A80A3
:1087B4004FF47A729A800022DA80197862F3820187
:1087C4001970C9B262F3C401197070476041002086
:1087D40000B585B000230093019302930393084BE3
:1087E4000093084A6946084802F021FC10B905B014
:1087F4005DF804FB054A5C2106F042FAF7E700BF86
:1088040060410020E186020074410020848203005C
:1088140008B5044B1860FFF7A3FFFFF7C5FFFFF788
:10882400D7FF08BD7041002038B50446002313E08B
:108834001B4B53F825309B6803B1984719481A4BD2
:10884400C01AC00800042246184940F0030008F08A
:1088540063FE24E00133DBB2154A12789A421ED932
:108864001D460F4A52F82320002AF3D01268A24270
:10887400F0D1204604F062FF0028D9D1084B53F808
:1088840025305B6803B198470648074BC01AC008F7
:1088940000042246074940F0030008F03DFE38BDBD
:1088A400E0410020987B0300487B0300F48203002E
:1088B400DC410020E082030030B583B0044601604F
:1088C40042608360194B1B78022B23D80D46184B4A
:1088D4001B68ADF804301B0C8DF8063003238DF8AB
:1088E4000530144A01A9284604F06AFE68B901213A
:1088F400284604F0BDFE0D4A1378591C11700E4A27
:1089040042F82340204603B030BD0C4A242106F02F
:10891400B7F9ECE70A480B4BC01AC008000403225D
:10892400094940F0010008F0F7FDEBE7DC410020C5
:108934003CD703002D880200E04100200883030097
:10894400987B0300487B03006883030008B500F0AC
:10895400E7F908BD10B50446054B0360054B0360F9
:10896400054B1B684360083000F068F8204610BDD2
:1089740048D7030058D7030060D703000804034B0B
:10898400A3FB0030C0F30F30704700BF5917B7D1B5
:1089940008B50A430221083000F098F808BD08B56C
:1089A40000220321083000F091F808BD08B50A43FD
:1089B4000421083000F08AF808BD08B50A22052110
:1089C400083000F083F808BD10B50446FFF7F5FF42
:1089D4004FF4704211462046FFF7DAFF2046FFF7B6
:1089E400DEFF0F2200212046FFF7E0FF10BD022921
:1089F40005D0032905D0012905D108207047092095
:108A040070470A2070470720704738B5044615465A
:108A1400FFF7EDFF01462A4604F1080000F056F87E
:108A240038BD38B504460D461146FFF7A7FF024688
:108A340029462046FFF7E9FF38BD000030B58FB066
:108A44000446174B844693E80700ACE803002CF86F
:108A5400022B120C8CF80020012284F84C220DF118
:108A64001C0E03F10C0CBCE80F00AEE80F009CE8F0
:108A740007008EE8070004F10C05002304930EABF5
:108A840013E90F008DE80F0007AB0ECB284600F06A
:108A940075FB284600F066FB20460FB030BD00BFD2
:108AA40064D7030023B90170130A437082707047BE
:108AB400012BF9D141F080010170F5E703780B70C7
:108AC40043784B7083788B707047000010B582B088
:108AD40004460023415C01A8FFF7E4FF694601A8AE
:108AE400FFF7ECFF00210B2000F02DF9032269466B
:108AF40004F10C0000F08EFB044601210B2000F071
:108B040022F90CB902B010BD0548064BC01AC008C2
:108B14000004054940F0010008F0F8FCF2E700BF4A
:108B2400987B0300487B03008C830300BFF34F8FC3
:108B34000549CA6802F4E062044B1343CB60BFF3F7
:108B44004F8F00BFFDE700BF00ED00E00400FA0511
:108B54003CDF70473DDF7047002202707047000021
:108B640008B50A4B1B68BFF35B8F13F0010F01D0EC
:108B7400074808BD05480EF089FF0028F8D00448CE
:108B8400FFF7EAFF01480EF095FFF1E7EC41002002
:108B9400F04100200078704770B50646164C174B1C
:108BA400E41AE408240444F002051549284608F0B0
:108BB400ADFC4FF0FF310020FFF7CCFF60B9B121CD
:108BC4000020FFF7C5FF024668B10E4944F00100DA
:108BD40008F0A2FC002070BD02460B4944F00100DD
:108BE40008F09AFCF6E7012333700849284608F098
:108BF4008DFCFFF79BFF00BF987B0300487B0300BD
:108C0400AC830300F8830300D883030018840300B3
:108C140010B5044603685A0904D0012A13D14FF64B
:108C2400FF7201E04FF0FF3203F01F0322FA03F357
:108C340013F0010F09D023681F2B0CD903F01F0375
:108C44002360064810BD0022EEE705494FF4F67094
:108C540007F02AF8EFE74FF0A040F3E700030050D5
:108C64003484030000B583B0019001A8FFF7D0FF5E
:108C7400D0F81005019BD84000F0010003B05DF866
:108C840004FB00B583B0019001A8FFF7C1FF0123E5
:108C9400019A9340C0F80C3503B05DF804FB00B5AD
:108CA40083B0019001A8FFF7B3FF0123019A934019
:108CB400C0F8083503B05DF804FB08B511B9FFF737
:108CC400E0FF08BDFFF7EBFFFBE770B582B0019052
:108CD4000C4616461D4601A8FFF79AFF44EA4604CF
:108CE40044EA85049DF8183044EA03249DF81C30B6
:108CF40044EA0344019B03F5E07340F8234002B0C7
:108D040070BD00B583B0019001A8FFF781FF019BFE
:108D140003F5E073022240F8232003B05DF804FB5E
:108D240008B5054B1B7803B908BD04F007FC024BDA
:108D340000221A70F8E700BF1D2B002008B5FFF7CA
:108D440091FFC0B208BD08B5FFF7B7FF08BD00002A
:108D540000B5064B01EB410C03EB8C0E43F82C00E1
:108D6400CEF804108EF808205DF804FBF4410020CE
:108D740008B500EB4000034B53F82030984700201F
:108D840008BD00BFF441002084B010B582B004AC2B
:108D940084E80F000446FFF7B4FF9DF820309DF8E7
:108DA4002420019200939DF81C309DF818209DF812
:108DB40014102046FFF789FF02B0BDE8104004B04C
:108DC400704730B583B004460D4601920A46014609
:108DD4001846FFF7BDFF29462046FFF7C9FF0246A4
:108DE40001A9204604F0ECFB0121204604F040FCDC
:108DF40003B030BD00487047D8430020642242705D
:108E040000228270014941600272704700C0014033
:108E140008B50248FFF7F2FF08BD00BFD8430020A1
:108E240030B58DB00546104C0DF1180CA646BEE8C1
:108E34000F00ACE80F009EE803008CE803008DE807
:108E4400030006AB0FCBFFF79FFF0DF10C0C04F1F1
:108E5400180393E807008CE8070000226146281DE8
:108E640004F016FF0DB030BD98D7030008B5064BCB
:108E74001B7803B108BDFFF7BDFFFFF7D1FF024B1D
:108E840001221A70F6E700BFD4430020F0B583B086
:108E940007EE903A4B7806EE903AF8EE666A9FED4C
:108EA400326A86EE867AF8EEE77A67EE877AFCEE27
:108EB400E77ACDED017A9DF804509DF8203007EE55
:108EC400903AF8EEE77A67EE877AFCEEE77ACDED32
:108ED400017A9DF804409DF8243007EE903AF8EEAC
:108EE400E77A67EE877AFCEEE77ACDED017A9DF8B2
:108EF40004E000210EE048F2070715E048F20707F6
:108F040022E048F2070C10331844184B23F810C021
:108F14000131C9B2072925D80B4604FA01F010F033
:108F2400800FE8D048F20D0702EB420C4FEACC0068
:108F340003EBCC0C0D4E26F81C7005FA03F616F064
:108F4400800FDBD048F20D0703F1080C8444074E70
:108F540026F81C700EFA03FC1CF0800FD1D048F2E6
:108F64000D0CD0E703B0F0BD0000C842E44300207C
:108F740010B582B0062B0BD8DFE803F0040C131AEB
:108F840021282F000023019300936423FFF77EFF21
:108F940002B010BD0023019364240094FFF776FF10
:108FA400F6E76423019300230093FFF76FFFEFE7D5
:108FB4000023019364230093FFF768FFE8E7642329
:108FC400019300240094FFF761FFE1E76423019318
:108FD40000930023FFF75AFFDAE764230193009319
:108FE400FFF754FFD4E7000030B585B005460023F1
:108FF40000930193029303930E4B00934823ADF81F
:10900400043003E00121204604F03EFF2C1D2046DD
:1090140004F014FF0028F5D001231A4669462046BF
:1090240004F0B6FE4FF49650034B43F00103984707
:1090340005B030BDE443002090D7030008B50123F8
:109044008B70FFF7D1FF08BD70B582B005460E46A0
:1090540000240194009423462246FFF717FF01944D
:1090640000942346012231462846FFF70FFF01945E
:1090740000942346022231462846FFF707FF02B038
:1090840070BD10B5044600228A70FFF7DDFF20464C
:10909400FFF7AAFF10BD00B583B00023019300932E
:1090A400FFF7F4FE03B05DF804FB10B50446642337
:1090B400437049B1022300220146FFF759FF2146BC
:1090C4002046FFF7BBFF10BD00220146FFF7E3FF78
:1090D400F5E710B504466423437049B10323002225
:1090E4000146FFF745FF21462046FFF7A7FF10BDC5
:1090F40000220146FFF7CFFFF5E710B504466423CD
:10910400437049B1062300220146FFF731FF21468F
:109114002046FFF793FF10BD00220146FFF7BBFF77
:10912400F5E7000010B504466423437079B10123C8
:109134001A460146FFF71CFF21462046FFF77EFF33
:109144004FF4C850044B43F00103984710BD01226B
:109154000146FFF7A0FFEFE790D7030008B5FFF73C
:1091640057FE08BD08B500231A4600F12C011C3037
:1091740003F000FF00B908BD0120FCE784B070B41F
:10918400844604A880E80E000B9B43B1012B0CD14C
:109194000CF11C041D4B0FCB84E80F0005E01C4BA5
:1091A4000CF11C040FCB84E80F00079ECCF80C6074
:1091B400049DCCF800509DF818308CF80830059CBC
:1091C400CCF804400998CCF81400089ACCF8102084
:1091D4000A99CCF818108CF83960CCF834508CF813
:1091E40038408CF82D008CF82E108CF82C208CF83C
:1091F4002F30FF238CF8313006238CF830300123D4
:109204008CF84032002070BC04B07047D4D70300FF
:10921400C4D7030070B584B00546144600F59F76A4
:1092240030460EF0D1FBE4B205F13C030096019404
:10923400029303940022694605F1200005F048FCDE
:1092440008B904B070BD0120FBE7000010B582B07E
:109254008646684680E8060003C88EE80500CEF816
:1092640008300EF1180C0E4C0FCCACE80F000FCCEC
:10927400ACE80F0094E803008CE80300049BCEF8EC
:1092840014309DF8053003330EF10C020EEBC303CA
:1092940093E8030082E80300704602B010BD00BFEB
:1092A400E4D7030008B500212F20FFF74CFD08BDCB
:1092B40008B501212F20FFF746FD08BD70470C209B
:1092C4007047000008B541F28733994234DC41F21B
:1092D400883303FB01F05B1A90FBF3F007EE900A6E
:1092E400F8EEE77A17EE900A0EF00EFB18A3D3E916
:1092F40000230EF0EFF941EC100B0DF087FE51EC5A
:10930400100B0EF0C9FA0F4B03FB00F00E4A82FB60
:109314000031C317C3EBA11303F698530B4890FB1A
:10932400F3F0A0F58520A0F2FE2082FB0032C017E6
:10933400C0EBA21000B208BD6FF48870FBE700BF59
:10934400AFF30080A68C0400D34D621090F0D73D9B
:10935400000000000088B34070B50546FFF75CF9D3
:10936400074E31460748FFF7FDF80AF0C9FF0446E7
:10937400B6F9001041802846FFF7A4FFA08070BD15
:1093840074440020202B002008B5FFF7E5FF08BD3A
:109394000020704708B540F2DC520321FFF741FB7F
:1093A40008BD08B500220221FFF73BFB08BD08B544
:1093B4000A460121FFF735FB08BD08B50C2904D97D
:1093C4004FF4C861FFF7F3FF08BD01EB810101EB26
:1093D4008101890001F5C87189B2FFF7E8FFF3E75D
:1093E40008B564220021FFF71CFB08BD10B5044634
:1093F400FFF7D0FF2046FFF7D4FF4FF4C871204693
:10940400FFF7D5FF2046FFF7EBFF10BD08B5FFF7C8
:10941400DBFA08BD30B583B00446FFF79BFA20257C
:109424002A46002104F516700EF000FB2A4600219E
:1094340004F51E700EF0FAFA0025A4F89852A4F868
:109444009A520C4A00942B4606CA04F52770FFF77B
:10945400FDFE094A00942B4606CA04F53770FFF74F
:10946400F5FE2046FFF7D2FF2046FFF7BFFF204658
:1094740003B030BD1CD8030014D80300BFF34F8FD2
:109484000549CA6802F4E062044B1343CB60BFF39E
:109494004F8F00BFFDE700BF00ED00E00400FA05B8
:1094A4004FF08053D3F83031082B01D0002070479F
:1094B400012070474FF08053D3F83031082B01D08E
:1094C40000207047012070474FF08053D3F83021BB
:1094D400D3F83431082A01D000207047002B04D877
:1094E400DFE803F0010001207047002070474FF0CF
:1094F4008053D3F83021D3F83431082A01D0002026
:109504007047002B04D8DFE803F001000120704706
:10951400002070474FF08053D3F83021D3F8343112
:10952400082A01D000207047002B04D8DFE803F09C
:10953400010001207047002070474FF08053D3F89A
:109544003021D3F83431082A01D000207047002B91
:1095540004D8DFE803F001000120704700207047C1
:109564004FF08053D3F83031082B01D000207047DE
:10957400012070474FF08053D3F83021D3F83431B1
:10958400082A01D000207047032B01D8002070471F
:109594000120704708B5FFF7EDFF38B14FF01023F5
:1095A400D3F808224FF08043C3F8582508BD0000C3
:1095B400024BD3F80034002BFAD0704700E001408E
:1095C40008B5034BC3F80405FFF7F2FF08BD00BF5D
:1095D40000E00140014B024A1A607047242B00202E
:1095E4000090D00338B5FFF75BFF40B14FF08043E4
:1095F4000022C3F80C21C3F81021C3F83825FFF763
:1096040059FF002846D04FF08052D2F80414554B2D
:10961400C3F82015D2F80814C3F82415D2F80C1492
:10962400C3F82815D2F81014C3F82C15D2F8141462
:10963400C3F83015D2F81814C3F83415D2F81C1432
:10964400C3F84015D2F82014C3F84415D2F82414F2
:10965400C3F84815D2F82814C3F84C15D2F82C14C2
:10966400C3F85015D2F83014C3F85415D2F8341492
:10967400C3F86015D2F83814C3F86415D2F83C1452
:10968400C3F86815D2F84014C3F86C15D2F8442412
:10969400C3F87025FFF718FF18B1334B334AC3F8EA
:1096A4008C26FFF724FF18B1314BFB22C3F8182591
:1096B400FFF730FF70B14FF08041D1F8E43E23F062
:1096C4000F034FF08052D2F8582202F00F021343D6
:1096D400C1F8E43EFFF731FF20B1264B4FF400728E
:1096E400C3F84026FFF73CFF60B14FF08043D3F846
:1096F400003413F0010F05D04FF080436FF00102E6
:10970400C3F800241C4AD2F8883043F47003C2F82A
:109714008830BFF34F8FBFF36F8FFFF73BFF4FF0DE
:109724001023D3F80032002B08DB4FF01023D3F8BA
:109734000432002B02DBFFF74DFF38BD0120FFF799
:109744003FFF4FF010241225C4F80052FFF730FFFA
:10975400C4F80452FFF72CFF0020FFF731FFFFF796
:109764008DFE00BF00C0004000500040488103004F
:1097740000F000400090024000ED00E048B300B566
:10978400864642B34FF0000C06E01EF80C0060441D
:1097940080B201301FFA80FC0CF10100884207DA24
:1097A40010886045F1D80EEB0C0040789842ECD15B
:1097B4008C4512D20CF102039BB21EF80C0078B156
:1097C400013880B250B103EB000C61450ADB138011
:1097D40004E000207047002000E000205DF804FB56
:1097E4000020FBE70020F9E770B582B00023ADF854
:1097F4000630DAB10446164609230DF10602FFF7D6
:10980400BDFF0546BDF806301C448BB198B1304607
:109814000EF0C3F8A84201D000200AE02A462146EF
:1098240030460EF097F840B1002002E0002000E03E
:10983400002002B070BD0020FBE70120F9E7000022
:1098440000230BB10020704703EB8302054931F874
:109854002220824201D00133F3E703EB830301EBBF
:10986400830070479C44002030B5B0F804C002EB7C
:109874000C04944594BFACEB0C0CACEB020CC2880A
:109884009D189A4294BF921AD21A4B88B0F800E0FD
:1098940073450ED3408883420DD88B8863450CD31F
:1098A400A3420CD8CB8893420BD3AB420BD80120F4
:1098B40000E0002030BD0020FCE70020FAE7002093
:1098C400F8E70020F6E70020F4E7000008B5024BB3
:1098D4009B6903B1984708BD8044002010B5808877
:1098E400FFF7AEFF38B10446406805F02FFA18B907
:1098F4004FF6FF73238010BDFFF7E8FFF8E7000081
:1099040000B583B002460B46497A69B9197A41B960
:109914000D494968586805F0C1F988B1FFF7D6FFC9
:109924000EE009498968F5E700211972064B5B6965
:1099340033B101218DF80410ADF8060001A8984751
:1099440003B05DF804FB00BF8044002070B5C37B06
:109954008688012B1DD104464FF6FF70FFF770FF78
:109964000546B8B10680002303720F4B03CBC5F83C
:109974000A00C5F80E104FF6FF7340F2F31204F11B
:10998400100105F10A00FFF76FFF6872074BDB89CE
:1099940023B170BD0420FFF799FFFAE7294630464A
:1099A400FFF7AEFFF5E700BF7844002080440020B5
:1099B40070B5044686883046FFF742FF70B105460D
:1099C4004FF6FF7340F2F31204F108010A30FFF777
:1099D4004BFF687229463046FFF792FF70BD0000C6
:1099E400C288124BDB899A4200D0704770B5044696
:1099F400038A022B00D070BD85882846FFF720FF1C
:109A040006460028F7D004F1120000F0C9F920B18D
:109A140031462846FFF774FFEDE7706805F096F9C4
:109A24000028E8D0FFF752FFE5E700BF804400209C
:109A340008B50388122B0FD006D8102B09D0112B90
:109A440009D1FFF74BFF06E0502B04D1FFF7C8FF05
:109A540001E0FFF77BFF08BDFFF7AAFFFBE700006B
:109A640008B50146014806F0DBF908BDB044002002
:109A7400F0B583B00190B9B116460F46019D85B982
:109A8400284603B0F0BD0134132CF9D8214601A8AF
:109A940006F0C6F90028F6D03146A0B2B847013521
:109AA400F1E700242546EFE70025E9E7132801D96B
:109AB4000020704738B50446054D0146284606F097
:109AC40088F92146281F06F084F9012038BD00BF1B
:109AD400B844002038B50546002407E0054800EBEB
:109AE40084002946043006F08EF901341D2CF5D982
:109AF40038BD00BFB044002008B50146014806F057
:109B040082F908BDB844002008B512B106F061F925
:109B140008BD06F078F9FBE730B583B0054601913E
:109B240000230360019B93B9284603B030BD013480
:109B3400132CF9D8214601A806F072F90028F6D0B2
:109B44002B685A1C2A6005EB43039C80EFE7002432
:109B5400EEE7000010B598B0134A9368DB431793FF
:109B6400516817A806F0C4F917996846FFF7D4FF9F
:109B74000DF1300C6C460FCCACE80F000FCCACE808
:109B84000F0094E807008CE80700002407E018ABF6
:109B940003EB440333F82C0CFFF79CFF01340C9BBC
:109BA400A342F4D818B010BDB044002070B50446E8
:109BB40085880388103B0A2B1ED8DFE803F0061AB9
:109BC4001D1D1D1D1D1D1D3B1E00FFF7C3FF284647
:109BD400FFF76CFF38B1E37B022B0DD129461B48FC
:109BE40006F0F7F808E01A4AF021042005F048F8D6
:109BF40002E02846FFF780FF70BD027A1609154C73
:109C04003F2A94BF0022012229462046FFF77CFF09
:109C1400022E94BF002201222946201FFFF774FF61
:109C2400012E94BF002201222946A4F10800FFF767
:109C34006BFFE1E7037A002BDED1427AC2F3C00264
:109C440029460448FFF760FFD6E700BFBC44002064
:109C540084840300C8440020132801D900207047DD
:109C640008B50146014806F0DBF808BDB4440020FD
:109C740010B50446FFF7F0FF08B9002010BD2146D7
:109C8400034806F0CDF808B90120F7E70220F5E70C
:109C9400BC44002010B50446FFF7DEFF08B90020DD
:109CA40010BD2146034806F0BBF808B90120F7E7C8
:109CB4000220F5E7B844002010B50446FFF7CCFFB6
:109CC40000B910BD2146024806F0AAF8F9E700BF22
:109CD400C044002010B50446FFF7BEFF00B910BD14
:109CE4002146024806F09CF8F9E700BFC44400206E
:109CF40010B50446FFF7B0FF00B910BD2146024875
:109D040006F08EF8F9E700BFC844002038B50546D0
:109D14000C460846FFF7A4FE08B9002038BD2846C3
:109D2400FFF79AFF0028F8D00634044800EB8400BB
:109D34002946043006F074F8F0E700BFB044002070
:109D440070B506460C4615460846FFF789FE00B96D
:109D540070BD3046FFF780FF0028F9D00634044870
:109D640000EB84002A4631460430FFF7CDFEEFE7CE
:109D7400B044002070B504460E461546FFF770FE49
:109D840008B9002070BDA01D044B03EB8003586884
:109D94002A463146FFF76CFEF4E700BFB0440020CA
:109DA400007800F001007047A0DF7047A1DF704722
:109DB400ADDF7047B3DF7047B4DF70478379012BA1
:109DC40001D0002070470379012B01D00020704797
:109DD400428842F602139A4201D0002070470120C3
:109DE400704738B50446408800F050FEA080002536
:109DF40005B138BD204601F01DFF0135F8E700B577
:109E040087B00023019302930393049305930823DB
:109E14008DF80430ADF80600039101A8FFF7E1FFC7
:109E240007B05DF804FB000070B586B00023019311
:109E34000293039304930593ADF806004FF6FF7362
:109E440098422ED0044600F0CFFC054611283FD09E
:109E540015D8D0B10B2826D110238DF804301D4815
:109E64001D4BC01AC008000422461C4940F00200E1
:109E740007F052FB01A8FFF7B4FF00220CE043F205
:109E8400020398420FD1002206E00F238DF804301C
:109E940001A8FFF7A6FF0022114B19782046FFF70F
:109EA4004FFF06B070BD0B4E0B4BF61AF608360486
:109EB400284606F047FF024623460A4946F00100B9
:109EC40007F034FB29462046FFF799FF0022E3E719
:109ED4000122E1E7E87B0300487B030020850300BF
:109EE40031450020A085030008B5FFF79DFF08BD9C
:109EF40010B5044600F0DAFC00B910BD0122034B92
:109F040019782046FFF71CFFF7E700BF3045002013
:109F140010B582B0044600F0B9FD00236A46092159
:109F240001F0CAF9052801D002B010BD0122034B8B
:109F340019782046FFF704FFF6E700BF2E450020FE
:109F440008B500220649074B1878FFF713FF00B144
:109F540008BD00220449054B1878FFF70BFFF7E70B
:109F64008DA1020032450020A59F02002E4500204D
:109F740008B500220249034B1878FFF7FBFE08BD21
:109F8400A5A202003045002008B500220249034B77
:109F94001878FFF7EFFE08BDED9E02003145002062
:109FA40010B582B004460023019342F6A623ADF80F
:109FB400043001238DF80630084B1B6800936A4671
:109FC40001A9FFF7F1FE08B102B010BD0122044B54
:109FD40019782046FFF7B4FEF6E700BF2CD803003B
:109FE4002D45002010B5044638B12368012B09D152
:109FF400BFF35F8F0023236010BD0549922005F055
:10A0040053FEF2E70249932005F04EFEF0E700BF4D
:10A01400F4850300F0B585B006460F460DF10E0039
:10A02400FFF7C8FE10B9012400250DE01A494FF4CA
:10A03400997005F039FEF6E7BDF8002042F60213E8
:10A044009A421DD00134A4B2BDF80E30A3421FD9E8
:10A054000223ADF804300022ADF80620CDF808D074
:10A0640069462046FFF7A8FE034690B9002DE3D1C8
:10A07400BDF8002042F605239A42E3D10125E1E729
:10A08400029701AA21463046FFF792FE034600E0FC
:10A094000523184605B0F0BD4C86030010B50446F0
:10A0A40048B10121204605F0F8FEBFF35F8FB0FAF6
:10A0B40080F0400910BD0249852005F0F5FDF0E768
:10A0C400F485030070B586B0054600F0EDFA11285A
:10A0D40047D0044619D8002846D00B2847D0254E2F
:10A0E400254BF61AF6083604204606F02BFE0246E7
:10A0F4002B46224946F0010007F018FA214628466B
:10A10400FFF77DFE0024224623E0862806D043F292
:10A1140002039842E3D1002422461AE00026019665
:10A12400029603960496059607238DF80430ADF83D
:10A1340006501048104BC01AC00800042A461049A3
:10A1440040F0020007F0E8F901A8FFF74AFE3446A0
:10A1540032460C4909782846FFF7F2FD204606B03E
:10A1640070BD00240122F4E701240022F1E7002459
:10A174002246EEE7E87B0300487B030028870300C0
:10A18400F08603003245002010B504460648FFF768
:10A1940085FF00B910BD2046FFF794FF0028F9D1D0
:10A1A4000148FFF71FFFF5E73445002070B586B07E
:10A1B400044600F08FFB054611280CD8112848D816
:10A1C400DFE800F0174747474747334728474747E3
:10A1D40047474747475D43F20203984252D043F250
:10A1E4000143984235D12046FFF71EFE0025012287
:10A1F40022E0002301930293039304930593112314
:10A204008DF80430ADF8064001A8FFF7EAFD0125FA
:10A214002A4611E001A92046FFF7FCFE28B9BDF843
:10A22400043013B10025012206E0204600F02EFC84
:10A2340000F082FB00252A46144B19782046FFF7CC
:10A244007FFD2A46124B19782046FFF779FD06B0A8
:10A2540070BD104E104BF61AF6083604284606F068
:10A2640071FD024623460D4946F0010007F05EF9F0
:10A2740029462046FFF7C3FD00250122DCE700251F
:10A284000122D9E700250122D6E700BF304500208E
:10A294002F450020E87B0300487B03006887030008
:10A2A40010B50446044B1978FFF730FD00B110BD1A
:10A2B4002046FFF77BFFFAE72F450020037803B120
:10A2C400704710B504464088FFF7AEFD6088FFF77D
:10A2D4000FFE6088FFF71CFEFFF732FE10BD000082
:10A2E40010B582B00378092B03D0FFF729FE02B022
:10A2F40010BD0446437A002BF7D1037A072B1DD0F7
:10A30400082B2CD0012BF0D16A460121808801F062
:10A314009DFA0028E9D1019B1B78002BE5D0A08889
:10A3240000F0E8FB4FF6FF739842DED00122104B99
:10A334001978FFF705FDFFF71BFED6E7808800F0CC
:10A34400D9FB04464FF6FF739842CED00122094B45
:10A354001978FFF7F5FC2046FFF7DAFDC5E7064B51
:10A364001B68012BC1D10448FFF73CFEBDE700BFC9
:10A3740030450020324500203445002030B583B0FC
:10A3840004460D460022009201920123ADF80030EC
:10A3940009238DF80230104B1978FFF7D1FC5DB119
:10A3A4000E4B0193204600F071FB0022694600F039
:10A3B400F5FF18B903B030BD094BF2E7094C0A4A5E
:10A3C400A41AE408240406F0BDFC0246074944F03C
:10A3D400020007F0A1F8EDE72E45002028D803007D
:10A3E40024D80300E87B0300487B0300A88703000C
:10A3F40030B587B0044685880388353B1F2B14D8B5
:10A40400DFE803F0499413131313131313131313F3
:10A414001313131313131313131313131313133BE0
:10A42400131013192846FFF7FFFCFFF7ADFDFFF7E4
:10A434009FFD07B030BD002401940294039404945A
:10A44400059412238DF80430ADF80650284600F028
:10A454001DFBADF8080000F06FFA22464D4B197849
:10A464002846FFF76DFC22464B4B19782846FFF728
:10A4740067FC01A8FFF7B5FCD7E70630FFF79EFCA1
:10A484000028D2D00122454B19782846FFF758FC02
:10A49400FFF756FDC9E7424B19782846FFF736FC0B
:10A4A4000028C2D000223E4B19782846FFF748FC0A
:10A4B400E288B2F5857F10D0A2B96289012A1CD145
:10A4C400A289012A24D03748374BC01AC008000497
:10A4D400364940F0020007F01FF800212846FFF734
:10A4E4004DFFA2E72F48304BC01AC0080004304982
:10A4F40040F0020007F010F8EFE72A482A4BC01A90
:10A50400C00800042B4940F0020007F005F8D7E723
:10A514000022E1892846FFF749FC0028DDD1012209
:10A52400254B19782846FFF70BFC7EE7224B197858
:10A534002846FFF7EBFB00283FF477AF00221E4BC1
:10A5440019782846FFF7FCFBE28852B9E289012A10
:10A5540013D1217C003918BF01212846FFF70EFFD3
:10A5640063E71048104BC01AC0080004104940F0BB
:10A57400020006F0D1FF0021EFE70A480A4BC01A97
:10A58400C0080004094940F0020006F0C5FF00219C
:10A59400E3E700BF2F45002030450020324500206E
:10A5A4002D450020E87B0300487B030080880300DE
:10A5B40008880300448803002C450020AFDF70475F
:10A5C400B1DF7047B2DF7047B3DF704738B5044678
:10A5D400808800F08FFA6080002505B138BD2046E0
:10A5E40001F02CFB0135F8E730B589B0224B93E834
:10A5F400030008AB03E903000BE007238DF80430E4
:10A6040001A8FFF7E3FF35E01C4C208800F045FF6C
:10A6140020801A4B18884FF6FF7398422AD00022E4
:10A6240006A900F0BBFE04460028EDD000230193E8
:10A634000293039304930593104B1B88ADF80830E1
:10A64400112817D08628D8D00D4D0E4BED1AED08E1
:10A654002D0406F077FB0246084B1B880A4945F097
:10A66400010006F063FF08238DF80430039401A869
:10A67400FFF7ACFF09B030BD38D803003A450020DD
:10A68400F07B0300487B0300D088030008B5054B2A
:10A694001A884FF6FF739A4200D108BDFFF7A4FF52
:10A6A400FBE700BF3A4500202DE9F04784B082461D
:10A6B40000F0ECF94FF6FF73984200F087800746EC
:10A6C400012449E002AA0821384601F0BFF888B9FC
:10A6D400B8F8042003998B889A420DD10631284694
:10A6E4000DF038F940B90821384601F025F9D8B9F8
:10A6F4000B2607E0052807D13A460821384601F021
:10A7040073F90646002525E0334C344AA41AE408BC
:10A71400240406F017FB02465346314944F0010075
:10A7240006F004FF032653E02B4D2C4AAD1AED0826
:10A734002D0406F007FB03463A462A4945F001007A
:10A7440006F0F4FE0326DDE701250821384601F072
:10A75400F3F818BB002D3BD022460134A4B26B465B
:10A764000821384601F078F8814638BBDDF80480CA
:10A774000323454645F8063B08F1040229465046A2
:10A78400FFF720FF064600289CD00C28DCD00528C3
:10A7940001D00025D9E74E460025D6E70E4E0F4AD4
:10A7A400B61AF608360406F0CDFA03463A460D49C1
:10A7B40046F0010006F0BAFE0326CBE7072802D1D3
:10A7C40000250C26C6E706460025C3E743F2020629
:10A7D400304604B0BDE8F087F07B0300487B0300FB
:10A7E40028890300608903002DE9F04182B0054601
:10A7F40000F04CF94FF6FF73984205D1032400266C
:10A8040037464FF0010825E06A46082101F01EF89A
:10A8140020B9019B9F1D9E881C68F2E70324002633
:10A824003746EEE726B14FF00008032446460FE012
:10A834001B481C4BC01AC00800042A461A4940F0A1
:10A84400010006F069FE4FF00008032000E011202B
:10A854000B281CD12346324639462846FFF7B0FE62
:10A864000428F4D008280CD00B28F1D114F0020FDE
:10A8740009D1002FD6D04FF000080324464647469E
:10A88400E6E70020E4E74FF000080124E0E7B8F130
:10A89400000F02D002B0BDE8F0810B20FAE700BF40
:10A8A400F07B0300487B0300E089030000B585B01A
:10A8B4000DF10F03029300F0E9F801AA012100F061
:10A8C400C5FF20B9029B187805B05DF804FB002091
:10A8D400FAE7000010B504461348FFF775FE90B17F
:10A8E400124C134AA41AE408240406F02BFA024674
:10A8F400104944F0010006F00FFE032010BD43F29E
:10A9040003039842FAD14FF6FF72074B1988204689
:10A91400FFF754FE43F203039842F0D1024A13882E
:10A9240001331380EBE700BF38450020F07B0300C0
:10A93400487B0300588A030000B583B084466B4605
:10A94400064A92E8030083E80300002219466046A1
:10A9540000F024FD03B05DF804FB00BF40D8030001
:10A9640046DF704738B50546002405E0044B53F82C
:10A974002430284698470134012CF7D938BD00BF4C
:10A9840048D8030000230F2B03D8C25C1AB9013343
:10A99400F9E7002070470120704778B181B108B50C
:10A9A40003780A785340012B0CD806220131013078
:10A9B4000CF0D0FFB0FA80F0400908BD00207047C9
:10A9C400002070470020F8E72DE9F04104460D46C9
:10A9D40000F1110701F111081022013101300CF0CE
:10A9E400B9FF50B90646601CFFF7CCFF30B1681CB4
:10A9F400FFF7C8FF10B1012600E0002606F00106AB
:10AA040041463846FFF7C9FF637C03F0FE03042B7D
:10AA14000CD0062B11D06B7C03F0FE03042B0ED05C
:10AA2400062B01D0012302E0002300E0002300B143
:10AA34003BB946B153B1002006E00023F7E70023F9
:10AA4400F5E7012000E00020BDE8F0810120FBE7EC
:10AA540070B584B006460D4600F06AFC01AA0DF1FB
:10AA64000E01072000F06CFC50B1BDF80E40AC4262
:10AA7400F4D002993046FFF7A7FF0028EED001E09A
:10AA84004FF6FF74204604B070BD000013280DD8A3
:10AA940010B50446FFF7E0F828B104EB8404054B35
:10AAA40033F8140010BD4FF6FF70FBE74FF6FF704C
:10AAB400704700BF3C450020132816D838B504461B
:10AAC4000D46FFF7C9F868B104EB8404084B03EBA7
:10AAD4004403D3F802202A60DA881B7AAA80AB7177
:10AAE400002038BD43F20200FBE743F20200704746
:10AAF4003C45002038B505464FF6FF73984216D002
:10AB0400002401E00134A4B2132C0CD804EB840318
:10AB1400084A32F81330AB42F4D12046FFF79CF8D0
:10AB24000028EFD001E04FF6FF74204638BD0446FC
:10AB3400FBE700BF3C450020038843B9072B04D83A
:10AB4400C21892782AB90133F8E70020704701202F
:10AB540070470120704738B504460D46FFF7ECFFF7
:10AB640068B122882B889A4208D10822A91CA01C0B
:10AB74000CF0F0FEB0FA80F0400900E0002038BD8F
:10AB840030B585B0054600F0D3FB01AA0DF10E01E6
:10AB9400072000F0D5FB88B1029C04F14601284649
:10ABA400FFF7D9FF30B904F12A012846FFF7D3FF94
:10ABB4000028EAD0BDF80E0005B030BD4FF6FF7096
:10ABC400FAE70000132804D800EB8000014B23F8B7
:10ABD400101070473C45002038B50546FFF78AFF42
:10ABE4000446284600F0B2FE40B9132C06D804EB04
:10ABF4008404034B4FF6FF7223F8142038BD00BFC2
:10AC04003C45002010B58CB0144600230AE0C3F183
:10AC14000F0C10F80CE003F130020DEB020C0CF8F1
:10AC240030EC01330F2BF2D90023049305930693E0
:10AC34008DF81C3007E0C3F10F02C85C30326A445F
:10AC440002F8200C0133022BF5D96846FFF788FE81
:10AC5400002307E0C3F10F0230326A4412F8102CCB
:10AC6400E2540133022BF5D90CB010BD034602782F
:10AC740002F0FE02042A01D00020704700B585B01E
:10AC84000846B3F80110DA78ADF80C108DF80E20F0
:10AC94009A889B79ADF804208DF8063002AA01A9A0
:10ACA400FFF7B0FF032202A903A80CF053FEB0FA89
:10ACB40080F0400905B05DF804FB00000388102B08
:10ACC40072D100B593B00DF11C0E00F1040CBCE878
:10ACD4000F00AEE80F00BCE80F00AEE80F009CE8E0
:10ACE40007008EE807009DF8203003F0FE03062BD2
:10ACF4001BD14FF6FF71BDF81C202C4B02EB8200D8
:10AD040023F8101003EB40030898C3F80200BDF8C1
:10AD140024C09DF82600A3F806C018724FF6FF73EE
:10AD2400994236D113B05DF804FB00F001FB9DF8A5
:10AD340020305A08032B15D9022A10D102AA0DF18A
:10AD44000601072000F0FCFA00B30399013108A8BA
:10AD5400FFF78CFF0028F1D0BDF80610CBE74FF6C3
:10AD6400FF71C8E702AA0DF10601072000F0E8FA16
:10AD740048B10399113108A8FFF70FFE0028F1D05C
:10AD8400BDF80610B7E74FF6FF71B4E74FF6FF7151
:10AD9400B1E7ADF80A20ADF80C1000238DF80830A7
:10ADA40002A8FFF7DFFDBDE7704700BF3C45002068
:10ADB4008ADF70478BDF70478CDF704790F82E3046
:10ADC40043F0040380F82E30A023038650234386E7
:10ADD4000022828690F82E3062F3C40380F82E306D
:10ADE400012380F82F3070474FF4C873438506233E
:10ADF40083841823C38400230385704700B587B078
:10AE040000230193029303930493059306238DF87F
:10AE140004300B1D02930B88ADF80C3000F12E03A7
:10AE24000593C36B0BB101A8984707B05DF804FB09
:10AE340030B587B0002301930293039304930593E1
:10AE44000B79012B01D007B030BD05460C460C48E8
:10AE54000C4BC01AC00800040B4940F0040006F073
:10AE640055FBEB6B002BEED004228DF804202E351D
:10AE7400059522798DF8082001A89847E3E700BFDB
:10AE8400A87B0300487B0300D88A03002DE9F04126
:10AE940005460E4691F82070B0F81C80002401E0AD
:10AEA4000134E4B2BC4209D206EB44124146A8691B
:10AEB400FEF79AFC03460028F2D000E0002318466F
:10AEC400BDE8F08190F82E3003F01803082B03D06E
:10AED400182B03D0002070470120704701207047D1
:10AEE40008B5FFF767FF08BD2DE9F04186B090F87B
:10AEF4002C8090F8233013B906B0BDE8F0810446E5
:10AF04008D1C00F12E0600F12407FFF7E9FF002352
:10AF14000193029303930493059343463A463146BF
:10AF24002846FFF749FF06460D4D0E4BED1AED0876
:10AF34002D0445F004050C49284606F0E7FA0523DC
:10AF44008DF80430029632460849284606F0E4FAA1
:10AF5400002ED1D0E36B002BCED001A89847CBE7CD
:10AF6400A87B0300487B0300F08A0300FC8A0300EB
:10AF740070B586B004460D460023019302930393F3
:10AF84000493059300F12E030593FFF79BFFC8B9C3
:10AF940094F8226094F821302BBB002211460295CC
:10AFA400002E3AD0914230D003238DF80430E36B65
:10AFB4000BB101A8984704F160010020FFF7F8FEE7
:10AFC40006B070BD02238DF804300295E36B01A82E
:10AFD400984704F160010020FFF7EAFE2946204665
:10AFE400FFF782FFECE721462846FFF74FFF0346B1
:10AFF40040B19DF80C2042F001028DF80C20012292
:10B004001146CCE700220121C9E700238DF8043062
:10B0140029462046FFF768FFC9E7002BC4D0002368
:10B024008DF8043029462046FFF75EFFBFE700286D
:10B034003CD038B50D460446C263232200210CF0EF
:10B04400F5FC4DB32B7984F823302B7B84F82C301A
:10B054002B68CBB1186859689A68C4F82E00C4F8F4
:10B064003210C4F836209B896387AA6882B104F140
:10B0740024031068516803C304F1400323661F23AB
:10B08400A4F86430002038BD2046FFF797FEECE7B3
:10B094002046FFF7A9FEEFE72046FFF78FFE204684
:10B0A400FFF7A2FE002384F82330E5E70E20704763
:10B0B40010B586B0002837D00446002301930293CC
:10B0C400039304930593FFF70BFF2046FFF7FAFE63
:10B0D40030B1E36B23B101228DF8042001A8984715
:10B0E40004F1600104F12E00FFF762FE0446082813
:10B0F40000D068B90D480E4BC01AC00800040D49B1
:10B1040040F0040006F002FA0024204606B010BD08
:10B114000648074BC01AC00800042246064940F0FE
:10B12400010006F0F9F9F0E70E24EEE7A87B03002E
:10B13400487B0300388B0300148B030008B50346D7
:10B14400084603F10802194631F8043B1B2B0AD0C8
:10B154001D2B04D0102B05D1FFF750FE02E0114641
:10B16400FFF706FF08BDFFF763FEFBE7A0F580408D
:10B1740080B2704700F5804080B27047A0F58040EF
:10B1840080B270470138082806D8DFE800F00705C8
:10B1940005070707070707000020704701207047CD
:10B1A40038B505464FF6FF734380002404B138BD1B
:10B1B400284600F017FB0134F8E700B587B00023F8
:10B1C4000193029303930493059308238DF80430A9
:10B1D400ADF80800039101A8FFF7E2FF07B05DF89E
:10B1E40004FB000030B587B00023234A1370019399
:10B1F40002934FF6FF7000F0B3FC044606E02046CD
:10B2040000F056FC204600F0ABFC04464FF6FF73FA
:10B214009C420AD02046FFF7A9FF01AA03A904F023
:10B2240029FD48F209639842E9D04FF6FF739C4226
:10B2340001D107B030BD2046FFF798FF04F0D8FCD9
:10B24400054648F20763984212D00028F1D00B4813
:10B254000B4BC01AC008000423462A46094940F093
:10B26400010006F063F929462046FFF7A6FFE0E750
:10B27400014B01221A70DCE70C460020107C03000D
:10B28400487B0300508B030070B582B00E46154610
:10B29400002300930193FFF769FF04463046FFF74C
:10B2A4006DFF01466B462A46204604F0C7FC08B9E8
:10B2B40002B070BD0520FBE7F0B587B0FF282DD89C
:10B2C40005460C4617461E460846FFF75BFF38B393
:10B2D40003AA21462846FFF7D7FF28BB01A903A8E4
:10B2E40004F01AFC054608BBBC70019B5B883B80DC
:10B2F40076B19C003368A34228BF23461E461A46F3
:10B30400029978680CF060FBB44203D90C2508E07C
:10B31400029B7B6003A804F02BFC02E0072500E0FD
:10B324000725284607B0F0BD0525FAE70525F8E707
:10B33400024B00221A605A60704700BF0446002086
:10B34400F0B587B007460E461446FFF71BFF18B941
:10B354000125284607B0F0BD05463846FFF70EFF25
:10B364000D4A03A904F078FC08B10025F1E701A90E
:10B3740003A804F0D1FB08B10025EAE7A770019BFC
:10B384005A882280029A62609888FFF7F3FE308020
:10B3940003A804F0EDFBDCE704460020F0B587B019
:10B3A400FF2856D806460C4617468D782846FFF7E0
:10B3B400E9FE00284FD03046FFF7D8FEADF80C0068
:10B3C4002846FFF7DBFEADF80E006368049323887C
:10B3D40005936A46A1783046FFF756FF05281AD030
:10B3E40003A9684604F0FAFB0446E4B148F20D638D
:10B3F4009C4220D848F202639C421CD3A4F5064325
:10B40400023B0B2B17D8DFE803F0141616162A0C90
:10B4140016161616160C03A9684604F0D9FB044642
:10B42400E3E7112418E0BFB13946684604F030FC64
:10B4340012E0102410E00B480B4BC01AC0080004A3
:10B4440033462246094940F0010006F06FF8032410
:10B4540002E0072400E00724204607B0F0BD86245C
:10B46400FAE700BF107C0300487B03009C8B0300B9
:10B4740008B54FF6FF7000F001FB08BDFF2806D8A1
:10B4840008B500F003FBFFF7ADFE002008BD072060
:10B49400704708B500F01AFB08BD08B500F048FB7A
:10B4A40008BD08B500F05CFB08BD4FF6FF730380D0
:10B4B4008370FF234372837A23F002038372DBB227
:10B4C40023F001038372002303724360704700007A
:10B4D4000B68032B14D810B403EB4302094C34F863
:10B4E4002220824204D00133032BF5D9002004E04A
:10B4F4000B6003EB430304EB83005DF8044B7047DC
:10B50400002070471046002030B583B005460C4635
:10B514000023019301A9FFF7DBFF06E0019B013340
:10B52400019301A92846FFF7D3FF48B18378A342CA
:10B53400F4D1837A13F0030FF0D14368002BEDD1DB
:10B5440003B030BD0023032B0DDC03EB4301074A9A
:10B5540002EB81025268824201D00133F3E70348CF
:10B5640000EB810070470020704700BF10460020A8
:10B5740008B5FF214FF6FF70FFF7C6FF08BD58B1AD
:10B5840070B50D4614460646FFF7F2FF306010B161
:10B59400058033689C7070BD7047000038B505465F
:10B5A400002405E0044B53F824302846984701341E
:10B5B400032CF7D938BD00BF50D8030003EB830335
:10B5C4001B019BB2817042609B080380704708B5E1
:10B5D4009BB2FFF7F3FF08BD8378013B072B13D819
:10B5E400DFE803F007121212120A040D1423038079
:10B5F4007047012303807047012303807047436829
:10B604009B8809339B0803807047000038B50546C2
:10B61400002406E0697A2144C9B2054800F093FC8D
:10B6240001342B7AA342F5D82846FFF73EFF38BDF4
:10B634004046002030B583B00446002300930193B4
:10B6440083788DF80230417A2D4800F068FC20B3ED
:10B654000246237AA1786846FFF7B9FF6846FFF7E8
:10B66400BBFF224632F8040B6946FFF797FE112808
:10B6740038D01FD860B3072832D0224D224BED1AA0
:10B68400ED082D0405F05EFB024623881F4945F0B2
:10B69400010005F04BFF032022E01A481A4BC01AA0
:10B6A400C0080004627A1A4940F0010005F034FF32
:10B6B400032015E08628E0D1A37A23F00203A372C5
:10B6C400DBB243F00103A372124B01221A7007E0AC
:10B6D400A37A23F00203A372DBB223F00103A37263
:10B6E40003B030BDA37A43F00203A372DBB223F0AC
:10B6F4000103A372074B01221A700020F0E700BF78
:10B7040040460020087C0300487B0300488C03006B
:10B71400088C03000D46002030B587B00446FFF7BF
:10B7240089FF10B9012007B030BD4FF6FF72ADF8A4
:10B7340006202288ADF80820862807D107238DF833
:10B74400043001A8FFF72AFF0020ECE708228DF857
:10B7540004200390074D084AAD1AED082D0405F0A6
:10B76400F1FA02462388054945F0010005F0DEFEA2
:10B77400E7E700BF087C0300487B0300788C0300E4
:10B7840038B5164B1B783BB305460024134B1C708D
:10B794000DE0124B01221A7001B93DB104EB4400D3
:10B7A4000F4B03EB8000FFF7B7FFA8B10134032C64
:10B7B40012D804EB44020A4B03EB82039B7AC3F3D3
:10B7C400400113F0020FE4D1054B03EB82039B7A93
:10B7D40013F0010FEAD0DCE738BD00BF0D460020AE
:10B7E4001046002038B50446C068FFF7ABFE237846
:10B7F4000A2B0AD0142B15D0092B1BD1637ADBB981
:10B80400E0B1FFF703FF00250DE0637AC3B9C8B1C7
:10B8140000254560837A43F0020383720A4B0122B8
:10B824001A7003E001252046FFF7B8FE2846FFF70B
:10B83400A7FF38BD0025F6E70025F4E70025F2E769
:10B844000025F0E70025EEE70D46002008B50023AB
:10B85400FFF732FD08BD0000002B59D0F0B583B0CE
:10B8640006460C4615461F46CB1FDBB2012B51D8AA
:10B87400531E032B51D8FFF747FE0190D0B1037A32
:10B88400AB424CD1019E737AFF2B1DD00026019B45
:10B894001D72597A244800F042FB024618B3ABB239
:10B8A40021463846FFF78AFE002E3AD0082C28D0CD
:10B8B400002030E02246314601A8FFF760FE019BDC
:10B8C400002BDFD1112026E02946174800F050FB59
:10B8D40070720198437AFF2B01D00126D7E7FFF756
:10B8E400E4FD112017E01148114BC01AC0080004F0
:10B8F400019B5A7A0F4940F0010005F00DFE032028
:10B9040009E03B887A689B00063B9380002002E0B4
:10B914000E207047072003B0F0BD0720FBE70F207F
:10B92400F9E70020F7E700BF40460020087C030049
:10B93400487B0300D88C030008B5FFF7E5FD18B178
:10B94400FFF764FE002008BD0520FCE770B584B055
:10B9540005460023039303A9FFF7BAFD044607E055
:10B96400039B0133039303A92846FFF7B1FD044663
:10B97400D4B1A1782846FFF7DFFF0028F0D00528CE
:10B98400EED0154E154AB61AF608360405F0DAF963
:10B994000246A37800932B46114946F0010005F0B6
:10B9A400D0FD032004B070BD2846FFF767FD0028D2
:10B9B400F8D00728F6D0084C084BE41AE40824040D
:10B9C40005F0C0F903462A46064944F0010005F093
:10B9D400ADFD0320E6E700BF087C0300487B0300BD
:10B9E4004C8D0300A48D0300CB1FDBB2012B11D8B7
:10B9F40070B506460C4615461046FFF74AFD58B189
:10BA040021463046FFF780FD40B105808470FFF782
:10BA140011FE70BD072070470720FAE70520F8E7FC
:10BA240010B5044608464FF6FF739C4204D0FF2C21
:10BA34000CD94FF6FF7010BD4FF4807104F0F9F982
:10BA440080B2B0F5807FF6D12046F4E7214604F0B9
:10BA5400CCF980F0010010F0FF0F01D02046EAE796
:10BA64004FF6FF70E7E708B50346FF2800D908BD85
:10BA74000846194604F0C7F9F9E7000008B5024979
:10BA8400FFF7CEFF08BD00BF504600204FF6FF73FE
:10BA9400984209D010B504460449FFF7C1FF844217
:10BAA40014BF0020012010BD002070477046002004
:10BAB40038B50446044D2946FFF7D5FF05F12001AA
:10BAC4002046FFF7D0FF38BD50460020FF2801D99B
:10BAD4000020704708B50146014804F0A1F908BDEB
:10BAE40050460020FF2801D90020704708B50146C0
:10BAF400014804F095F908BD7046002038B50D469C
:10BB04004FF6FF73984202D0441CA4B203E0002411
:10BB140001E00134A4B2FF2C06D82146284604F0E3
:10BB24007FF90028F5D001E04FF6FF74204638BDB8
:10BB340010B50A49FFF7E2FF044604E0074920462E
:10BB4400FFF7DCFF04464FF6FF739C4204D0204607
:10BB5400FFF7C8FF0028F1D1204610BD5046002051
:10BB640008B50249FFF7CAFF08BD00BF70460020B0
:10BB740038B50546002405E0054B53F82430284623
:10BB840098470134034B1B78A342F5DC38BD00BF52
:10BB9400944600209046002010B586B0848803881F
:10BBA400102B06D0144B19782046FEF7AFF806B0D8
:10BBB40010BD00238DF80330019302930393049383
:10BBC400059301238DF804304FF6FF73ADF8083068
:10BBD400ADF80640083003900DF10303049301A867
:10BBE400FFF7C6FF9DF80320034B19782046FEF7A4
:10BBF400A7F89DF80300DAE7282B0020094B1B78EF
:10BC040003B9704710B50446FFF7C6FF00B110BD75
:10BC14002046FFF753F8204601F032F82046FEF79D
:10BC2400E7FBF4E7AE46002018B108B5FFF7A0FF24
:10BC340008BD704708B5FFF79BFF08BD08B5FFF7BF
:10BC440097FF08BD08B5FFF793FF08BD2DE9F04F36
:10BC540087B00193364B1B78002B63D083468A460A
:10BC640091464FF6FF70FFF718FC04460023059336
:10BC7400042204920293039305AB039304AB02AA38
:10BC84000621FFF719FB072850D04FF6FF77B84677
:10BC94004FF0FF35002611E0059BB34201D3A046C7
:10BCA4001E46AB4201D227461D462046FFF7F5FB50
:10BCB400044604AB02AA0621FFF7FEFA0028EBD0E3
:10BCC4000528F2D04FF6FF739C421BD1984517D03C
:10BCD4009F4213D00020BBF1000F01D0ABF80080CD
:10BCE400BAF1000F01D0CAF80060B9F1000F01D019
:10BCF400A9F80070019BB3B11D6014E00520EAE7C8
:10BD04000520E8E70B4D0C4BED1AED082D0405F06A
:10BD140019F802462346094945F0010005F006FCDE
:10BD2400032000E0082007B0BDE8F08F0520FAE703
:10BD3400AE460020E07B0300487B03000C8E03002A
:10BD440008B500231A460C490C48FFF77FFF052865
:10BD540004D068B1052809D000220AE0074B4FF649
:10BD6400FF721A80044B00221A60F2E7012200E0FD
:10BD74000122034B1A7008BDA4460020A0460020EF
:10BD8400AD46002030B587B004468088FEF7B2FE89
:10BD940060802378093B032B00F28280DFE803F004
:10BDA4000232457D637AE3B94D4B1B6813B1E268F7
:10BDB40093420ED04B4B1B78002B71D0A2884A4B78
:10BDC4001B889A426CD1237A062B69D1FFF7B8FFFE
:10BDD40066E00023424A1360A188434A1180E3606D
:10BDE4005EE0012B5CD13F4B1B78002B58D0A2881E
:10BDF4003D4B1B889A4253D1237A062B50D1FFF72F
:10BE04009FFF4DE0637A002B4AD1354B1B68002B12
:10BE140046D0E268934243D10022314B1A60334941
:10BE24000B68013B0B60E2603AE0314B1D7855B979
:10BE340001252C4B1B7823B1A2882B4B1B889A42DB
:10BE440028D085B32CE04FF6FF70FFF726FB4FF6A2
:10BE5400FF739842EDD11846FFF723FB4FF6FF73AB
:10BE64009842E6D10025224B1D7001950295039559
:10BE7400049505950D238DF804304FF6FF73ADF846
:10BE84000830ADF806302046FFF772FE01A8FFF730
:10BE94006FFECEE7FFF754FFD3E7154B1B7823B9AA
:10BEA4002046FFF765FE07B030BD0023104A13702B
:10BEB400019302930393049305930E238DF80430A6
:10BEC4004FF6FF73ADF80830ADF80630A36803935E
:10BED4002046FFF74DFE01A8FFF74AFEE3E700BF47
:10BEE400A8460020AD460020A0460020A44600201D
:10BEF400AC46002008B503F078FF80F00100C0B222
:10BF0400BFF35F8F08BD08B5BFF35F8F03F088FFF1
:10BF140008BD08B5BFF35F8F03F075FF08BD38B5E2
:10BF2400054668B10C46006850B1686840B1FF2905
:10BF340007D0FFF7E8FF20B12868EB6803FB040093
:10BF440038BD0020FCE790B138B50C4605460368BF
:10BF54001BB1406808B1FF2900D138BDFFF7D3FFFA
:10BF64000028FAD021466868FFF7D3FFF5E7704749
:10BF7400F8B550B30F460646036843B3436843B36A
:10BF84000025FF2405E02B1B0133BB421BD00135E8
:10BF9400EDB2B3689D4215D229467068FFF7AAFF37
:10BFA40018B1FF2CEFD12C46EDE7FF2CEFD005E0C4
:10BFB40021463046FFF7C7FF0134E4B2A542F7D863
:10BFC400FF24E4E7FF242046F8BDFF24FBE7FF2419
:10BFD400F9E7FF24F7E77EDF70477FDF704786DFEE
:10BFE400704708B5FFF7F7FF042800D008BD1120FB
:10BFF400FCE719B108B5FFF7F4FF08BD002070474E
:10C0040038B504464088FEF741FDA080002505B1FF
:10C0140038BD204600F004FE0135F8E700B587B0CE
:10C0240000230193029303930493059305238DF84E
:10C034000430ADF8060001A8FFF7E2FF07B05DF891
:10C0440004FB00B587B00023019302930393049388
:10C05400059308238DF80430ADF80600039101A878
:10C06400FFF7CEFF07B05DF804FB000000B587B012
:10C0740094460022019202920392049205924FF098
:10C08400040E8DF804E0ADF806008DF80C10ADF840
:10C094000EC08DF81030054B1978FDF751FE01A83C
:10C0A400FFF7AEFF07B05DF804FB00BF2C2B0020A8
:10C0B40000B587B00023019302930393049305937F
:10C0C40002238DF80430ADF806008DF80C1001A899
:10C0D400FFF796FF07B05DF804FB000070B5054656
:10C0E4000C4616460A460E4B1978FDF729FE04B98C
:10C0F40070BD321E18BF01220A4B19782846FDF77D
:10C104001FFE012E14BF00220122074B1978284676
:10C11400FDF716FE31462846FFF7CAFFE8E700BFE1
:10C124002C2B00202B2B00202A2B002000B587B0BD
:10C1340000230193029303930493059306238DF83C
:10C144000430ADF80600039101A8FFF759FF07B0CA
:10C154005DF804FB10B504460088FDF789FD01284D
:10C1640005D0214631F8040BFFF7E0FF10BD02466D
:10C174002088237913F0010F00D102220121FFF757
:10C18400ADFFEEE700B587B000230193029303935C
:10C194000493059307238DF80430ADF8060001A835
:10C1A400FFF72EFF07B05DF804FB00B587B003234B
:10C1B4008DF804300388ADF80630437913F0040F8A
:10C1C4000AD001238DF80C308DF80D1001A8FFF76B
:10C1D40017FF07B05DF804FB0223F3E7F0B583B063
:10C1E40043B304460E4617461D4600F580706B4661
:10C1F4000122072180B2FFF72FFB112818D030BB92
:10C204005022002101980BF011FC019B1E70019932
:10C2140001F134032B60EF6001F118032B614B1C17
:10C224006B611B4BEB6111312046FEF745FCF0B905
:10C2340003B0F0BD1748184BC01AC0080004174AD1
:10C24400174940F0010005F067F90320F0E7114DAC
:10C25400114BED1AED082D0404F074FD024623463B
:10C26400104945F0010005F061F90320E0E7094DAC
:10C27400094BED1AED082D0404F064FD0246234633
:10C28400094945F0020005F051F90820D0E700BF44
:10C29400B0460020207C0300487B030060D80300E4
:10C2A400888F0300BC8F0300209003002DE9F8431E
:10C2B40004460D461646184B1978FDF727FD90B134
:10C2C400012704F58070072180B2FFF735FB804613
:10C2D40008B1052809D133462A4639462046FFF7D6
:10C2E400C5FEBDE8F8830227EBE70C4B0C4AA3EB31
:10C2F40002094FEAD9094FEA094904F023FD02462D
:10C304002346084949F0010005F010F9414620464A
:10C31400FFF797FEDFE700BF2A2B0020207C0300F5
:10C32400487B03007090030070B506460C46154622
:10C334000C4B1978FDF7EAFC00B970BD0A4B19786B
:10C344003046FDF7E3FC28B12A4621463046FFF784
:10C35400ADFFF2E72B46224600213046FFF786FE6A
:10C36400EBE700BF2C2B00202B2B002008B5037912
:10C374003D2B06D04FF4885100220088FFF7D4FFEC
:10C3840008BD41F23D01F7E708B5427902F0030226
:10C3940001790088FFF7C8FF08BD0000F0B585B03B
:10C3A400044600F10C063046FEF7EAFB4FF6FF7335
:10C3B400984227D0054601462088FEF703FC002258
:10C3C40001212088FFF78AFE4FF6FF739D421ED19C
:10C3D400002700231A4639462088FFF700FE064648
:10C3E400082833D000283CD1A37D13F0010F4BD093
:10C3F400002F49D1002341F2060219462088FFF795
:10C4040035FE41E02088FEF741FB0546D7E702AA46
:10C4140007212846FFF71AFAA0B9039FA37D13F05A
:10C42400010F11D097F8443013F0010F01D03437C5
:10C43400CFE7314607F14600FEF78DFB0028F6D121
:10C444000027C6E70027C4E70027C2E70F48104BC0
:10C45400C01AC00800040F4940F0020005F056F865
:10C4640012E00A4F0A4BFF1AFF083F0404F06AFC6B
:10C47400024600952388084947F0010005F061F859
:10C4840031462088FFF7DDFD05B0F0BD207C0300B8
:10C49400487B0300DC9003004C9103002DE9F0433A
:10C4A40085B00446078800225D4B19783846FDF7AD
:10C4B40047FC637913F0040F3FD007F58076B6B2DA
:10C4C40002AB012207213046FFF7C6F98046002857
:10C4D4003AD13846FEF7DAFA05464FF6FF7398422A
:10C4E40049D04FF000082A4607213046FFF77CFA6E
:10C4F4008146002800F08680862800F08880494E16
:10C50400494BF61AF608360404F01CFC0246009562
:10C514003B46464946F0010005F013F849463846C3
:10C52400FFF78FFD00212046FFF73FFEB8F1000F13
:10C5340007D02846FEF750FB03E000212046FFF712
:10C5440034FE05B0BDE8F083364D374BED1AED08E7
:10C554002D0404F0F7FB02463B46354945F0010043
:10C5640004F0E4FF41463846FFF76BFD0021204606
:10C57400FFF71BFEE5E719460398FEF769FA05463F
:10C584004FF6FF7398421CD001463846FEF71AFB5B
:10C59400284B19783846FDF7B9FB804610B14FF0A7
:10C5A4000008A0E73846FFF739FD224B19783846D2
:10C5B400FDF7ACFB002896D100212046FFF7F5FDDE
:10C5C400BFE7FEF755FF05464FF6FF73984206D0C6
:10C5D40001463846FEF7F6FA4FF0010883E71148A2
:10C5E400114BC01AC0080004134940F0010004F0C4
:10C5F4008DFF04213846FFF724FD00212046FFF774
:10C60400D4FD9EE701212046FFF7CFFD99E7384688
:10C61400FFF7B8FD01212046FFF7C7FD91E700BFF2
:10C624002C2B0020207C0300487B03004C92030049
:10C63400BC910300292B00201892030008B503794C
:10C6440013B9FFF72BFF08BDFFF79EFEFBE70000C1
:10C6540010B586B00446144B19780088FDF756FBD4
:10C6640008B106B010BD2088FDF726FB38B90123B8
:10C6740041F2060200212088FFF7F8FCF1E70022CE
:10C684000A4B19782088FDF75BFB03238DF80430EF
:10C694002388ADF8063000238DF80C308DF80D306A
:10C6A40001A8FFF7ADFCDCE72B2B00202C2B00208E
:10C6B4002DE9F04188B007460D461646FDF7D8FA35
:10C6C40004462022002168460BF0B0F9012C16D054
:10C6D400002C4FD0002D3FD03846FEF7D7F94FF647
:10C6E400FF73984227D0012C10D04FF000082B780C
:10C6F40013F0010F25D10396204B07932EE000225F
:10C704001F4B19783846FDF71BFBE1E71C4B1978E2
:10C714003846FDF7FBFA10B14FF00008E7E738465A
:10C72400FFF77CFC164B19783846FDF7EFFA28B171
:10C734004FF00008DBE74FF00008D8E74FF085081A
:10C74400D5E7B8F1850F09D06B4632462146384605
:10C75400FFF744FD58B901E04FF08508012C00D0E3
:10C7640000256B462A4641463846FFF736FC08B09A
:10C77400BDE8F08143F20200F9E700BFB0460020B3
:10C78400292B002038B504460D46FDF771FA01281F
:10C7940002D043F2020038BD29462046FFF729FCA7
:10C7A400F9E708B50388113B092B09D8DFE803F042
:10C7B4000508090D0808080811150430FFF7D6FD0F
:10C7C40008BD0430FFF7C6FCFAE70430FFF7E6FDC6
:10C7D400F6E70430FFF732FFF2E70430FFF738FFE3
:10C7E400EEE700000022026042608260014A1268A3
:10C7F40002607047F846002010B504461046002336
:10C8040023606360A360E360236121706280FEF7AC
:10C814003DF9A080204610BD00B583B06A460721CB
:10C82400FFF714F838B9019B93F8443013F0010F63
:10C8340002D0012000E0002003B05DF804FB38B50D
:10C844000546002404B138BD2846FFF7EDF901344C
:10C85400F8E708B5FFF7F3FF08BD30B587B00D461C
:10C8640014460246062101A8FFF7C6FF0395049467
:10C8740001A8FFF7E4FF07B030BD10B586B002464B
:10C884000C46082101A8FFF7B7FF039401A8FFF79E
:10C89400D6FF06B010BD000010B50446134611299A
:10C8A4000DD000226BB10A4B19782046FDF748FAE7
:10C8B4000022084B19782046FDF742FA10BD0122E8
:10C8C400F0E7044B19782046FDF73AFAF6E700BF83
:10C8D4002D2B0020302B002070B586B00546112981
:10C8E40034D8DFE801F02D333333333333332D338E
:10C8F400333333093333332D16461F481F4BC01AC5
:10C90400C00800042A461E4940F0020004F004FE58
:10C914002A4604210DEB0100FFF76EFF96B1337830
:10C9240013F0010F10D102238DF80C3000238DF881
:10C93400103041F20113ADF80E3001A8FFF77FFF6C
:10C9440006B070BD0223EFE70123EDE70C460A4E63
:10C954000A4BF61AF6083604084604F0F3F90246C0
:10C964002B46084946F0010004F0E0FD2146284624
:10C97400FFF783FFE4E700BF187C0300487B030054
:10C98400B89203007093030030B585B004460D4699
:10C9940001A8FFF727FF01AA29462046FFF75DFFFC
:10C9A400094B1A6801992046FFF782FE05460122C9
:10C9B40001462046FFF770FF019A29462046FFF7FB
:10C9C4008BFF05B030BD00BFF046002008B5002144
:10C9D400FFF7DAFF08BD00002DE9F04385B00446F7
:10C9E40016461F46884689B901A8FFF7FBFE01AA2F
:10C9F40000212046FFF731FFDDF80490284B1B7817
:10CA040033B99DF80D301BB9052625E04FF0000918
:10CA1400324649462046FFF7B5FE05460022014648
:10CA24002046FFF739FF112D1AD80123AB4042F6F7
:10CA34000112134229D113F4003F15D04246194B79
:10CA440019782046FDF77CF93246174B19782046B1
:10CA5400FDF776F90026E7B9304605B0BDE8F08366
:10CA640043F202039D4212D0104E114BF61AF608FF
:10CA74003604284604F066F9024623460D4946F07A
:10CA8400010004F053FD0326E5E72E46E3E72E46B6
:10CA9400E1E74A4629462046FFF71EFFDCE700BFD0
:10CAA400F44600202E2B00202F2B0020187C03009E
:10CAB400487B0300DC93030038B50446084B19781F
:10CAC400FDF724F90546074B19782046FDF71EF9B2
