:020000022000DC
:1070000000000420197202000172020055FD020006
:1070100005720200077202000972020000000000FF
:107020000000000000000000000000009D4D030073
:107030000D72020000000000BD4D0300117202003D
:10704000C1D00200137202007DD702005DE8020089
:1070500071E8020013720200A1D602002DDF0200C7
:1070600045EB02005DEB020075EB020013720200BB
:1070700013720200137202001372020013720200F4
:107080001372020005500300137202001372020013
:107090001372020013720200C52003001372020073
:1070A00013720200137202008DEB0200A5EB0200C6
:1070B00019DE020013720200000000000000000050
:1070C00013720200137202001372020085E80200BC
:1070D0001372020013720200137202001372020094
:1070E000137202001372020013720200000000000B
:1070F0000000000013720200000000001372020082
:10710000000000000000000000000000000000007F
:10711000000000000000000000000000000000006F
:10712000000000000000000000000000000000005F
:10713000000000000000000000000000000000004F
:10714000000000000000000000000000000000003F
:10715000000000000000000000000000000000002F
:10716000000000000000000000000000000000001F
:10717000000000000000000000000000000000000F
:1071800000000000000000000000000000000000FF
:1071900000000000000000000000000000000000EF
:1071A00000000000000000000000000000000000DF
:1071B00000000000000000000000000000000000CF
:1071C00000000000000000000000000000000000BF
:1071D00000000000000000000000000000000000AF
:1071E000000000000000000000000000000000009F
:1071F000000000000000000000000000000000008F
:10720000FEE7FEE7FEE7FEE7FEE7FEE7FEE7FEE756
:10721000FEE7FEE700F002B8FFF7FCBF0F484FF0B3
:107220000701884385460E4880470E48016841F4AF
:1072300070010160BFF34F8FBFF36F8F00F01AB87A
:1072400009480A490A4A884207D0521A05D00378E9
:1072500001300B700131013AF9D170470000042070
:107260002195020088ED00E040720300082B002009
:107270001C2B00203A493B480A1A02D007229143AE
:107280008D46394939480A1A06D00722914381F3BD
:107290000988022282F3148835483649364A00F0BC
:1072A00041F836483649374A00F03CF83648374905
:1072B000374A00F037F837483749384A00F032F893
:1072C00037483849384A00F02DF838483849394AA3
:1072D00000F028F838483949394A00F023F839488D
:1072E0003949002200F036F838483949002200F0C8
:1072F00031F838483849091A0FF022FE374A9047CA
:1073000025482649884205D00268043003B49047D6
:1073100003BCF7E700208646EC4600200021304AF7
:107320009047FEE7884214D0521A12D003460B430E
:1073300013430324234206D1036804300B60043155
:10734000043AF9D17047037801300B700131013AEA
:10735000F9D17047884202D002700130FAE77047D5
:107360000000042000F80320000004200000042096
:1073700028D503001C2B0020602B0020E4730200A2
:10738000E4730200CA70030028D503001C2B002000
:107390001C2B00205472030054720300647203001B
:1073A00054720300547203005472030064720300A9
:1073B0006472030027D503006CD50300602B002006
:1073C000602B0020602B0020CC7F0020CC7F002091
:1073D000CC7F0020CC7F0020CC83002041720200B3
:0473E00085650300BC
:1073E400BFF34F8F0549CA6802F4E062044B1343AC
:1073F400CB60BFF34F8F00BFFDE700BF00ED00E09F
:107404000400FA0510B5044600F01CFD22460D21C7
:10741400012000F021FF10BD10B5044600F012FD5C
:1074240022460821012000F017FF10BD10B50446C4
:1074340000F008FD22460F21012000F00DFF10BDD1
:1074440010B5044600F0FEFC22460E21012000F097
:1074540003FF10BD08B500F0F5FC00221021012047
:1074640000F010FF08BD08B500F0ECFC002211216B
:10747400012000F007FF08BD08B501212F2001F00D
:10748400FEFB0021142001F0FAFBFFF7A9FF000026
:1074940038B5044603461F4A43F8142B43600023BF
:1074A4008360C3601C4B03611C4B03601C4D45612E
:1074B40080611C4BC3611C4B4361056240621B4BE2
:1074C40083621B4B03620CF083FCE06225636463FC
:1074D400184BA363184B23630CF07AFCE063256418
:1074E4006464164BA364164B2364E5642465154B4E
:1074F4006365154BE3640CF06BFCA065E5652466DD
:10750400124B6366124BE3650CF062FCA0662046E6
:1075140038BD00BF34CD03006472030084CC030083
:1075240020CD030068720300A4CC0300787203002A
:1075340090CC030098720300CCCC0300807203004B
:10754400F4CC030088720300E0CC0300A0720300B3
:10755400B8CC0300034600F114020848026003F1AA
:107564002002426003F13002826003F14002C260F3
:1075740003F14C0202615C3343617047602B0020CD
:107584002DE9F04389B0064600F05CFC02AC524D94
:107594000FCD0FC495E8030084E803004F4C504B13
:1075A400E41AE408240444F003044E4920460AF093
:1075B400C7F84D4920460AF0C3F89DF808204B4906
:1075C40020460AF0C3F89DF80920494920460AF0EC
:1075D400BDF89DF80A904A46464920460AF0B6F896
:1075E4009DF80B709DF80C303A46434920460AF04A
:1075F400B7F89DF80D809DF80E3042463F4920466D
:107604000AF0AEF83E4920460AF09AF8BDF8102078
:107614003C4920460AF09AF8BDF812203A4920461F
:107624000AF094F8BDF81420384920460AF08EF880
:10763400069A374920460AF089F8364920460AF066
:107644007FF8079DEAB2344920460AF07FF8C5F373
:107654000722324920460AF079F8C5F30742304937
:1076640020460AF073F8B9F1010F14BF0023012377
:107674002FB1B8F1000F02D0B9F1010F10D000936F
:1076840043463A46274920460AF075F80DF0ECFACD
:1076940032460921022000F0DFFD09B0BDE8F08385
:1076A400009343463A46204920460AF064F80DF018
:1076B400DBFA32460B21022000F0CEFD0BF090F8ED
:1076C40032460621032000F0C7FD32460C2101207A
:1076D40000F0C2FDE1E700BFAC5500209871030043
:1076E40048710300A8720300CC720300E472030023
:1076F400087303002C730300587303009073030092
:10770400C8730300DC730300F473030008740300FC
:107714001C74030040740300547403006C7403006D
:1077240088740300E4740300A474030010B50446D1
:1077340000F088FB2046FFF723FF224609210120A1
:1077440000F08AFD10BD000010B50BF049F80446A6
:10775400074A032100F07AFD064A0821204600F07A
:1077640075FD054A0721204600F070FD10BD00BFDD
:1077740009740200317702001D74020010B50DF087
:1077840073FA0446044A052100F060FD034A0D2102
:10779400204600F05BFD10BD317402004574020008
:1077A40008B5FFF7D1FFFFF7E9FF01F06BF8254BB0
:1077B4001B68BFF35B8F13F0010F15D0224B1B68BE
:1077C400BFF35B8F13F0010F1DD0204B1B68BFF379
:1077D4005B8F13F0010F25D001F0E4FA01F0A6FA53
:1077E400014601F0EAFB08BD16480FF04FFC0028E3
:1077F400E4D00023164A1321164800F0F9FF11487B
:107804000FF058FCDAE710480FF040FC0028DCD0F9
:107814000023114A0D21114800F0EAFF0A480FF035
:1078240049FCD2E709480FF031FC0028D4D00023EA
:107834000B4A11210B4800F0DBFF04480FF03AFC1F
:10784400CAE700BF982B0020882B0020782B00204B
:10785400597402009C2B00206B7402008C2B0020B6
:107864007D7402007C2B002010B504460BF0B6FB9F
:1078740000220321042000F0EFFC0D4B0D4A9B1A5B
:10788400DB081B040C4943F0030009F059FF01F025
:107894004DFA012101F0B9FB0DF0E6F900220321B4
:1078A400022000F0D9FCE0680CF03EFC10BD00BFE3
:1078B40098710300487103002475030008B50AF0A9
:1078C4008FFF00220621032000F0C6FC0DF0CCF946
:1078D40000220721022000F0BFFC01F027FA00215A
:1078E40001F093FB08BD70B50C4646683046FFF7BF
:1078F40031FE0546A1B203390F290DD8DFE801F0A6
:10790400170C0C0C0C1C0C0C0C0D0C240C082E2944
:10791400C168304600F007FD70BD01F007FA01218F
:1079240001F09CFBE968304600F0FDFCF4E7C16817
:10793400304600F0F8FCEFE70AF052FF0022042181
:10794400032000F089FCE7E7C168304600F0EBFC57
:10795400E2E74169304600F0E6FCDDE701F09CF81F
:1079640001F0B4F80028D7D101F096F801F0B0F88E
:10797400D2E7704708B51048104BC01AC00800047D
:107984000F4940F0030009F0DBFE0AF029FF002252
:107994000221032000F060FC0DF066F900220221B0
:1079A400084600F059FC0BF019FB002202210420C8
:1079B40000F052FC08BD00BF987103004871030039
:1079C4004075030038B50C4645682846FFF7C2FDEC
:1079D400A1B20D290BD011290DD101F05DF801F0F0
:1079E40075F840B901F058F801F072F803E0C16885
:1079F400284600F098FC38BD10B50BF0EFFC0BF0F6
:107A0400EDFA00220321042000F026FC0AF0E8FE2F
:107A140000220421032000F01FFC0DF025F90022B0
:107A24001121022000F018FC01F080F9044605231E
:107A34000022014601F038FA2146204601F09AFA64
:107A44000548064BC01AC0080004054940F002006E
:107A540009F076FE10BD00BF987103004871030061
:107A64007075030070B50C4646683046FFF772FD2A
:107A7400A1B203390E2918D8DFE801F00817171747
:107A840017231717172B17171718330005461A480B
:107A94001A4BC01AC0080004194940F0020009F04A
:107AA4004FFEE968304600F03EFC70BD1248134BAF
:107AB400C01AC0080004134940F0020009F040FE57
:107AC400F3E70AF08DFE00220421032000F0C4FB3A
:107AD400EBE70AF085FE00220421032000F0BCFB42
:107AE400E3E700F0D9FF00F0F1FF0028DDD100F05A
:107AF400D3FF00F0EDFFD8E798710300487103004D
:107B0400BC750300EC75030010B504460BF02EFBA6
:107B1400E0680CF03DFB0DF0A7F8002207210220DD
:107B240000F09AFB0AF05CFE00220621032000F01C
:107B340093FB0BF053FA00220421084600F08CFB5F
:107B440001F0F4F8014601F038FA10BD08B50AF066
:107B540047FE00220421032000F07EFB01F0E6F83A
:107B6400012101F03EFA08BDF8B505460C46476808
:107B74003846FFF7EFFC06461B4B1C4A9B1ADB08F2
:107B84001B0422461A4943F0030009F0DFFDA4B2A6
:107B9400083C0A2C0ED8DFE804F0060E0D0D0D0D7E
:107BA4000D0D0D1B1600E8680CF0F2FA3169384629
:107BB40000F0B9FBF8BDE8680CF0B6FA7168384615
:107BC40000F0B1FBF6E77169384600F0ACFBF1E771
:107BD40000F062FF00F07AFF0028EBD100F05CFFB8
:107BE40000F076FFE6E700BF9871030048710300D8
:107BF4003C76030008B50DF037F80022032102207B
:107C040000F02AFB01F092F8002101F0EAF908BD26
:107C140008B542F210700AF093FC01F087F80021D5
:107C240001F007FA08BD08B542F210700AF088FCAA
:107C34000AF0D6FD00220421032000F00DFB0DF014
:107C440013F800220C21022000F006FB0BF0C6F909
:107C540000220321042000F0FFFA01F067F801215B
:107C640001F0E7F908BDF8B505460C464768384603
:107C7400FFF770FC0646A1B208390A2923D8DFE8C9
:107C840001F00623222222222B2222433E000AF064
:107C9400A7FD00220621032000F0DEFAE8680CF0BC
:107CA40077FA0CF0E1FF00220721022000F0D4FA59
:107CB4000BF094F900220421084600F0CDFAF16893
:107CC400384600F030FBF8BDE8680CF02DFA716816
:107CD400384600F028FBF6E70CF0C6FF0022072127
:107CE400022000F0B9FA0BF079F9002204210846C9
:107CF40000F0B2FAF168384600F015FBE3E7416999
:107D0400384600F010FBDEE700F0C6FE00F0DEFEB1
:107D14000028D8D100F0C0FE00F0DAFED3E77047A7
:107D240038B50C4645682846FFF714FCA1B2112962
:107D34000DD0122906D0102903D18168284600F0FD
:107D4400F2FA38BD4169284600F0EDFAF9E700F08F
:107D5400A3FE00F0BBFE0028F3D100F09DFE00F06E
:107D6400B7FEEEE708B500F0E1FF014601F025F9A2
:107D740008BD38B50C46154600F064F82A4621467D
:107D840000F6EC1000F0C7FA38BD000010B5044648
:107D940000F048FA014B2360204610BD08CD0300D3
:107DA40038B5134B1A6801321A60124C124BE41A9C
:107DB400E408240444F003041049204609F0C6FCF6
:107DC4000CF006F805460CF0EDF8B5F904200C4962
:107DD400204609F0BBFC0AF02BFF05460BF044F8E3
:107DE400B5F900200749204609F0B0FC38BD00BFB2
:107DF400A82B0020987103004871030064760300E7
:107E0400787603009C76030010B582B0044600F037
:107E140022F904F51960FFF7B9FF04F6EC10FFF737
:107E240037FB064B0093012341F28832044904F6E0
:107E3400582000F0A3FA204602B010BDA57D020030
:107E4400BC76030008B50A4B1B68BFF35B8F13F0C5
:107E5400010F01D0074808BD05480FF017F90028A5
:107E6400F8D00448FFF7D0FF01480FF023F9F1E7F9
:107E7400AC2B0020B02B002010B582B0044600F0DB
:107E8400ABF9194A0421204600F0FAF822460121F0
:107E940004F5196000F0CEF90BF0A0F80BF0B8F877
:107EA4000CF0E2FE0CF0FAFE0AF09AFC0AF0B2FCC6
:107EB40004F6EC1000F04BFA04F6582000F078FABF
:107EC4000BF0D6F809480A4BC01AC0080004094B45
:107ED4000193002200920123074940F0030009F0B6
:107EE40057FC02B010BD00BFCC76030098710300AC
:107EF400487103000C770300E076030008B500F036
:107F040029F908BD032824D8012A06D001290CD058
:107F1400022910D0B1B107207047012901D00022F5
:107F2400F4E700F10E02D2B2F0E700EB40000A4B96
:107F34001A540020704700EB4000074B03445A706A
:107F44000020704700EB4000034B03449A7000206C
:107F540070470720704700BF3C36002008B5012257
:107F640000210846FFF7CEFF10B10346072812D1BF
:107F7400072202210120FFF7C5FF034608B10728A5
:107F840009D1042202210020FFF7BCFF034610B1EF
:107F9400072800D10023184608BD08B50122022194
:107FA4000020FFF7AFFF10B10346072812D10722C4
:107FB40002210120FFF7A6FF034608B1072809D1D3
:107FC4000A2200210846FFF79DFF034610B1072847
:107FD40000D10023184608BD08B50388102B0ED025
:107FE400112B13D10F4A1368013B136073B9FFF7C8
:107FF400D4FF58B10C4B1B6843B1984706E0094BBA
:108004001B6823B1074A13680133136008BDFFF7E7
:10801400A5FF0028F6D0044B1B68002BF2D098472C
:10802400F0E700BF483600204C36002010B584B07D
:1080340004464FF0FF3201A9D4F8F4080DF076FAA3
:108044000128F6D101980028F3D003681B68039A2D
:1080540002999847EDE738B504460025C0F8F05872
:10806400C0F8F4585022294600F6F8000EF0DEFF5E
:108074004822294604F648100EF0D8FF204638BDA1
:1080840010B584B004460B46114600F1F00200F628
:10809400F80002900192009323464FF400720948BD
:1080A4000DF0BAFCC4F8F0080023009304F648135A
:1080B40022460C2114200DF0E5F8C4F8F40804B0AD
:1080C40010BD00BF3180020000B585B0019102925D
:1080D400039300231A4601A9D0F8F4080DF012F90D
:1080E40005B05DF804FB000000B585B00191029273
:1080F4000393002300936A4601A9D0F8F4080DF015
:10810400B9F9009B43B1064B4FF080525A6040BF0F
:10811400BFF34F8FBFF36F8F05B05DF804FB00BF53
:1081240000ED00E0034B0360034B0B6080231360FE
:10813400704700BFA0400020A03E0020034B036016
:10814400034B0B604FF4007313607047503E0020E4
:108154005036002008B50DF0A1FCFEE710B50E4C1A
:108164000E4BE41AE40824040D4944F0020009F01B
:10817400E7FA4FF40041002009F0C6F808F0BEFF0A
:1081840044F003040749204609F0DAFA0649204678
:1081940009F0D6FA10BD00BF9871030048710300BE
:1081A4001C7703003C7703005C77030008B503E009
:1081B40009F05CF9034B1870024B1B78002BF7D1C4
:1081C40008BD00BF1C2B002008B5FFF7EFFF08BD5A
:1081D40008B504F069FD08BD30B589B0FFF7F8FFB4
:1081E400FFF7BCFF0024DCB109B030BD04F01F036D
:1081F40043EA451302930023039301220492059357
:108204000693079308AB13E903008DE8030002AB60
:108214000FCB00F055FD0135002DE7D00134E2E726
:108224002546F9E7024A0260002202718260704723
:1082340014CD03004B1EDBB2092B04D80171024B91
:1082440043F8210082607047F0400020023100EBC7
:10825400810042607047000000F1FF3C5FFA8CFC33
:10826400BCF1090F00D9704708B5054B53F820003D
:1082740013460A4601468068FFF726FF08BD00BF83
:10828400F040002000F1FF3C5FFA8CFCBCF1090FC8
:1082940000D9704708B5054B53F8200013460A4629
:1082A40001468068FFF720FF08BD00BFF0400020B2
:1082B40038B505460C468B1C00EB83035B688BB119
:1082C400002098470E4B0F4AA3EB020C4FEADC0C3C
:1082D4004FEA0C4C2B7922460B494CF0040009F070
:1082E4003FFA38BD0648074BC01AC00800042B7972
:1082F4000A46064940F0040009F032FAF1E700BFEB
:108304009871030048710300707703009C770300A1
:10831400704770477047406820B108B503689B6890
:10832400984708BD704738B504460D464068036851
:108334005B6898476368A36065602B681B68284680
:10834400984738BDC068003818BF0120704710B581
:10835400044603681B6898472046FFF7F3FF20B1E3
:10836400E368A36063600023E360606803681B68DC
:10837400984710BD436898687047000030B583B0D3
:108384000446084611461A46069B63608902074D57
:10839400A5FB015104F10805019500930023890907
:1083A4000DF010FF2060204603B030BDD34D6210A5
:1083B40030B583B0056865B10DF0BEFB02460024FC
:1083C40000942346012128460DF028FF204603B0DF
:1083D40030BD0120FBE730B583B00546006898B195
:1083E4000A4600240094234604210DF017FF2D684B
:1083F4000DF0A2FB024600942346012128460DF00D
:108404000DFF204603B030BD0120FBE7006850B1EA
:1084140000B583B000220092134603210DF0FEFE46
:1084240003B05DF804FB704730B583B005460068BF
:1084340098B10A4600240094234609210DF0EEFE6B
:108444002D680DF07FFB0246009423460621284642
:108454000DF0E4FE204603B030BD0120FBE70068C8
:1084640050B100B583B000220092134608210DF0EC
:10847400D5FE03B05DF804FB7047704710B5036880
:108484001B681878044C01382146C0B205F0EAFE96
:10849400B4F9000010BD00BF2241002030B589B0FE
:1084A40001900C460178254B00221A705A709A707C
:1084B400DA70022018715A719A71D9711A722049AE
:1084C400204805F009FE58B9019B187801381B496A
:1084D400C0B205F063FE40B901AB029303AD0EE0F8
:1084E400194A262106F098FBEEE7174A272106F0E1
:1084F40093FBF1E702A8FFF7C1FF25F8020B08ABD5
:108504009D42F7D1002303AA02E032F9021B0B4477
:1085140008A98A42F9D10D4A82FB0312DB17C3EB87
:10852400A2031BB2C3EB0313C3EB03139B09238006
:1085340005F0F6FF002009B030BD00BF184100204F
:108544007F84020038CD0300C8770300676666663F
:1085540008B5094B1B68BFF35B8F13F0010F01D003
:10856400064808BD04480EF091FD0028F8D00248E2
:108574000EF0A0FDF4E700BF284100202C410020AC
:1085840030B583B00446002540F8045B074A0094E4
:108594002B4606CA00F0F6FD2022294604F14400C9
:1085A4000EF044FD204603B030BD00BF3CCD0300B7
:1085B40010B51048104BC01AC00800040F4940F011
:1085C400030009F0BDF8FFF7C3FF0D4C21460D4829
:1085D400FFF764FF0AF02CFBB4F9003040F21452A8
:1085E40002FB03F3084A82FB0312DB17C3EBA2135B
:1085F400038010BD987103004871030024780300C0
:1086040024410020202B0020D34D621008B5FFF731
:10861400CFFF08BD08B50278094B1A70094A5A60A1
:10862400436843B1996911609B8B9380064B1B6827
:108634000348984708BD034B00221A609A80F5E767
:108644003841002030410020504100207047000094
:1086540008B50A480A4BC01AC0080004094940F08A
:10866400030009F06DF8084802F0BEFC00B908BD2B
:10867400064A2E2106F0D0FAF9E700BF98710300EC
:1086840048710300447803005441002054780300E7
:1086940008B502F0C1FB08BD00B583B009F06AFC5F
:1086A40068B90023019301A9012009F059FD58B9C3
:1086B40001A809F023FE60B903B05DF804FB074A82
:1086C4003B2106F0A9FAECE7044A3F2106F0A4FA9C
:1086D400EEE7024A422106F09FFAEDE754780300E0
:1086E400084B4FF4FA725A804FF47A729A8000223F
:1086F400DA80197862F382011970C9B262F3C40195
:10870400197070474041002000B585B000230093E4
:10871400019302930393084B0093084A694608485F
:1087240002F021FC10B905B05DF804FB054A5C2198
:1087340006F072FAF7E700BF4041002019860200F4
:10874400544100205478030008B5044B1860FFF727
:10875400A3FFFFF7C5FFFFF7D7FF08BD5041002077
:1087640038B50446002313E01B4B53F825309B68AF
:1087740003B1984719481A4BC01AC008000422468E
:10878400184940F0030008F0E1FF24E00133DBB2B4
:10879400154A12789A421ED91D460F4A52F82320D0
:1087A400002AF3D01268A242F0D1204604F062FFFE
:1087B4000028D9D1084B53F825305B6803B198479A
:1087C4000648074BC01AC00800042246074940F077
:1087D400030008F0BBFF38BDC041002098710300BE
:1087E40048710300C4780300BC410020B078030042
:1087F40030B583B00446016042608360194B1B7836
:10880400022B23D80D46184B1B68ADF804301B0C03
:108814008DF8063003238DF80530144A01A9284643
:1088240004F06AFE68B90121284604F0BDFE0D4A31
:108834001378591C11700E4A42F82340204603B0A5
:1088440030BD0C4A242106F0E7F9ECE70A480B4B4B
:10885400C01AC00800040322094940F0010008F0CE
:1088640075FFEBE7BC41002044CD0300658702009F
:10887400C0410020D87803009871030048710300B8
:108884003879030008B500F0E7F908BD10B50446CF
:10889400054B0360054B0360054B1B6843600830C0
:1088A40000F068F8204610BD50CD030060CD0300F1
:1088B40068CD03000804034BA3FB0030C0F30F3062
:1088C400704700BF5917B7D108B50A4302210830D1
:1088D40000F098F808BD08B500220321083000F024
:1088E40091F808BD08B50A430421083000F08AF85D
:1088F40008BD08B50A220521083000F083F808BD38
:1089040010B50446FFF7F5FF4FF4704211462046B8
:10891400FFF7DAFF2046FFF7DEFF0F220021204693
:10892400FFF7E0FF10BD022905D0032905D0012976
:1089340005D108207047092070470A207047072096
:10894400704738B504461546FFF7EDFF01462A4641
:1089540004F1080000F056F838BD38B504460D4659
:108964001146FFF7A7FF024629462046FFF7E9FF15
:1089740038BD000030B58FB00446174B844693E8E9
:108984000700ACE803002CF8022B120C8CF8002032
:10899400012284F84C220DF11C0E03F10C0CBCE8EE
:1089A4000F00AEE80F009CE807008EE8070004F112
:1089B4000C05002304930EAB13E90F008DE80F00A0
:1089C40007AB0ECB284600F075FB284600F066FB8B
:1089D40020460FB030BD00BF6CCD030023B9017039
:1089E400130A437082707047012BF9D141F0800162
:1089F4000170F5E703780B7043784B7083788B70C4
:108A04007047000010B582B004460023415C01A801
:108A1400FFF7E4FF694601A8FFF7ECFF00210B20F4
:108A240000F02DF90322694604F10C0000F08EFBDE
:108A3400044601210B2000F022F90CB902B010BD4C
:108A44000548064BC01AC0080004054940F001005F
:108A540008F076FEF2E700BF987103004871030046
:108A64005C790300BFF34F8F0549CA6802F4E062E2
:108A7400044B1343CB60BFF34F8F00BFFDE700BF30
:108A840000ED00E00400FA053CDF70473DDF70476D
:108A9400002202707047000008B50A4B1B68BFF340
:108AA4005B8F13F0010F01D0074808BD05480EF095
:108AB400EDFA0028F8D00448FFF7EAFF01480EF069
:108AC400F9FAF1E7CC410020D0410020007870474A
:108AD40070B50646164C174BE41AE408240444F017
:108AE40002051549284608F02BFE4FF0FF310020FF
:108AF400FFF7CCFF60B9B1210020FFF7C5FF0246A4
:108B040068B10E4944F0010008F020FE002070BD59
:108B140002460B4944F0010008F018FEF6E7012371
:108B240033700849284608F00BFEFFF79BFF00BF8F
:108B340098710300487103007C790300C87903002D
:108B4400A8790300E879030010B5044603685A09BC
:108B540004D0012A13D14FF6FF7201E04FF0FF3227
:108B640003F01F0322FA03F313F0010F09D0236863
:108B74001F2B0CD903F01F032360064810BD0022ED
:108B8400EEE705494FF4F67007F0B4F9EFE74FF05C
:108B9400A040F3E700030050047A030000B583B05B
:108BA400019001A8FFF7D0FFD0F81005019BD84031
:108BB40000F0010003B05DF804FB00B583B0019040
:108BC40001A8FFF7C1FF0123019A9340C0F80C35B7
:108BD40003B05DF804FB00B583B0019001A8FFF772
:108BE400B3FF0123019A9340C0F8083503B05DF840
:108BF40004FB08B511B9FFF7E0FF08BDFFF7EBFF71
:108C0400FBE770B582B001900C4616461D4601A8DC
:108C1400FFF79AFF44EA460444EA85049DF81830B5
:108C240044EA03249DF81C3044EA0344019B03F501
:108C3400E07340F8234002B070BD00B583B00190EA
:108C440001A8FFF781FF019B03F5E073022240F8BE
:108C5400232003B05DF804FB08B5054B1B7803B96A
:108C640008BD04F007FC024B00221A70F8E700BFAD
:108C7400212B002008B5FFF791FFC0B208BD08B54D
:108C8400FFF7B7FF08BD000000B5064B01EB410C30
:108C940003EB8C0E43F82C00CEF804108EF8082059
:108CA4005DF804FBD441002008B500EB4000034B01
:108CB40053F820309847002008BD00BFD44100205D
:108CC40084B010B582B004AC84E80F000446FFF70A
:108CD400B4FF9DF820309DF82420019200939DF864
:108CE4001C309DF818209DF814102046FFF789FFCA
:108CF40002B0BDE8104004B0704730B583B00446FC
:108D04000D4601920A4601461846FFF7BDFF294663
:108D14002046FFF7C9FF024601A9204604F0ECFBF8
:108D24000121204604F040FC03B030BD00487047E8
:108D3400B8430020642242700022827001494160DD
:108D44000272704700C0014008B50248FFF7F2FF05
:108D540008BD00BFB843002030B58DB00546104CA7
:108D64000DF1180CA646BEE80F00ACE80F009EE813
:108D740003008CE803008DE8030006AB0FCBFFF77C
:108D84009FFF0DF10C0C04F1180393E807008CE825
:108D9400070000226146281D04F016FF0DB030BD07
:108DA400A8CD030008B5064B1B7803B108BDFFF737
:108DB400BDFFFFF7D1FF024B01221A70F6E700BF97
:108DC400B4430020F0B583B007EE903A4B7806EE3A
:108DD400903AF8EE666A9FED326A86EE867AF8EE8D
:108DE400E77A67EE877AFCEEE77ACDED017A9DF8B3
:108DF40004509DF8203007EE903AF8EEE77A67EEDB
:108E0400877AFCEEE77ACDED017A9DF804409DF86F
:108E1400243007EE903AF8EEE77A67EE877AFCEEB4
:108E2400E77ACDED017A9DF804E000210EE048F2E6
:108E3400070715E048F2070722E048F2070C103351
:108E44001844184B23F810C00131C9B2072925D89A
:108E54000B4604FA01F010F0800FE8D048F20D0739
:108E640002EB420C4FEACC0003EBCC0C0D4E26F87F
:108E74001C7005FA03F616F0800FDBD048F20D07DC
:108E840003F1080C8444074E26F81C700EFA03FC08
:108E94001CF0800FD1D048F20D0CD0E703B0F0BD28
:108EA4000000C842C443002010B582B0062B0BD882
:108EB400DFE803F0040C131A21282F000023019388
:108EC40000936423FFF77EFF02B010BD00230193DB
:108ED40064240094FFF776FFF6E7642301930023EC
:108EE4000093FFF76FFFEFE70023019364230093E0
:108EF400FFF768FFE8E76423019300240094FFF779
:108F040061FFE1E76423019300930023FFF75AFF15
:108F1400DAE7642301930093FFF754FFD4E70000DA
:108F240030B585B005460023009301930293039363
:108F34000E4B00934823ADF8043003E00121204692
:108F440004F03EFF2C1D204604F014FF0028F5D049
:108F540001231A466946204604F0B6FE4FF49650A3
:108F6400034B43F00103984705B030BDC4430020D0
:108F7400A0CD030008B501238B70FFF7D1FF08BD16
:108F840070B582B005460E46002401940094234631
:108F94002246FFF717FF019400942346012231462D
:108FA4002846FFF70FFF019400942346022231461E
:108FB4002846FFF707FF02B070BD10B50446002233
:108FC4008A70FFF7DDFF2046FFF7AAFF10BD00B54A
:108FD40083B0002301930093FFF7F4FE03B05DF820
:108FE40004FB10B504466423437049B102230022F4
:108FF4000146FFF759FF21462046FFF7BBFF10BD8E
:1090040000220146FFF7E3FFF5E710B504466423A9
:10901400437049B1032300220146FFF745FF21466F
:109024002046FFF7A7FF10BD00220146FFF7CFFF40
:10903400F5E710B504466423437049B106230022C2
:109044000146FFF731FF21462046FFF793FF10BD8D
:1090540000220146FFF7BBFFF5E7000010B5044608
:109064006423437079B101231A460146FFF71CFFBC
:1090740021462046FFF77EFF4FF4C850044B43F0CF
:109084000103984710BD01220146FFF7A0FFEFE757
:10909400A0CD030008B5FFF757FE08BD08B50023AF
:1090A4001A4600F12C011C3003F000FF00B908BD82
:1090B4000120FCE784B070B4844604A880E80E0064
:1090C4000B9B43B1012B0CD10CF11C041D4B0FCB9A
:1090D40084E80F0005E01C4B0CF11C040FCB84E862
:1090E4000F00079ECCF80C60049DCCF800509DF84E
:1090F40018308CF80830059CCCF804400998CCF85A
:109104001400089ACCF810200A99CCF818108CF89E
:109114003960CCF834508CF838408CF82D008CF839
:109124002E108CF82C208CF82F30FF238CF8313043
:1091340006238CF8303001238CF84032002070BCB8
:1091440004B07047E4CD0300D4CD030070B584B0FF
:109154000546144600F59F7630460DF035FFE4B21F
:1091640005F13C030096019402930394002269469E
:1091740005F1200005F048FC08B904B070BD0120D9
:10918400FBE7000010B582B08646684680E806001A
:1091940003C88EE80500CEF808300EF1180C0E4C0A
:1091A4000FCCACE80F000FCCACE80F0094E8030040
:1091B4008CE80300049BCEF814309DF8053003338B
:1091C4000EF10C020EEBC30393E8030082E80300E4
:1091D400704602B010BD00BFF4CD030008B50021F5
:1091E4002F20FFF74CFD08BD08B501212F20FFF704
:1091F40046FD08BD70470C207047000008B541F2D9
:109204008733994234DC41F2883303FB01F05B1A63
:1092140090FBF3F007EE900AF8EEE77A17EE900A67
:109224000DF072FE18A3D3E900230DF053FD41ECB9
:10923400100B0DF0EBF951EC100B0DF02DFE0F4B54
:1092440003FB00F00E4A82FB0031C317C3EBA113EA
:1092540003F698530B4890FBF3F0A0F58520A0F299
:10926400FE2082FB0032C017C0EBA21000B208BD82
:109274006FF48870FBE700BFAFF30080A68C040096
:10928400D34D621090F0D73D000000000088B34039
:1092940070B50546FFF75CF9074E31460748FFF7FE
:1092A400FDF80AF095FD0446B6F900104180284601
:1092B400FFF7A4FFA08070BD54440020242B00209D
:1092C40008B5FFF7E5FF08BD0020704708B540F278
:1092D400DC520321FFF741FB08BD08B5002202213F
:1092E400FFF73BFB08BD08B50A460121FFF735FB34
:1092F40008BD08B50C2904D94FF4C861FFF7F3FF82
:1093040008BD01EB810101EB8101890001F5C87100
:1093140089B2FFF7E8FFF3E708B564220021FFF7FD
:109324001CFB08BD10B50446FFF7D0FF2046FFF72D
:10933400D4FF4FF4C8712046FFF7D5FF2046FFF74E
:10934400EBFF10BD08B5FFF7DBFA08BD30B583B0FD
:109354000446FFF79BFA20252A46002104F51670DF
:109364000DF064FE2A46002104F51E700DF05EFE29
:109374000025A4F89852A4F89A520C4A00942B465B
:1093840006CA04F52770FFF7FDFE094A00942B4630
:1093940006CA04F53770FFF7F5FE2046FFF7D2FF43
:1093A4002046FFF7BFFF204603B030BD2CCE03009C
:1093B40024CE0300BFF34F8F0549CA6802F4E0626C
:1093C400044B1343CB60BFF34F8F00BFFDE700BFD7
:1093D40000ED00E00400FA054FF08053D3F830317B
:1093E400082B01D000207047012070474FF08053B4
:1093F400D3F83031082B01D000207047012070478A
:109404004FF08053D3F83021D3F83431082A01D0F7
:1094140000207047002B04D8DFE803F0010001208E
:109424007047002070474FF08053D3F83021D3F8B1
:109434003431082A01D000207047002B04D8DFE81B
:1094440003F0010001207047002070474FF0805363
:10945400D3F83021D3F83431082A01D000207047E2
:10946400002B04D8DFE803F001000120704700203E
:1094740070474FF08053D3F83021D3F83431082AA1
:1094840001D000207047002B04D8DFE803F001006E
:1094940001207047002070474FF08053D3F83031DB
:1094A400082B01D000207047012070474FF08053F3
:1094B400D3F83021D3F83431082A01D00020704782
:1094C400032B01D8002070470120704708B5FFF72F
:1094D400EDFF38B14FF01023D3F808224FF080434A
:1094E400C3F8582508BD0000024BD3F80034002B04
:1094F400FAD0704700E0014008B5034BC3F80405F7
:10950400FFF7F2FF08BD00BF00E00140014B024A33
:109514001A607047282B00200090D00338B5FFF75D
:109524005BFF40B14FF080430022C3F80C21C3F825
:109534001021C3F83825FFF759FF002846D04FF013
:109544008052D2F80414554BC3F82015D2F80814ED
:10955400C3F82415D2F80C14C3F82815D2F8101443
:10956400C3F82C15D2F81414C3F83015D2F8181413
:10957400C3F83415D2F81C14C3F84015D2F82014DB
:10958400C3F84415D2F82414C3F84815D2F82814A3
:10959400C3F84C15D2F82C14C3F85015D2F8301473
:1095A400C3F85415D2F83414C3F86015D2F838143B
:1095B400C3F86415D2F83C14C3F86815D2F8401403
:1095C400C3F86C15D2F84424C3F87025FFF718FFCC
:1095D40018B1334B334AC3F88C26FFF724FF18B174
:1095E400314BFB22C3F81825FFF730FF70B14FF061
:1095F4008041D1F8E43E23F00F034FF08052D2F8BB
:10960400582202F00F021343C1F8E43EFFF731FF82
:1096140020B1264B4FF40072C3F84026FFF73CFFFD
:1096240060B14FF08043D3F8003413F0010F05D03C
:109634004FF080436FF00102C3F800241C4AD2F8B3
:10964400883043F47003C2F88830BFF34F8FBFF300
:109654006F8FFFF73BFF4FF01023D3F80032002B3E
:1096640008DB4FF01023D3F80432002B02DBFFF7A2
:109674004DFF38BD0120FFF73FFF4FF010241225A6
:10968400C4F80052FFF730FFC4F80452FFF72CFF70
:109694000020FFF731FFFFF78DFE00BF00C0004040
:1096A400005000404881030000F000400090024058
:1096B40000ED00E048B300B5864642B34FF0000C1D
:1096C40006E01EF80C00604480B201301FFA80FCF2
:1096D4000CF10100884207DA10886045F1D80EEBDE
:1096E4000C0040789842ECD18C4512D20CF1020364
:1096F4009BB21EF80C0078B1013880B250B103EB74
:10970400000C61450ADB138004E000207047002050
:1097140000E000205DF804FB0020FBE70020F9E7EF
:1097240070B582B00023ADF80630DAB104461646AF
:1097340009230DF10602FFF7BDFF0546BDF806300B
:109744001C448BB198B130460DF027FCA84201D0DF
:1097540000200AE02A46214630460DF0FBFB40B1CA
:10976400002002E0002000E0002002B070BD0020D4
:10977400FBE70120F9E7000000230BB1002070474C
:1097840003EB8302054931F82220824201D00133E0
:10979400F3E703EB830301EB830070477C44002071
:1097A40030B5B0F804C002EB0C04944594BFACEBA4
:1097B4000C0CACEB020CC2889D189A4294BF921A0E
:1097C400D21A4B88B0F800E073450ED34088834228
:1097D4000DD88B8863450CD3A3420CD8CB88934215
:1097E4000BD3AB420BD8012000E0002030BD002099
:1097F400FCE70020FAE70020F8E70020F6E7002065
:10980400F4E7000008B5024B9B6903B1984708BD13
:109814006044002010B58088FFF7AEFF38B10446DD
:10982400406805F0E7FA18B94FF6FF73238010BDBE
:10983400FFF7E8FFF8E7000000B583B002460B46E7
:10984400497A69B9197A41B90D494968586805F0E6
:1098540079FA88B1FFF7D6FF0EE009498968F5E780
:1098640000211972064B5B6933B101218DF8041094
:10987400ADF8060001A8984703B05DF804FB00BFEB
:109884006044002070B5C37B8688012B1DD104463B
:109894004FF6FF70FFF770FF0546B8B1068000234E
:1098A40003720F4B03CBC5F80A00C5F80E104FF630
:1098B400FF7340F2F31204F1100105F10A00FFF7FF
:1098C4006FFF6872074BDB8923B170BD0420FFF77B
:1098D40099FFFAE729463046FFF7AEFFF5E700BFE8
:1098E400584400206044002070B504468688304601
:1098F400FFF742FF70B105464FF6FF7340F2F312D3
:1099040004F108010A30FFF74BFF6872294630461C
:10991400FFF792FF70BD0000C288124BDB899A42A8
:1099240000D0704770B50446038A022B00D070BD86
:1099340085882846FFF720FF06460028F7D004F163
:10994400120000F0C9F920B131462846FFF774FF30
:10995400EDE7706805F04EFA0028E8D0FFF752FFF3
:10996400E5E700BF6044002008B50388122B0FD040
:1099740006D8102B09D0112B09D1FFF74BFF06E0B5
:10998400502B04D1FFF7C8FF01E0FFF77BFF08BDB0
:10999400FFF7AAFFFBE7000008B50146014806F0FF
:1099A40065FB08BD90440020F0B583B00190B9B1C7
:1099B40016460F46019D85B9284603B0F0BD013413
:1099C400132CF9D8214601A806F050FB0028F6D044
:1099D4003146A0B2B8470135F1E700242546EFE748
:1099E4000025E9E7132801D90020704738B504465B
:1099F400054D0146284606F012FB2146281F06F0B5
:109A04000EFB012038BD00BF9844002038B5054640
:109A1400002407E0054800EB84002946043006F0E2
:109A240018FB01341D2CF5D938BD00BF904400202B
:109A340008B50146014806F00CFB08BD9844002017
:109A440008B512B106F0EBFA08BD06F002FBFBE71D
:109A540030B583B00546019100230360019B93B99F
:109A6400284603B030BD0134132CF9D8214601A88F
:109A740006F0FCFA0028F6D02B685A1C2A6005EB85
:109A840043039C80EFE70024EEE7000010B598B094
:109A9400134A9368DB431793516817A806F04EFBEB
:109AA40017996846FFF7D4FF0DF1300C6C460FCCC4
:109AB400ACE80F000FCCACE80F0094E807008CE88A
:109AC4000700002407E018AB03EB440333F82C0C25
:109AD400FFF79CFF01340C9BA342F4D818B010BDCF
:109AE4009044002070B5044685880388103B0A2BF7
:109AF4001ED8DFE803F0061A1D1D1D1D1D1D1D3B8C
:109B04001E00FFF7C3FF2846FFF76CFF38B1E37B65
:109B1400022B0DD129461B4806F081FA08E01A4AA7
:109B2400F021042005F078F802E02846FFF780FFD2
:109B340070BD027A1609154C3F2A94BF00220122F7
:109B440029462046FFF77CFF022E94BF0022012203
:109B54002946201FFFF774FF012E94BF0022012223
:109B64002946A4F10800FFF76BFFE1E7037A002B15
:109B7400DED1427AC2F3C00229460448FFF760FFEF
:109B8400D6E700BF9C440020547A0300A844002078
:109B9400132801D90020704708B50146014806F092
:109BA40065FA08BD9444002010B50446FFF7F0FFA1
:109BB40008B9002010BD2146034806F057FA08B939
:109BC4000120F7E70220F5E79C44002010B5044685
:109BD400FFF7DEFF08B9002010BD2146034806F058
:109BE40045FA08B90120F7E70220F5E79844002078
:109BF40010B50446FFF7CCFF00B910BD214602485A
:109C040006F034FAF9E700BFA044002010B504467A
:109C1400FFF7BEFF00B910BD2146024806F026FA40
:109C2400F9E700BFA444002010B50446FFF7B0FFD5
:109C340000B910BD2146024806F018FAF9E700BF42
:109C4400A844002038B505460C460846FFF7A4FE94
:109C540008B9002038BD2846FFF79AFF0028F8D03D
:109C64000634044800EB84002946043006F0FEF96B
:109C7400F0E700BF9044002070B506460C46154638
:109C84000846FFF789FE00B970BD3046FFF780FF34
:109C94000028F9D00634044800EB84002A463146F3
:109CA4000430FFF7CDFEEFE79044002070B5044682
:109CB4000E461546FFF770FE08B9002070BDA01DC2
:109CC400044B03EB800358682A463146FFF76CFEC9
:109CD400F4E700BF90440020007800F001007047D2
:109CE400A0DF7047A1DF7047ADDF7047B3DF704777
:109CF400B4DF70478379012B01D0002070470379CA
:109D0400012B01D000207047428842F602139A4288
:109D140001D0002070470120704738B504464088C0
:109D240000F050FEA080002505B138BD204601F0AA
:109D34001DFF0135F8E700B587B0002301930293B6
:109D440003930493059308238DF80430ADF80600BB
:109D5400039101A8FFF7E1FF07B05DF804FB0000E1
:109D640070B586B000230193029303930493059383
:109D7400ADF806004FF6FF7398422ED0044600F06B
:109D8400CFFC054611283FD015D8D0B10B2826D1D9
:109D940010238DF804301D481D4BC01AC008000460
:109DA40022461C4940F0020007F0D0FC01A8FFF74E
:109DB400B4FF00220CE043F2020398420FD10022C8
:109DC40006E00F238DF8043001A8FFF7A6FF002258
:109DD400114B19782046FFF74FFF06B070BD0B4EAC
:109DE4000B4BF61AF6083604284607F0D1F802465B
:109DF40023460A4946F0010007F0B2FC29462046F2
:109E0400FFF799FF0022E3E70122E1E7F071030085
:109E140048710300F07A030011450020707B0300B1
:109E240008B5FFF79DFF08BD10B5044600F0DAFC45
:109E340000B910BD0122034B19782046FFF71CFF1F
:109E4400F7E700BF1045002010B582B0044600F0CB
:109E5400B9FD00236A46092101F0CAF9052801D099
:109E640002B010BD0122034B19782046FFF704FF0E
:109E7400F6E700BF0E45002008B500220649074B4F
:109E84001878FFF713FF00B108BD00220449054B01
:109E94001878FFF70BFFF7E7C5A002001245002072
:109EA400DD9E02000E45002008B500220249034B46
:109EB4001878FFF7FBFE08BDDDA102001045002065
:109EC40008B500220249034B1878FFF7EFFE08BDDE
:109ED400259E02001145002010B582B004460023DF
:109EE400019342F6A623ADF8043001238DF8063021
:109EF400084B1B6800936A4601A9FFF7F1FE08B1FD
:109F040002B010BD0122044B19782046FFF7B4FEBD
:109F1400F6E700BF3CCE03000D45002010B5044613
:109F240038B12368012B09D1BFF35F8F002323606D
:109F340010BD0549922005F0DDFFF2E702499320A8
:109F440005F0D8FFF0E700BFC47B0300F0B585B08F
:109F540006460F460DF10E00FFF7C8FE10B90124A6
:109F640000250DE01A494FF4997005F0C3FFF6E798
:109F7400BDF8002042F602139A421DD00134A4B267
:109F8400BDF80E30A3421FD90223ADF804300022DD
:109F9400ADF80620CDF808D069462046FFF7A8FEA4
:109FA400034690B9002DE3D1BDF8002042F6052305
:109FB4009A42E3D10125E1E7029701AA21463046FE
:109FC400FFF792FE034600E00523184605B0F0BDF6
:109FD4001C7C030010B5044648B10121204606F05C
:109FE40082F8BFF35F8FB0FA80F0400910BD0249D8
:109FF400852005F07FFFF0E7C47B030070B586B0D1
:10A00400054600F0EDFA112847D0044619D8002877
:10A0140046D00B2847D0254E254BF61AF6083604B1
:10A02400204606F0B5FF02462B46224946F00100C1
:10A0340007F096FB21462846FFF77DFE00242246C2
:10A0440023E0862806D043F202039842E3D1002499
:10A0540022461AE000260196029603960496059677
:10A0640007238DF80430ADF806501048104BC01A81
:10A07400C00800042A46104940F0020007F066FBBD
:10A0840001A8FFF74AFE344632460C4909782846AF
:10A09400FFF7F2FD204606B070BD00240122F4E76C
:10A0A40001240022F1E700242246EEE7F0710300C8
:10A0B40048710300F87C0300C07C030012450020B3
:10A0C40010B504460648FFF785FF00B910BD2046C9
:10A0D400FFF794FF0028F9D10148FFF71FFFF5E7C8
:10A0E4001445002070B586B0044600F08FFB054689
:10A0F40011280CD8112848D8DFE800F01747474743
:10A10400474733472847474747474747475D43F251
:10A114000203984252D043F20143984235D120467B
:10A12400FFF71EFE0025012222E000230193029383
:10A1340003930493059311238DF80430ADF806407E
:10A1440001A8FFF7EAFD01252A4611E001A92046EE
:10A15400FFF7FCFE28B9BDF8043013B10025012235
:10A1640006E0204600F02EFC00F082FB00252A4683
:10A17400144B19782046FFF77FFD2A46124B1978B5
:10A184002046FFF779FD06B070BD104E104BF61A4D
:10A19400F6083604284606F0FBFE024623460D491F
:10A1A40046F0010007F0DCFA29462046FFF7C3FD1C
:10A1B40000250122DCE700250122D9E70025012240
:10A1C400D6E700BF104500200F450020F0710300C2
:10A1D40048710300387D030010B50446044B197818
:10A1E400FFF730FD00B110BD2046FFF77BFFFAE713
:10A1F4000F450020037803B1704710B5044640882A
:10A20400FFF7AEFD6088FFF70FFE6088FFF71CFEC6
:10A21400FFF732FE10BD000010B582B00378092BA1
:10A2240003D0FFF729FE02B010BD0446437A002B89
:10A23400F7D1037A072B1DD0082B2CD0012BF0D19A
:10A244006A460121808801F09DFA0028E9D1019B2A
:10A254001B78002BE5D0A08800F0E8FB4FF6FF73D5
:10A264009842DED00122104B1978FFF705FDFFF765
:10A274001BFED6E7808800F0D9FB04464FF6FF7337
:10A284009842CED00122094B1978FFF7F5FC2046FD
:10A29400FFF7DAFDC5E7064B1B68012BC1D1044863
:10A2A400FFF73CFEBDE700BF10450020124500202B
:10A2B4001445002030B583B004460D4600220092B8
:10A2C40001920123ADF8003009238DF80230104BC0
:10A2D4001978FFF7D1FC5DB10E4B0193204600F0D5
:10A2E40071FB0022694600F0F5FF18B903B030BDD8
:10A2F400094BF2E7094C0A4AA41AE408240406F0BC
:10A3040047FE0246074944F0020007F01FFAEDE752
:10A314000E45002038CE030034CE0300F071030054
:10A3240048710300787D030030B587B00446858802
:10A334000388353B1F2B14D8DFE803F0499413132B
:10A3440013131313131313131313131313131313D9
:10A35400131313131313133B131013192846FFF786
:10A36400FFFCFFF7ADFDFFF79FFD07B030BD0024F4
:10A374000194029403940494059412238DF80430F8
:10A38400ADF80650284600F01DFBADF8080000F0BB
:10A394006FFA22464D4B19782846FFF76DFC22468A
:10A3A4004B4B19782846FFF767FC01A8FFF7B5FC6B
:10A3B400D7E70630FFF79EFC0028D2D00122454B98
:10A3C40019782846FFF758FCFFF756FDC9E7424BBA
:10A3D40019782846FFF736FC0028C2D000223E4BED
:10A3E40019782846FFF748FCE288B2F5857F10D03B
:10A3F400A2B96289012A1CD1A289012A24D0374832
:10A40400374BC01AC0080004364940F0020007F078
:10A414009DF900212846FFF74DFFA2E72F48304B56
:10A42400C01AC0080004304940F0020007F08EF959
:10A43400EFE72A482A4BC01AC00800042B4940F011
:10A44400020007F083F9D7E70022E1892846FFF7E5
:10A4540049FC0028DDD10122254B19782846FFF755
:10A464000BFC7EE7224B19782846FFF7EBFB00280C
:10A474003FF477AF00221E4B19782846FFF7FCFB08
:10A48400E28852B9E289012A13D1217C003918BF2C
:10A4940001212846FFF70EFF63E71048104BC01A4E
:10A4A400C0080004104940F0020007F04FF90021F1
:10A4B400EFE70A480A4BC01AC0080004094940F0F3
:10A4C400020007F043F90021E3E700BF0F45002035
:10A4D40010450020124500200D450020F0710300B6
:10A4E40048710300507E0300D87D0300147E0300EE
:10A4F4000C450020AFDF7047B1DF7047B2DF704713
:10A50400B3DF704738B50446808800F08FFA608066
:10A51400002505B138BD204601F02CFB0135F8E7D4
:10A5240030B589B0224B93E8030008AB03E903007C
:10A534000BE007238DF8043001A8FFF7E3FF35E0B3
:10A544001C4C208800F045FF20801A4B18884FF6D9
:10A55400FF7398422AD0002206A900F0BBFE0446ED
:10A564000028EDD0002301930293039304930593F1
:10A57400104B1B88ADF80830112817D08628D8D086
:10A584000D4D0E4BED1AED082D0406F001FD0246AB
:10A59400084B1B880A4945F0010007F0E1F808233D
:10A5A4008DF80430039401A8FFF7ACFF09B030BD67
:10A5B40048CE03001A450020F871030048710300D7
:10A5C400A07E030008B5054B1A884FF6FF739A4224
:10A5D40000D108BDFFF7A4FFFBE700BF1A45002028
:10A5E4002DE9F04784B0824600F0ECF94FF6FF7392
:10A5F400984200F087800746012449E002AA082116
:10A60400384601F0BFF888B9B8F8042003998B885C
:10A614009A420DD1063128460CF09CFC40B9082121
:10A62400384601F025F9D8B90B2607E0052807D1EB
:10A634003A460821384601F073F90646002525E01C
:10A64400334C344AA41AE408240406F0A1FC02465C
:10A654005346314944F0010007F082F8032653E0E1
:10A664002B4D2C4AAD1AED082D0406F091FC03463F
:10A674003A462A4945F0010007F072F80326DDE75F
:10A6840001250821384601F0F3F818BB002D3BD012
:10A6940022460134A4B26B460821384601F078F80A
:10A6A400814638BBDDF804800323454645F8063B64
:10A6B40008F1040229465046FFF720FF0646002809
:10A6C4009CD00C28DCD0052801D00025D9E74E46C3
:10A6D4000025D6E70E4E0F4AB61AF608360406F0E1
:10A6E40057FC03463A460D4946F0010007F038F896
:10A6F4000326CBE7072802D100250C26C6E7064629
:10A704000025C3E743F20206304604B0BDE8F087F3
:10A71400F871030048710300F87E0300307F0300E2
:10A724002DE9F04182B0054600F04CF94FF6FF7375
:10A73400984205D10324002637464FF0010825E04E
:10A744006A46082101F01EF820B9019B9F1D9E88CE
:10A754001C68F2E7032400263746EEE726B14FF0E3
:10A764000008032446460FE01B481C4BC01AC008CF
:10A7740000042A461A4940F0010006F0E7FF4FF0B2
:10A784000008032000E011200B281CD12346324688
:10A7940039462846FFF7B0FE0428F4D008280CD028
:10A7A4000B28F1D114F0020F09D1002FD6D04FF0AD
:10A7B4000008032446464746E6E70020E4E74FF056
:10A7C40000080124E0E7B8F1000F02D002B0BDE8B0
:10A7D400F0810B20FAE700BFF87103004871030011
:10A7E400B07F030000B585B00DF10F03029300F0B4
:10A7F400E9F801AA012100F0C5FF20B9029B1878ED
:10A8040005B05DF804FB0020FAE7000010B504462B
:10A814001348FFF775FE90B1124C134AA41AE408CA
:10A82400240406F0B5FB0246104944F0010006F08A
:10A834008DFF032010BD43F203039842FAD14FF673
:10A84400FF72074B19882046FFF754FE43F20303B7
:10A854009842F0D1024A138801331380EBE700BF1A
:10A8640018450020F8710300487103002880030094
:10A8740000B583B084466B46064A92E8030083E839
:10A88400030000221946604600F024FD03B05DF881
:10A8940004FB00BF50CE030046DF704738B50546C1
:10A8A400002405E0044B53F824302846984701342B
:10A8B400012CF7D938BD00BF58CE030000230F2B5D
:10A8C40003D8C25C1AB90133F9E7002070470120AC
:10A8D400704778B181B108B503780A785340012BE9
:10A8E4000CD80622013101300CF034FBB0FA80F0B0
:10A8F400400908BD00207047002070470020F8E799
:10A904002DE9F04104460D4600F1110701F111084B
:10A914001022013101300CF01DFB50B90646601CB9
:10A92400FFF7CCFF30B1681CFFF7C8FF10B1012658
:10A9340000E0002606F0010641463846FFF7C9FF4D
:10A94400637C03F0FE03042B0CD0062B11D06B7C2C
:10A9540003F0FE03042B0ED0062B01D0012302E0EA
:10A96400002300E0002300B13BB946B153B10020FD
:10A9740006E00023F7E70023F5E7012000E00020CC
:10A98400BDE8F0810120FBE770B584B006460D46B2
:10A9940000F06AFC01AA0DF10E01072000F06CFC26
:10A9A40050B1BDF80E40AC42F4D002993046FFF7E6
:10A9B400A7FF0028EED001E04FF6FF74204604B054
:10A9C40070BD000013280DD810B50446FFF7E0F859
:10A9D40028B104EB8404054B33F8140010BD4FF682
:10A9E400FF70FBE74FF6FF70704700BF1C45002067
:10A9F400132816D838B504460D46FFF7C9F868B1D0
:10AA040004EB8404084B03EB4403D3F802202A60CC
:10AA1400DA881B7AAA80AB71002038BD43F20200A9
:10AA2400FBE743F2020070471C45002038B5054699
:10AA34004FF6FF73984216D0002401E00134A4B20B
:10AA4400132C0CD804EB8403084A32F81330AB42BD
:10AA5400F4D12046FFF79CF80028EFD001E04FF630
:10AA6400FF74204638BD0446FBE700BF1C450020A8
:10AA7400038843B9072B04D8C21892782AB9013342
:10AA8400F8E700207047012070470120704738B56F
:10AA940004460D46FFF7ECFF68B122882B889A42E2
:10AAA40008D10822A91CA01C0CF054FAB0FA80F0BA
:10AAB400400900E0002038BD30B585B0054600F0FF
:10AAC400D3FB01AA0DF10E01072000F0D5FB88B1DC
:10AAD400029C04F146012846FFF7D9FF30B904F17E
:10AAE4002A012846FFF7D3FF0028EAD0BDF80E005C
:10AAF40005B030BD4FF6FF70FAE70000132804D804
:10AB040000EB8000014B23F8101070471C45002017
:10AB140038B50546FFF78AFF0446284600F0B2FE22
:10AB240040B9132C06D804EB8404034B4FF6FF7290
:10AB340023F8142038BD00BF1C45002010B58CB08C
:10AB4400144600230AE0C3F10F0C10F80CE003F1E3
:10AB540030020DEB020C0CF830EC01330F2BF2D960
:10AB640000230493059306938DF81C3007E0C3F18A
:10AB74000F02C85C30326A4402F8200C0133022B05
:10AB8400F5D96846FFF788FE002307E0C3F10F02FA
:10AB940030326A4412F8102CE2540133022BF5D9F6
:10ABA4000CB010BD0346027802F0FE02042A01D064
:10ABB4000020704700B585B00846B3F80110DA7874
:10ABC400ADF80C108DF80E209A889B79ADF804200E
:10ABD4008DF8063002AA01A9FFF7B0FF032202A9EB
:10ABE40003A80CF0B7F9B0FA80F0400905B05DF89D
:10ABF40004FB00000388102B72D100B593B00DF153
:10AC04001C0E00F1040CBCE80F00AEE80F00BCE819
:10AC14000F00AEE80F009CE807008EE807009DF8DF
:10AC2400203003F0FE03062B1BD14FF6FF71BDF855
:10AC34001C202C4B02EB820023F8101003EB400382
:10AC44000898C3F80200BDF824C09DF82600A3F8B4
:10AC540006C018724FF6FF73994236D113B05DF8EF
:10AC640004FB00F001FB9DF820305A08032B15D992
:10AC7400022A10D102AA0DF10601072000F0FCFA05
:10AC840000B30399013108A8FFF78CFF0028F1D025
:10AC9400BDF80610CBE74FF6FF71C8E702AA0DF125
:10ACA4000601072000F0E8FA48B10399113108A819
:10ACB400FFF70FFE0028F1D0BDF80610B7E74FF6F6
:10ACC400FF71B4E74FF6FF71B1E7ADF80A20ADF8B4
:10ACD4000C1000238DF8083002A8FFF7DFFDBDE754
:10ACE400704700BF1C4500208ADF70478BDF704728
:10ACF4008CDF704790F82E3043F0040380F82E3038
:10AD0400A0230386502343860022828690F82E30A7
:10AD140062F3C40380F82E30012380F82F3070478B
:10AD24004FF4C8734385062383841823C384002304
:10AD34000385704700B587B0002301930293039302
:10AD44000493059306238DF804300B1D02930B889E
:10AD5400ADF80C3000F12E030593C36B0BB101A8C1
:10AD6400984707B05DF804FB30B587B00023019322
:10AD740002930393049305930B79012B01D007B03D
:10AD840030BD05460C460C480C4BC01AC0080004E4
:10AD94000B4940F0040006F0D3FCEB6B002BEED023
:10ADA40004228DF804202E35059522798DF808208B
:10ADB40001A89847E3E700BFA871030048710300A6
:10ADC400A88003002DE9F04105460E4691F8207055
:10ADD400B0F81C80002401E00134E4B2BC4209D282
:10ADE40006EB44124146A869FEF79AFC0346002884
:10ADF400F2D000E000231846BDE8F08190F82E3030
:10AE040003F01803082B03D0182B03D0002070473D
:10AE1400012070470120704708B5FFF767FF08BDA0
:10AE24002DE9F04186B090F82C8090F8233013B9C6
:10AE340006B0BDE8F08104468D1C00F12E0600F139
:10AE44002407FFF7E9FF002301930293039304937C
:10AE5400059343463A4631462846FFF749FF0646DE
:10AE64000D4D0E4BED1AED082D0445F004050C496B
:10AE7400284606F065FC05238DF804300296324618
:10AE84000849284606F062FC002ED1D0E36B002B63
:10AE9400CED001A89847CBE7A871030048710300FE
:10AEA400C0800300CC80030070B586B004460D4614
:10AEB40000230193029303930493059300F12E035B
:10AEC4000593FFF79BFFC8B994F8226094F82130EA
:10AED4002BBB002211460295002E3AD0914230D06D
:10AEE40003238DF80430E36B0BB101A8984704F1F8
:10AEF40060010020FFF7F8FE06B070BD02238DF854
:10AF040004300295E36B01A8984704F16001002026
:10AF1400FFF7EAFE29462046FFF782FFECE72146C9
:10AF24002846FFF74FFF034640B19DF80C2042F03E
:10AF340001028DF80C2001221146CCE700220121E8
:10AF4400C9E700238DF8043029462046FFF768FF3F
:10AF5400C9E7002BC4D000238DF8043029462046CD
:10AF6400FFF75EFFBFE700283CD038B50D46044626
:10AF7400C263232200210CF059F84DB32B7984F8D5
:10AF840023302B7B84F82C302B68CBB1186859689C
:10AF94009A68C4F82E00C4F83210C4F836209B898D
:10AFA4006387AA6882B104F124031068516803C35B
:10AFB40004F1400323661F23A4F86430002038BD45
:10AFC4002046FFF797FEECE72046FFF7A9FEEFE7E0
:10AFD4002046FFF78FFE2046FFF7A2FE002384F8E9
:10AFE4002330E5E70E20704710B586B0002837D02F
:10AFF4000446002301930293039304930593FFF7FC
:10B004000BFF2046FFF7FAFE30B1E36B23B10122B8
:10B014008DF8042001A8984704F1600104F12E0082
:10B02400FFF762FE0446082800D068B90D480E4BAD
:10B03400C01AC00800040D4940F0040006F080FB6B
:10B044000024204606B010BD0648074BC01AC008AD
:10B0540000042246064940F0010006F077FBF0E7C1
:10B064000E24EEE7A8710300487103000881030071
:10B07400E480030008B50346084603F108021946B4
:10B0840031F8043B1B2B0AD01D2B04D0102B05D107
:10B09400FFF750FE02E01146FFF706FF08BDFFF779
:10B0A40063FEFBE7A0F5804080B2704700F5804066
:10B0B40080B27047A0F5804080B2704701380828FC
:10B0C40006D8DFE800F007050507070707070700AC
:10B0D400002070470120704738B505464FF6FF73CE
:10B0E4004380002404B138BD284600F017FB013426
:10B0F400F8E700B587B00023019302930393049308
:10B10400059308238DF80430ADF80800039101A8D5
:10B11400FFF7E2FF07B05DF804FB000030B587B02D
:10B124000023234A1370019302934FF6FF7000F03B
:10B13400B3FC044606E0204600F056FC204600F02E
:10B14400ABFC04464FF6FF739C420AD02046FFF73F
:10B15400A9FF01AA03A904F0E1FD48F2096398429A
:10B16400E9D04FF6FF739C4201D107B030BD2046B1
:10B17400FFF798FF04F090FD054648F207639842F4
:10B1840012D00028F1D00B480B4BC01AC0080004A1
:10B1940023462A46094940F0010006F0E1FA29460F
:10B1A4002046FFF7A6FFE0E7014B01221A70DCE717
:10B1B400EC4500201872030048710300208103004D
:10B1C40070B582B00E461546002300930193FFF735
:10B1D40069FF04463046FFF76DFF01466B462A4679
:10B1E400204604F07FFD08B902B070BD0520FBE7DE
:10B1F400F0B587B0FF282DD805460C4617461E46E5
:10B204000846FFF75BFF38B303AA21462846FFF739
:10B21400D7FF28BB01A903A804F0D2FC054608BB4C
:10B22400BC70019B5B883B8076B19C003368A34271
:10B2340028BF23461E461A46029978680BF0C4FEBE
:10B24400B44203D90C2508E0029B7B6003A804F0F8
:10B25400E3FC02E0072500E00725284607B0F0BD1F
:10B264000525FAE70525F8E7024B00221A605A6023
:10B27400704700BFE4450020F0B587B007460E468E
:10B284001446FFF71BFF18B90125284607B0F0BD87
:10B2940005463846FFF70EFF0D4A03A904F030FDBA
:10B2A40008B10025F1E701A903A804F089FC08B15D
:10B2B4000025EAE7A770019B5A882280029A6260FF
:10B2C4009888FFF7F3FE308003A804F0A5FCDCE7C0
:10B2D400E4450020F0B587B0FF2856D806460C4652
:10B2E40017468D782846FFF7E9FE00284FD03046F0
:10B2F400FFF7D8FEADF80C002846FFF7DBFEADF8EB
:10B304000E0063680493238805936A46A178304647
:10B31400FFF756FF05281AD003A9684604F0B2FCCB
:10B324000446E4B148F20D639C4220D848F202631B
:10B334009C421CD3A4F50643023B0B2B17D8DFE831
:10B3440003F0141616162A0C16161616160C03A954
:10B35400684604F091FC0446E3E7112418E0BFB109
:10B364003946684604F0E8FC12E0102410E00B486B
:10B374000B4BC01AC008000433462246094940F06A
:10B38400010006F0EDF9032402E0072400E007249D
:10B39400204607B0F0BD8624FAE700BF1872030008
:10B3A400487103006C81030008B54FF6FF7000F08C
:10B3B40001FB08BDFF2806D808B500F003FBFFF722
:10B3C400ADFE002008BD0720704708B500F01AFB49
:10B3D40008BD08B500F048FB08BD08B500F05CFBEB
:10B3E40008BD4FF6FF7303808370FF234372837A93
:10B3F40023F002038372DBB223F001038372002380
:10B4040003724360704700000B68032B14D810B418
:10B4140003EB4302094C34F82220824204D0013366
:10B42400032BF5D9002004E00B6003EB430304EB8A
:10B4340083005DF8044B704700207047F0450020FE
:10B4440030B583B005460C460023019301A9FFF7EC
:10B45400DBFF06E0019B0133019301A92846FFF7B6
:10B46400D3FF48B18378A342F4D1837A13F0030F56
:10B47400F0D14368002BEDD103B030BD0023032B82
:10B484000DDC03EB4301074A02EB8102526882425E
:10B4940001D00133F3E7034800EB8100704700203B
:10B4A400704700BFF045002008B5FF214FF6FF703C
:10B4B400FFF7C6FF08BD58B170B50D4614460646E1
:10B4C400FFF7F2FF306010B1058033689C7070BDE7
:10B4D4007047000038B50546002405E0044B53F8D6
:10B4E4002430284698470134032CF7D938BD00BFCF
:10B4F40060CE030003EB83031B019BB281704260A7
:10B504009B080380704708B59BB2FFF7F3FF08BDA3
:10B514008378013B072B13D8DFE803F007121212DC
:10B52400120A040D1423038070470123038070471B
:10B5340001230380704743689B8809339B08038079
:10B544007047000038B50546002406E0697A2144B6
:10B55400C9B2054800F093FC01342B7AA342F5D814
:10B564002846FFF73EFF38BD2046002030B583B0A3
:10B57400044600230093019383788DF80230417AC6
:10B584002D4800F068FC20B30246237AA17868466F
:10B59400FFF7B9FF6846FFF7BBFF224632F8040BFA
:10B5A4006946FFF797FE112838D01FD860B30728E3
:10B5B40032D0224D224BED1AED082D0405F0E8FCA3
:10B5C400024623881F4945F0010006F0C9F803200C
:10B5D40022E01A481A4BC01AC0080004627A1A49B9
:10B5E40040F0010006F0B2F8032015E08628E0D10F
:10B5F400A37A23F00203A372DBB243F00103A37224
:10B60400124B01221A7007E0A37A23F00203A372FB
:10B61400DBB223F00103A37203B030BDA37A43F07D
:10B624000203A372DBB223F00103A372074B0122CE
:10B634001A700020F0E700BF2046002010720300BB
:10B644004871030018820300D8810300ED450020EF
:10B6540030B587B00446FFF789FF10B9012007B061
:10B6640030BD4FF6FF72ADF806202288ADF80820F1
:10B67400862807D107238DF8043001A8FFF72AFF95
:10B684000020ECE708228DF804200390074D084AB7
:10B69400AD1AED082D0405F07BFC0246238805490C
:10B6A40045F0010006F05CF8E7E700BF1072030004
:10B6B400487103004882030038B5164B1B783BB32E
:10B6C40005460024134B1C700DE0124B01221A7026
:10B6D40001B93DB104EB44000F4B03EB8000FFF7CD
:10B6E400B7FFA8B10134032C12D804EB44020A4B6F
:10B6F40003EB82039B7AC3F3400113F0020FE4D1FE
:10B70400054B03EB82039B7A13F0010FEAD0DCE7CD
:10B7140038BD00BFED450020F045002038B5044693
:10B72400C068FFF7ABFE23780A2B0AD0142B15D080
:10B73400092B1BD1637ADBB9E0B1FFF703FF0025C6
:10B744000DE0637AC3B9C8B100254560837A43F03C
:10B75400020383720A4B01221A7003E0012520467A
:10B76400FFF7B8FE2846FFF7A7FF38BD0025F6E728
:10B774000025F4E70025F2E70025F0E70025EEE7D1
:10B78400ED45002008B50023FFF732FD08BD000099
:10B79400002B59D0F0B583B006460C4615461F461B
:10B7A400CB1FDBB2012B51D8531E032B51D8FFF70B
:10B7B40047FE0190D0B1037AAB424CD1019E737A1B
:10B7C400FF2B1DD00026019B1D72597A244800F0DE
:10B7D40042FB024618B3ABB221463846FFF78AFE55
:10B7E400002E3AD0082C28D0002030E022463146E2
:10B7F40001A8FFF760FE019B002BDFD1112026E09A
:10B804002946174800F050FB70720198437AFF2BC9
:10B8140001D00126D7E7FFF7E4FD112017E0114816
:10B82400114BC01AC0080004019B5A7A0F4940F01A
:10B83400010005F08BFF032009E03B887A689B0038
:10B84400063B9380002002E00E207047072003B0DF
:10B85400F0BD0720FBE70F20F9E70020F7E700BF62
:10B86400204600201072030048710300A8820300E0
:10B8740008B5FFF7E5FD18B1FFF764FE002008BD29
:10B884000520FCE770B584B005460023039303A9A3
:10B89400FFF7BAFD044607E0039B0133039303A9B2
:10B8A4002846FFF7B1FD0446D4B1A1782846FFF736
:10B8B400DFFF0028F0D00528EED0154E154AB61A41
:10B8C400F608360405F064FB0246A37800932B4681
:10B8D400114946F0010005F04EFF032004B070BD8D
:10B8E4002846FFF767FD0028F8D00728F6D0084C53
:10B8F400084BE41AE408240405F04AFB03462A46EC
:10B90400064944F0010005F02BFF0320E6E700BFE1
:10B9140010720300487103001C8303007483030046
:10B92400CB1FDBB2012B11D870B506460C46154669
:10B934001046FFF74AFD58B121463046FFF780FD17
:10B9440040B105808470FFF711FE70BD0720704779
:10B954000720FAE70520F8E710B5044608464FF635
:10B96400FF739C4204D0FF2C0CD94FF6FF7010BD1E
:10B974004FF4807104F083FB80B2B0F5807FF6D180
:10B984002046F4E7214604F056FB80F0010010F055
:10B99400FF0F01D02046EAE74FF6FF70E7E708B54E
:10B9A4000346FF2800D908BD0846194604F051FB98
:10B9B400F9E7000008B50249FFF7CEFF08BD00BF54
:10B9C400304600204FF6FF73984209D010B5044664
:10B9D4000449FFF7C1FF844214BF0020012010BDB9
:10B9E400002070475046002038B50446044D2946CF
:10B9F400FFF7D5FF05F120012046FFF7D0FF38BD42
:10BA040030460020FF2801D90020704708B50146C0
:10BA1400014804F02BFB08BD30460020FF2801D963
:10BA24000020704708B50146014804F01FFB08BD1B
:10BA34005046002038B50D464FF6FF73984202D0A9
:10BA4400441CA4B203E0002401E00134A4B2FF2C9E
:10BA540006D82146284604F009FB0028F5D001E069
:10BA64004FF6FF74204638BD10B50A49FFF7E2FFD0
:10BA7400044604E007492046FFF7DCFF04464FF67E
:10BA8400FF739C4204D02046FFF7C8FF0028F1D181
:10BA9400204610BD3046002008B50249FFF7CAFF12
:10BAA40008BD00BF5046002038B50546002405E017
:10BAB400054B53F82430284698470134034B1B7830
:10BAC400A342F5DC38BD00BF744600207046002058
:10BAD40010B586B084880388102B06D0144B1978CF
:10BAE4002046FEF7AFF806B010BD00238DF80330F2
:10BAF4000193029303930493059301238DF8043077
:10BB04004FF6FF73ADF80830ADF8064008300390E7
:10BB14000DF10303049301A8FFF7C6FF9DF803206A
:10BB2400034B19782046FEF7A7F89DF80300DAE7DF
:10BB34002C2B0020094B1B7803B9704710B5044621
:10BB4400FFF7C6FF00B110BD2046FFF753F82046AB
:10BB540001F032F82046FEF7E7FBF4E78E460020BA
:10BB640018B108B5FFF7A0FF08BD704708B5FFF787
:10BB74009BFF08BD08B5FFF797FF08BD08B5FFF7A1
:10BB840093FF08BD2DE9F04F87B00193364B1B7826
:10BB9400002B63D083468A4691464FF6FF70FFF729
:10BBA40018FC044600230593042204920293039391
:10BBB40005AB039304AB02AA0621FFF719FB072880
:10BBC40050D04FF6FF77B8464FF0FF35002611E00E
:10BBD400059BB34201D3A0461E46AB4201D2274681
:10BBE4001D462046FFF7F5FB044604AB02AA0621D6
:10BBF400FFF7FEFA0028EBD00528F2D04FF6FF73CA
:10BC04009C421BD1984517D09F4213D00020BBF112
:10BC1400000F01D0ABF80080BAF1000F01D0CAF8D0
:10BC24000060B9F1000F01D0A9F80070019BB3B115
:10BC34001D6014E00520EAE70520E8E70B4D0C4BF6
:10BC4400ED1AED082D0405F0A3F90246234609492F
:10BC540045F0010005F084FD032000E0082007B052
:10BC6400BDE8F08F0520FAE78E460020E871030056
:10BC740048710300DC83030008B500231A460C490D
:10BC84000C48FFF77FFF052804D068B1052809D0C8
:10BC940000220AE0074B4FF6FF721A80044B002281
:10BCA4001A60F2E7012200E00122034B1A7008BD7A
:10BCB40084460020804600208D46002030B587B0A1
:10BCC40004468088FEF7B2FE60802378093B032B8C
:10BCD40000F28280DFE803F00232457D637AE3B943
:10BCE4004D4B1B6813B1E26893420ED04B4B1B784B
:10BCF400002B71D0A2884A4B1B889A426CD1237ABC
:10BD0400062B69D1FFF7B8FF66E00023424A1360AF
:10BD1400A188434A1180E3605EE0012B5CD13F4B74
:10BD24001B78002B58D0A2883D4B1B889A4253D1D4
:10BD3400237A062B50D1FFF79FFF4DE0637A002B47
:10BD44004AD1354B1B68002B46D0E268934243D15D
:10BD54000022314B1A6033490B68013B0B60E260EF
:10BD64003AE0314B1D7855B901252C4B1B7823B192
:10BD7400A2882B4B1B889A4228D085B32CE04FF61F
:10BD8400FF70FFF726FB4FF6FF739842EDD118467C
:10BD9400FFF723FB4FF6FF739842E6D10025224BB1
:10BDA4001D70019502950395049505950D238DF855
:10BDB40004304FF6FF73ADF80830ADF80630204676
:10BDC400FFF772FE01A8FFF76FFECEE7FFF754FFFF
:10BDD400D3E7154B1B7823B92046FFF765FE07B060
:10BDE40030BD0023104A137001930293039304930C
:10BDF40005930E238DF804304FF6FF73ADF8083029
:10BE0400ADF80630A36803932046FFF74DFE01A862
:10BE1400FFF74AFEE3E700BF884600208D46002076
:10BE240080460020844600208C46002008B504F09B
:10BE340002F980F00100C0B2BFF35F8F08BD08B5FE
:10BE4400BFF35F8F04F012F908BD08B5BFF35F8F2D
:10BE540004F0FFF808BD38B5054668B10C46006823
:10BE640050B1686840B1FF2907D0FFF7E8FF20B15F
:10BE74002868EB6803FB040038BD0020FCE790B1A0
:10BE840038B50C46054603681BB1406808B1FF2964
:10BE940000D138BDFFF7D3FF0028FAD021466868E7
:10BEA400FFF7D3FFF5E77047F8B550B30F460646E2
:10BEB400036843B3436843B30025FF2405E02B1B09
:10BEC4000133BB421BD00135EDB2B3689D4215D29C
:10BED40029467068FFF7AAFF18B1FF2CEFD12C4652
:10BEE400EDE7FF2CEFD005E021463046FFF7C7FF12
:10BEF4000134E4B2A542F7D8FF24E4E7FF24204646
:10BF0400F8BDFF24FBE7FF24F9E7FF24F7E77EDF12
:10BF140070477FDF704786DF704708B5FFF7F7FF8C
:10BF2400042800D008BD1120FCE719B108B5FFF7BB
:10BF3400F4FF08BD0020704738B504464088FEF77A
:10BF440041FDA080002505B138BD204600F004FE67
:10BF54000135F8E700B587B00023019302930393FA
:10BF64000493059305238DF80430ADF8060001A869
:10BF7400FFF7E2FF07B05DF804FB00B587B00023CC
:10BF84000193029303930493059308238DF80430DB
:10BF9400ADF80600039101A8FFF7CEFF07B05DF8E6
:10BFA40004FB000000B587B094460022019202927F
:10BFB4000392049205924FF0040E8DF804E0ADF85C
:10BFC40006008DF80C10ADF80EC08DF81030054B3E
:10BFD4001978FDF751FE01A8FFF7AEFF07B05DF831
:10BFE40004FB00BF302B002000B587B00023019371
:10BFF400029303930493059302238DF80430ADF860
:10C0040006008DF80C1001A8FFF796FF07B05DF845
:10C0140004FB000070B505460C4616460A460E4B56
:10C024001978FDF729FE04B970BD321E18BF01222C
:10C034000A4B19782846FDF71FFE012E14BF002273
:10C044000122074B19782846FDF716FE314628468B
:10C05400FFF7CAFFE8E700BF302B00202F2B00209A
:10C064002E2B002000B587B0002301930293039385
:10C074000493059306238DF80430ADF8060003916C
:10C0840001A8FFF759FF07B05DF804FB10B504469B
:10C094000088FDF789FD012805D0214631F8040BFD
:10C0A400FFF7E0FF10BD02462088237913F0010F4B
:10C0B40000D102220121FFF7ADFFEEE700B587B002
:10C0C40000230193029303930493059307238DF8AC
:10C0D4000430ADF8060001A8FFF72EFF07B05DF8A5
:10C0E40004FB00B587B003238DF804300388ADF852
:10C0F4000630437913F0040F0AD001238DF80C3075
:10C104008DF80D1001A8FFF717FF07B05DF804FBC9
:10C114000223F3E7F0B583B043B304460E46174653
:10C124001D4600F580706B460122072180B2FFF79F
:10C134002FFB112818D030BB5022002101980AF09F
:10C1440075FF019B1E70019901F134032B60EF60B0
:10C1540001F118032B614B1C6B611B4BEB6111311B
:10C164002046FEF745FCF0B903B0F0BD1748184B64
:10C17400C01AC0080004174A174940F0010005F02E
:10C18400E5FA0320F0E7114D114BED1AED082D04EB
:10C1940004F0FEFE02462346104945F0010005F076
:10C1A400DFFA0320E0E7094D094BED1AED082D04F1
:10C1B40004F0EEFE02462346094945F0020005F06C
:10C1C400CFFA0820D0E700BF904600202872030071
:10C1D4004871030070CE0300588503008C8503006A
:10C1E400F08503002DE9F84304460D461646184B26
:10C1F4001978FDF727FD90B1012704F58070072118
:10C2040080B2FFF735FB804608B1052809D13346D3
:10C214002A4639462046FFF7C5FEBDE8F8830227C3
:10C22400EBE70C4B0C4AA3EB02094FEAD9094FEA9E
:10C23400094904F0ADFE02462346084949F00100CD
:10C2440005F08EFA41462046FFF797FEDFE700BF70
:10C254002E2B00202872030048710300408603003F
:10C2640070B506460C4615460C4B1978FDF7EAFCEA
:10C2740000B970BD0A4B19783046FDF7E3FC28B1CC
:10C284002A4621463046FFF7ADFFF2E72B46224609
:10C2940000213046FFF786FEEBE700BF302B00207D
:10C2A4002F2B002008B503793D2B06D04FF488517D
:10C2B40000220088FFF7D4FF08BD41F23D01F7E7F3
:10C2C40008B5427902F0030201790088FFF7C8FF3C
:10C2D40008BD0000F0B585B0044600F10C063046F8
:10C2E400FEF7EAFB4FF6FF73984227D00546014656
:10C2F4002088FEF703FC002201212088FFF78AFE34
:10C304004FF6FF739D421ED1002700231A4639467B
:10C314002088FFF700FE0646082833D000283CD1C9
:10C32400A37D13F0010F4BD0002F49D1002341F21C
:10C33400060219462088FFF735FE41E02088FEF703
:10C3440041FB0546D7E702AA07212846FFF71AFA58
:10C35400A0B9039FA37D13F0010F11D097F84430C7
:10C3640013F0010F01D03437CFE7314607F146000F
:10C37400FEF78DFB0028F6D10027C6E70027C4E7A7
:10C384000027C2E70F48104BC01AC00800040F4929
:10C3940040F0020005F0D4F912E00A4F0A4BFF1AEC
:10C3A400FF083F0404F0F4FD024600952388084981
:10C3B40047F0010005F0DFF931462088FFF7DDFD85
:10C3C40005B0F0BD2872030048710300AC86030079
:10C3D4001C8703002DE9F04385B00446078800223A
:10C3E4005D4B19783846FDF747FC637913F0040F69
:10C3F4003FD007F58076B6B202AB01220721304662
:10C40400FFF7C6F9804600283AD13846FEF7DAFA33
:10C4140005464FF6FF73984249D04FF000082A466C
:10C4240007213046FFF77CFA8146002800F0868019
:10C43400862800F08880494E494BF61AF6083604DF
:10C4440004F0A6FD024600953B46464946F001002D
:10C4540005F091F949463846FFF78FFD0021204643
:10C46400FFF73FFEB8F1000F07D02846FEF750FB58
:10C4740003E000212046FFF734FE05B0BDE8F08359
:10C48400364D374BED1AED082D0404F081FD0246BC
:10C494003B46354945F0010005F062F9414638460E
:10C4A400FFF76BFD00212046FFF71BFEE5E7194669
:10C4B4000398FEF769FA05464FF6FF7398421CD0BD
:10C4C40001463846FEF71AFB284B19783846FDF723
:10C4D400B9FB804610B14FF00008A0E73846FFF7DB
:10C4E40039FD224B19783846FDF7ACFB002896D16C
:10C4F40000212046FFF7F5FDBFE7FEF755FF05468F
:10C504004FF6FF73984206D001463846FEF7F6FA16
:10C514004FF0010883E71148114BC01AC00800040A
:10C52400134940F0010005F00BF904213846FFF7E8
:10C5340024FD00212046FFF7D4FD9EE7012120467B
:10C54400FFF7CFFD99E73846FFF7B8FD01212046F4
:10C55400FFF7C7FD91E700BF302B002028720300CE
:10C56400487103001C8803008C8703002D2B0020D6
:10C57400E887030008B5037913B9FFF72BFF08BD5B
:10C58400FFF79EFEFBE7000010B586B00446144B8F
:10C5940019780088FDF756FB08B106B010BD208855
:10C5A400FDF726FB38B9012341F206020021208859
:10C5B400FFF7F8FCF1E700220A4B19782088FDF711
:10C5C4005BFB03238DF804302388ADF80630002389
:10C5D4008DF80C308DF80D3001A8FFF7ADFCDCE7C9
:10C5E4002F2B0020302B00202DE9F04188B0074686
:10C5F4000D461646FDF7D8FA044620220021684667
:10C604000AF014FD012C16D0002C4FD0002D3FD081
:10C614003846FEF7D7F94FF6FF73984227D0012C1E
:10C6240010D04FF000082B7813F0010F25D103969A
:10C63400204B07932EE000221F4B19783846FDF754
:10C644001BFBE1E71C4B19783846FDF7FBFA10B1E8
:10C654004FF00008E7E73846FFF77CFC164B1978E3
:10C664003846FDF7EFFA28B14FF00008DBE74FF04A
:10C674000008D8E74FF08508D5E7B8F1850F09D051
:10C684006B46324621463846FFF744FD58B901E06F
:10C694004FF08508012C00D000256B462A46414600
:10C6A4003846FFF736FC08B0BDE8F08143F20200DB
:10C6B400F9E700BF904600202D2B002038B5044632
:10C6C4000D46FDF771FA012802D043F2020038BD8D
:10C6D40029462046FFF729FCF9E708B50388113BF2
:10C6E400092B09D8DFE803F00508090D0808080834
:10C6F40011150430FFF7D6FD08BD0430FFF7C6FC62
:10C70400FAE70430FFF7E6FDF6E70430FFF732FFFF
:10C71400F2E70430FFF738FFEEE700000022026082
:10C7240042608260014A126802607047D846002065
:10C7340010B504461046002323606360A360E360E1
:10C74400236121706280FEF73DF9A080204610BD70
:10C7540000B583B06A460721FFF714F838B9019B86
:10C7640093F8443013F0010F02D0012000E00020C0
:10C7740003B05DF804FB38B50546002404B138BDA8
:10C784002846FFF7EDF90134F8E708B5FFF7F3FFA2
:10C7940008BD30B587B00D4614460246062101A8EF
:10C7A400FFF7C6FF0395049401A8FFF7E4FF07B061
:10C7B40030BD10B586B002460C46082101A8FFF72B
:10C7C400B7FF039401A8FFF7D6FF06B010BD000021
:10C7D40010B50446134611290DD000226BB10A4B43
:10C7E40019782046FDF748FA0022084B19782046AC
:10C7F400FDF742FA10BD0122F0E7044B19782046F8
:10C80400FDF73AFAF6E700BF312B0020342B002065
:10C8140070B586B00546112934D8DFE801F02D3310
:10C824003333333333332D33333333093333332D0A
:10C8340016461F481F4BC01AC00800042A461E494A
:10C8440040F0020004F082FF2A4604210DEB0100AF
:10C85400FFF76EFF96B1337813F0010F10D1022366
:10C864008DF80C3000238DF8103041F20113ADF82F
:10C874000E3001A8FFF77FFF06B070BD0223EFE77B
:10C884000123EDE70C460A4E0A4BF61AF608360465
:10C89400084604F07DFB02462B46084946F0010099
:10C8A40004F05EFF21462846FFF783FFE4E700BF5C
:10C8B4002072030048710300888803004089030044
:10C8C40030B585B004460D4601A8FFF727FF01AA3D
:10C8D40029462046FFF75DFF094B1A680199204657
:10C8E400FFF782FE0546012201462046FFF770FF4E
:10C8F400019A29462046FFF78BFF05B030BD00BFE3
:10C90400D046002008B50021FFF7DAFF08BD00007B
:10C914002DE9F04385B0044616461F46884689B97A
:10C9240001A8FFF7FBFE01AA00212046FFF731FF13
:10C93400DDF80490284B1B7833B99DF80D301BB9F2
:10C94400052625E04FF00009324649462046FFF708
:10C95400B5FE0546002201462046FFF739FF112D9A
:10C964001AD80123AB4042F60112134229D113F421
:10C97400003F15D04246194B19782046FDF77CF943
:10C984003246174B19782046FDF776F90026E7B9A9
:10C99400304605B0BDE8F08343F202039D4212D055
:10C9A400104E114BF61AF6083604284604F0F0FA35
:10C9B400024623460D4946F0010004F0D1FE032649
:10C9C400E5E72E46E3E72E46E1E74A4629462046B8
:10C9D400FFF71EFFDCE700BFD4460020322B002007
:10C9E400332B00202072030048710300AC8903003C
:10C9F40038B50446084B1978FDF724F90546074B6A
:10CA040019782046FDF71EF9014601232A462046DF
:10CA1400FFF77EFF38BD00BF332B0020322B0020F0
:10CA2400002943D0F8B505460C46FDF7CFF8064675
:10CA340000283DD02846FDF7C5FF0746022E14BF47
:10CA440000260126237866F3000323704FF6FF7354
:10CA5400C31A18BF0123227863F3C3022270284645
:10CA6400FDF7C6F8237860F3410323702846FDF7E9
:10CA7400CDF8237860F3820323702846FDF7D4F8B9
:10CA840030B10122237862F3041323700020F8BD2F
:10CA94002846FDF7ADF808B90022F3E73846FFF75A
:10CAA40057FE08B90022EDE70122EBE70E2070479C
:10CAB40043F20200EBE710B582B00C4600238DF878
:10CAC4000430E0238DF8043001A9FFF7A9FF9DF895
