:020000022000DC
:10700000000004201972020001720200E5F902007A
:1070100005720200077202000972020000000000FF
:10702000000000000000000000000000E13C030040
:107030000D72020000000000013D03001172020009
:107040000DCD0200137202002DD40200FDE40200F7
:1070500011E502001372020051D30200D5DB0200D9
:10706000E5E70200FDE7020015E8020013720200E6
:1070700013720200137202001372020013720200F4
:1070800013720200453F03001372020013720200E4
:107090001372020013720200151C03001372020027
:1070A00013720200137202002DE8020045E802008C
:1070B000C1DA0200137202000000000000000000AC
:1070C00013720200137202001372020025E502001F
:1070D0001372020013720200137202001372020094
:1070E000137202001372020013720200000000000B
:1070F0000000000013720200000000001372020082
:10710000000000000000000000000000000000007F
:10711000000000000000000000000000000000006F
:10712000000000000000000000000000000000005F
:10713000000000000000000000000000000000004F
:10714000000000000000000000000000000000003F
:10715000000000000000000000000000000000002F
:10716000000000000000000000000000000000001F
:10717000000000000000000000000000000000000F
:1071800000000000000000000000000000000000FF
:1071900000000000000000000000000000000000EF
:1071A00000000000000000000000000000000000DF
:1071B00000000000000000000000000000000000CF
:1071C00000000000000000000000000000000000BF
:1071D00000000000000000000000000000000000AF
:1071E000000000000000000000000000000000009F
:1071F000000000000000000000000000000000008F
:10720000FEE7FEE7FEE7FEE7FEE7FEE7FEE7FEE756
:10721000FEE7FEE700F002B8FFF7FCBF0F484FF0B3
:107220000701884385460E4880470E48016841F4AF
:1072300070010160BFF34F8FBFF36F8F00F01AB87A
:1072400009480A490A4A884207D0521A05D00378E9
:1072500001300B700131013AF9D170470000042070
:107260005991020088ED00E008610300082B00201E
:107270001C2B002039493A480A1A02D007229143B0
:107280008D46384938480A1A06D00722914381F3BF
:107290000988022282F3148834483549354A00F0BF
:1072A0003EF835483549364A00F039F83548364910
:1072B000364A00F034F836483649374A00F02FF89D
:1072C00036483749374A00F02AF837483749384AAC
:1072D00000F025F837483849384A00F020F8384897
:1072E0003849002200F033F837483849002200F0CE
:1072F0002EF837483749091A0EF016FD364A9047DE
:1073000024482549884205D00268043003B49047D8
:1073100003BCF7E700200021304A9047FEE788428F
:1073200014D0521A12D003460B43134303242342B2
:1073300006D1036804300B600431043AF9D1704778
:10734000037801300B700131013AF9D1704788425E
:1073500002D002700130FAE77047000000000420FC
:1073600000F803200000042000000420CCBA030031
:107370001C2B0020542B0020E0730200E07302005D
:10738000925F0300CCBA03001C2B00201C2B0020B2
:107390001C6103001C610300286103001C610300E1
:1073A0001C6103001C6103002861030028610300C5
:1073B000CCBA030004BB0300542B0020542B002044
:1073C000542B0020DC7E0020DC7E0020DC7E0020B0
:1073D000DC7E0020DC820020417202004F5403005A
:1073E00010B5044600F0AEFB22460D21012000F04E
:1073F000AFFD10BD10B5044600F0A4FB22460821E5
:10740000012000F0A5FD10BD10B5044600F09AFB68
:1074100022460F21012000F09BFD10BD10B504464F
:1074200000F090FB22460E21012000F091FD10BDDE
:1074300008B500F087FB00221021012000F09EFD1E
:1074400008BD08B500F07EFB00221121012000F0EC
:1074500095FD08BD38B504460346194A43F8142B78
:10746000436000238360C360164B0361164B0360C7
:10747000164D45618061164BC361164B4361056231
:107480004062154B8362154B0362C5620063144B67
:107490004363144BC3620BF04BFEA063E5632464AB
:1074A000114B6364114BE363A564E464104B2365E3
:1074B000104BA3640BF03CFE6065204638BD00BF56
:1074C000A0B203002861030004B203008CB20300E1
:1074D0002C61030024B203003C61030010B20300DE
:1074E0005C61030038B203004461030060B2030032
:1074F0004C6103004CB20300034600F1140207483C
:10750000026003F12002426003F12C02826003F169
:107510003C02C26048330361704700BF542B002017
:10752000F0B587B0064600F00DFB6C46454D0FCD1B
:107530000FC495E8030084E80300434C434BE41A6E
:10754000E408240444F003044149204609F050FFB4
:107550004049204609F04CFF9DF800203E49204656
:1075600009F04CFF9DF801203C49204609F046FFF8
:107570009DF802203A49204609F040FF9DF803702B
:107580009DF804303A463749204609F041FF9DF8FE
:1075900006309DF805203449204609F039FF33496B
:1075A000204609F025FFBDF808203149204609F0A2
:1075B00025FFBDF80A202F49204609F01FFFBDF81E
:1075C0000C202D49204609F019FF049A2B4920462A
:1075D00009F014FF2A49204609F00AFF059DEAB286
:1075E0002849204609F00AFFC5F30722264920460C
:1075F00009F004FFC5F307422449204609F0FEFEC6
:107600001FB1012F09D007B0F0BD0CF0D1FA3246FE
:107610000921022000F09CFCF5E70CF0C9FA324683
:107620000B21022000F094FC0AF064FE3246062191
:10763000032000F08DFC32460C21012000F088FC74
:10764000E1E700BF74550020606003001060030094
:107650006461030088610300A0610300B861030056
:10766000C8610300F4610300186203003C62030078
:1076700050620300686203007C62030090620300B2
:10768000B4620300C8620300E0620300FC6203000E
:1076900010B5044600F056FA2046FFF741FF224697
:1076A0000921012000F054FC10BD000010B50AF0C3
:1076B00021FE0446074A032100F044FC064A082143
:1076C000204600F03FFC054A0721204600F03AFC26
:1076D00010BD00BFE173020091760200F573020055
:1076E00010B50CF065FA0446044A052100F02AFCA6
:1076F000034A0D21204600F025FC10BD097402004C
:107700001D74020008B5FFF7D1FFFFF7E9FF00F095
:107710000FFF1A4B1B68BFF35B8F13F0010F0ED0E6
:10772000174B1B68BFF35B8F13F0010F16D001F0EE
:107730008FF901F051F9014601F095FA08BD0F48A3
:107740000EF004FC0028EBD000230E4A13210E4853
:1077500000F0A4FE09480EF011FCE1E708480EF025
:10776000F5FB0028E3D00023084A0D21084800F06B
:1077700095FE03480EF002FCD9E700BF782B0020ED
:10778000682B0020317402007C2B0020437402001F
:107790006C2B002008B50BF0ABF90022032104206C
:1077A00000F0D6FB0548064BC01AC0080004054986
:1077B00040F0030009F01CFE08BD00BF606003003C
:1077C000106003001863030070B50C46466830462D
:1077D000FFF792FE0546A1B203390E290DD8DFE866
:1077E00001F0160C0C0C0C1B0C0C0C0D0C200C08D6
:1077F0002500C168304600F012FC70BD01F0ECF8C5
:1078000001F057FAE968304600F009FCF5E7C16875
:10781000304600F004FCF0E7C168304600F0FFFBA2
:10782000EBE7C168304600F0FAFBE6E700F08AFFBC
:1078300000F0A2FF0028E0D100F084FF00F09EFFDE
:10784000DBE708B50AF056FD00220621032000F010
:107850007FFB0CF0ADF900220721022000F078FB3D
:1078600008BD704708B51048104BC01AC008000486
:107870000F4940F0030009F0BBFD0AF03BFD002278
:107880000221032000F064FB0CF092F90022022197
:10789000084600F05DFB0BF02BF9002202210420CA
:1078A00000F056FB08BD00BF6060030010600300DD
:1078B0003463030038B50C4645682846FFF71CFEC4
:1078C000A1B20D290BD011290DD100F03BFF00F022
:1078D00053FF40B900F036FF00F050FF03E0C168ED
:1078E000284600F09CFB38BD08B50AF003FD0022D5
:1078F0000421032000F02CFB01F06EF801F0BDF92B
:1079000008BD0000F8B504460F4646683046FFF74C
:10791000F3FD0546164B174A9B1ADB081B043A4633
:10792000154943F0030009F069FDB9B209290BD0EC
:10793000112911D0082906D1E0680BF02BFD296927
:10794000304600F06CFBF8BDE0680BF00BFD696899
:10795000304600F064FBF6E700F0F4FE00F00CFFA8
:107960000028F0D100F0EEFE00F008FFEBE700BFCA
:1079700060600300106003006463030008B50CF04E
:1079800017F900220321022000F0E2FA08BD08B531
:107990000CF00EF900220721022000F0D9FA08BDF0
:1079A00008B50AF0A7FC00220421032000F0D0FA59
:1079B0000CF0FEF800220C21022000F0C9FA01F0C0
:1079C0000BF801F068F908BDF8B505460C464768A4
:1079D0003846FFF791FD0646A1B20839092914D8A7
:1079E000DFE801F00514131313131C1313210AF01D
:1079F00081FC00220621032000F0AAFAE8680BF0BF
:107A0000C9FCF168384600F00AFBF8BDE8680BF0E5
:107A1000A9FC7168384600F002FBF6E7C1683846F9
:107A200000F0FDFAF1E700F08DFE00F0A5FE002861
:107A3000EBD100F087FE00F0A1FEE6E7704770474B
:107A400038B50C4645682846FFF756FDA1B2102907
:107A50000BD011290DD100F075FE00F08DFE40B95C
:107A600000F070FE00F08AFE03E08168284600F016
:107A7000D6FA38BD38B50C46154600F063F82A46EC
:107A8000214600F6EC1000F0C2FA38BD10B50446ED
:107A900000F044FA014B2360204610BD74B203008D
:107AA00038B5134B1A6801321A60124C124BE41AA3
:107AB000E408240444F003041049204609F09EFC25
:107AC0000BF036FB05460BF0A1FBB5F904200C4981
:107AD000204609F093FC0AF035FE05460AF04EFFF9
:107AE000B5F900200749204609F088FC38BD00BFE1
:107AF000882B002060600300106003008C6303008B
:107B0000A0630300C463030010B582B0044600F014
:107B10001EF904F51960FFF7B9FF04F6EC10FFF742
:107B200099FC064B0093012341F28832044904F684
:107B3000442000F09BFA204602B010BDA17A02005A
:107B4000E463030008B50A4B1B68BFF35B8F13F0B7
:107B5000010F01D0074808BD05480EF0F7F90028CD
:107B6000F8D00448FFF7D0FF01480EF007FAF1E71C
:107B70008C2B0020902B002010B582B0044600F022
:107B8000A7F9184A0421204600F0F6F82246012100
:107B900004F5196000F0CAF90AF0AAFF0AF0C2FF62
:107BA0000CF006F80CF01EF80AF0A4FB0AF0BCFB7F
:107BB00004F6EC1000F047FA04F6442000F070FAE6
:107BC00009480A4BC01AC0080004094B019300225F
:107BD00000920123074940F0030009F031FC02B094
:107BE00010BD00BFF4630300606003001060030079
:107BF000346403000864030008B500F027F908BDE9
:107C0000032823D8012A06D001290BD002290FD03E
:107C1000A9B107207047012901D00022F4E700F143
:107C20000E02D2B200EB4000094B1A5400207047FC
:107C300000EB4000064B03445A700020704700EBF5
:107C40004000034B03449A700020704707207047A0
:107C50000836002008B5012200210846FFF7D0FFB2
:107C600010B10346072812D1072202210120FFF795
:107C7000C7FF034608B1072809D1042202210020CA
:107C8000FFF7BEFF034610B1072800D100231846B6
:107C900008BD08B5012202210020FFF7B1FF10B195
:107CA0000346072812D1072202210120FFF7A8FF6F
:107CB000034608B1072809D10A2200210846FFF728
:107CC0009FFF034610B1072800D10023184608BDC6
:107CD00008B50388102B0ED0112B13D10F4A13684F
:107CE000013B136073B9FFF7D4FF58B10C4B1B680D
:107CF00043B1984706E0094B1B6823B1074A136854
:107D00000133136008BDFFF7A5FF0028F6D0044B30
:107D10001B68002BF2D09847F0E700BF1436002014
:107D20001836002010B584B004464FF0FF3201A988
:107D3000D4F8F4080CF09CFB0128F6D10198002837
:107D4000F3D003681B68039A02999847EDE738B5AA
:107D500004460025C0F8F058C0F8F45850222946CF
:107D600000F6F8000EF058F84822294604F64810AC
:107D70000EF052F8204638BD10B584B004460B46CC
:107D8000114600F1F00200F6F80002900192009313
:107D900023464FF4007209480CF0E0FDC4F8F008E7
:107DA0000023009304F6481322460C2114200CF003
:107DB0000BFAC4F8F40804B010BD00BF257D020022
:107DC00000B585B001910292039300231A4601A9E0
:107DD000D0F8F4080CF038FA05B05DF804FB0000A8
:107DE00000B585B0019102920393002300936A4687
:107DF00001A9D0F8F4080CF0DFFA009B43B1064B60
:107E00004FF080525A6040BFBFF34F8FBFF36F8F68
:107E100005B05DF804FB00BF00ED00E0034B03601C
:107E2000034B0B6080231360704700BF6C40002041
:107E30006C3E0020034B0360034B0B604FF4007358
:107E4000136070471C3E00201C36002008B50CF063
:107E5000C7FDFEE710B50E4C0E4BE41AE4082404EF
:107E60000D4944F0020009F0C3FA4FF4004100202C
:107E700009F0A2F808F09CFF44F0030407492046EB
:107E800009F0B6FA0649204609F0B2FA10BD00BF63
:107E90006060030010600300446403006464030036
:107EA0008464030008B503E009F038F9034B187047
:107EB000024B1B78002BF7D108BD00BF1C2B002004
:107EC00008B5FFF7EFFF08BD08B504F015FD08BDC4
:107ED00030B589B0FFF7F8FFFFF7BCFF0024DCB135
:107EE00009B030BD04F01F0343EA45130293002399
:107EF00003930122049205930693079308AB13E9B9
:107F000003008DE8030002AB0FCB00F02FFD01351D
:107F1000002DE7D00134E2E72546F9E7024A026086
:107F2000002202718260704780B203004B1EDBB2F8
:107F3000092B04D80171024B43F82100826070477D
:107F4000BC400020023100EB81004260704700001D
:107F500000F1FF3C5FFA8CFCBCF1090F00D97047BF
:107F600008B5054B53F8200013460A4601468068C1
:107F7000FFF726FF08BD00BFBC40002000F1FF3C1A
:107F80005FFA8CFCBCF1090F00D9704708B5054BAE
:107F900053F8200013460A4601468068FFF720FF89
:107FA00008BD00BFBC40002038B505460C468B1C00
:107FB00000EB83035B688BB1002098470E4B0F4AA0
:107FC000A3EB020C4FEADC0C4FEA0C4C2B79224657
:107FD0000B494CF0040009F01BFA38BD0648074B6A
:107FE000C01AC00800042B790A46064940F0040074
:107FF00009F00EFAF1E700BF6060030010600300B3
:1080000098640300C4640300704770477047406879
:1080100020B108B503689B68984708BD704738B51C
:1080200004460D46406803685B6898476368A36030
:1080300065602B681B682846984738BDC0680038C3
:1080400018BF0120704710B5044603681B689847A5
:108050002046FFF7F3FF20B1E368A36063600023CD
:10806000E360606803681B68984710BD30B583B053
:108070000446084611461A46069B63608902074D6E
:10808000A5FB015104F1080501950093002389091E
:108090000DF03AF82060204603B030BDD34D621099
:1080A00030B583B0056865B10CF0E8FC02460024E9
:1080B00000942346012128460DF052F8204603B0D3
:1080C00030BD0120FBE7006850B100B583B000224D
:1080D0000092134603210DF043F803B05DF804FB52
:1080E000704730B583B0056865B10CF0CDFC024631
:1080F000002400942346062128460DF031F820463E
:1081000003B030BD0120FBE7006850B100B583B07B
:1081100000220092134608210DF022F803B05DF80A
:1081200004FB70477047000010B503681B6818789F
:10813000044C01382146C0B205F0EAFEB4F9000053
:1081400010BD00BFEE40002030B589B001900C4654
:108150000178254B00221A705A709A70DA7002204A
:1081600018715A719A71D9711A722049204805F014
:1081700009FE58B9019B187801381B49C0B205F0B7
:1081800063FE40B901AB029303AD0EE0194A26210C
:1081900006F094FBEEE7174A272106F08FFBF1E784
:1081A00002A8FFF7C1FF25F8020B08AB9D42F7D1EB
:1081B000002303AA02E032F9021B0B4408A98A42F9
:1081C000F9D10D4A82FB0312DB17C3EBA2031BB2EA
:1081D000C3EB0313C3EB03139B09238005F0F6FFE6
:1081E000002009B030BD00BFE4400020258102001E
:1081F000A4B20300F06403006766666608B5094B25
:108200001B68BFF35B8F13F0010F01D0064808BD58
:1082100004480DF09BFE0028F8D002480DF0AEFE99
:10822000F4E700BFF4400020F840002030B583B0F0
:108230000446002540F8045B074A00942B4606CA12
:1082400000F0BEFD2022294604F144000DF0E4FDBB
:10825000204603B030BD00BFA8B2030010B51048DF
:10826000104BC01AC00800040F4940F0030009F089
:10827000BFF8FFF7C3FF0D4C21460D48FFF764FF21
:108280000AF060FAB4F9003040F2145202FB03F332
:10829000084A82FB0312DB17C3EBA213038010BD55
:1082A000606003001060030070650300F040002070
:1082B000202B0020D34D621008B5FFF7CFFF08BD7B
:1082C00008B50278094B1A70094A5A60436843B1ED
:1082D000996911609B8B9380064B1B6803489847F4
:1082E00008BD034B00221A609A80F5E70441002084
:1082F000FC4000201C4100207047000008B50A48DF
:108300000A4BC01AC0080004094940F0030009F0F4
:108310006FF8084802F08AFC00B908BD064A2E2111
:1083200006F0CCFAF9E700BF6060030010600300BC
:108330009065030020410020A065030008B502F00D
:108340008DFB08BD00B583B009F0BEFB68B9002302
:10835000019301A9012009F0ABFC58B901A809F06B
:1083600075FD60B903B05DF804FB074A3B2106F0D8
:10837000A5FAECE7044A3F2106F0A0FAEEE7024A2C
:10838000422106F09BFAEDE7A0650300084B4FF48D
:10839000FA725A804FF47A729A800022DA80197841
:1083A00062F382011970C9B262F3C4011970704797
:1083B0000C41002000B585B069460023009301936D
:1083C00002930393074B0093074A084802F0EDFB22
:1083D00010B905B05DF804FB054A5C2106F06EFAA1
:1083E000F7E700BF0C410020C182020020410020BD
:1083F000A065030008B5044B1860FFF7A3FFFFF763
:10840000C5FFFFF7D7FF08BD1C41002070B505462A
:10841000002413E01B4B53F824309B6803B19847AA
:1084200019481A4BC01AC00800042A46184940F0DF
:10843000030008F0E3FF23E00134E4B2154B1B789E
:10844000A3421DD90F4B53F82430002BF4D01B68E6
:10845000AB42F1D1284604F059FF0028DAD1094B8C
:1084600053F824305B6803B198470748074BC01A9C
:10847000C00800042A46084940F0030008F0BEFF87
:1084800070BD00BF8C4100206060030010600300DD
:1084900034660300884100202066030030B583B0B5
:1084A0000446016042608360194B1B78022B23D87D
:1084B0000D46184B1B68ADF804301B0C8DF80630C8
:1084C00003238DF80530144A01A9284604F044FE20
:1084D00068B90121284604F0A5FE0D4A1378591CFD
:1084E00011700E4A42F82340204603B030BD0C4ABA
:1084F000242106F0E3F9ECE70A480B4BC01AC00848
:1085000000040322094940F0010008F077FFEBE77F
:1085100088410020B0B203000D8402008C4100208D
:10852000486603006060030010600300CC6603002F
:1085300008B500F0E7F908BD10B50446054B036027
:10854000054B0360054B1B684360083000F068F87A
:10855000204610BDBCB20300CCB20300D4B203006D
:108560000804034BA3FB0030C0F30F30704700BF7B
:108570005917B7D108B50A430221083000F098F81E
:1085800008BD08B500220321083000F091F808BDAD
:1085900008B50A430421083000F08AF808BD08B580
:1085A0000A220521083000F083F808BD10B5044602
:1085B000FFF7F5FF4FF4704211462046FFF7DAFF50
:1085C0002046FFF7DEFF0F2200212046FFF7E0FFE5
:1085D00010BD022905D0032905D0012905D10820A5
:1085E0007047092070470A2070470720704738B548
:1085F00004461546FFF7EDFF01462A4604F1080040
:1086000000F056F838BD38B504460D461146FFF760
:10861000A7FF024629462046FFF7E9FF38BD0000C4
:1086200030B58FB00446174B844693E80700ACE89A
:1086300003002CF8022B120C8CF80020012284F885
:108640004C220DF11C0E03F10C0CBCE80F00AEE83F
:108650000F009CE807008EE8070004F10C050023DA
:1086600004930EAB13E90F008DE80F0007AB0ECBA0
:10867000284600F03DFB284600F02DFB20460FB0B9
:1086800030BD00BFD8B2030023B90170130A437094
:1086900082707047012BF9D141F080010170F5E73C
:1086A00003780B7043784B7083788B7070470000B1
:1086B00070B582B0044601AE0023415C3046FFF73E
:1086C000E3FF69463046FFF7EBFF00210B2000F087
:1086D0002CF90322694604F10C0000F055FB044616
:1086E00001210B2000F021F90CB902B070BD054842
:1086F000054BC01AC0080004044940F0010008F00E
:1087000077FEF2E76060030010600300F06603008C
:10871000BFF34F8F0549CA6802F4E062044B13436C
:10872000CB60BFF34F8F00BFFDE700BF00ED00E05F
:108730000400FA053CDF70473DDF704700220270FD
:108740007047000008B50A4B1B68BFF35B8F13F03E
:10875000010F01D0074808BD05480DF0F7FB0028C0
:10876000F8D00448FFF7EAFF01480DF007FCF1E7F5
:10877000984100209C4100200078704770B5064663
:10878000164C174BE41AE408240444F0020515497A
:10879000284608F02DFE4FF0FF310020FFF7CCFFF8
:1087A00060B9B1210020FFF7C5FF024668B10E494C
:1087B00044F0010008F022FE002070BD02460B4983
:1087C00044F0010008F01AFEF6E70123337008496F
:1087D000284608F00DFEFFF79BFF00BF6060030016
:1087E00010600300106703005C6703003C67030030
:1087F0007C67030010B5044603685A0904D0012AB7
:1088000013D14FF6FF7201E04FF0FF3203F01F0368
:1088100022FA03F313F0010F09D023681F2B0CD9A0
:1088200003F01F032360064810BD0022EEE7054950
:108830004FF4F67007F0A8F9EFE74FF0A040F3E728
:10884000000300509867030000B583B0019001A8B1
:10885000FFF7D0FFD0F81005019BD84000F00100D1
:1088600003B05DF804FB00B583B0019001A8FFF7E9
:10887000C1FF0123019A9340C0F80C3503B05DF8A5
:1088800004FB00B583B0019001A8FFF7B3FF0123FB
:10889000019A9340C0F8083503B05DF804FB08B5B1
:1088A00011B9FFF7E0FF08BDFFF7EBFFFBE770B57D
:1088B00082B001900C4616461D4601A8FFF79AFFAC
:1088C00044EA460444EA85049DF8183044EA032447
:1088D0009DF81C3044EA0344019B03F5E07340F823
:1088E000234002B070BD00B583B0019001A8FFF72E
:1088F00081FF019B03F5E073022240F8232003B0BF
:108900005DF804FB08B5054B1B7803B908BD04F0FE
:10891000D5FB024B00221A70F8E700BF212B002084
:1089200008B5FFF791FFC0B208BD08B5FFF7B7FF64
:1089300008BD000000B5064B01EB410C03EB8C0EAB
:1089400043F82C00CEF804108EF808205DF804FBE4
:10895000A041002008B500EB4000034B53F8203045
:108960009847002008BD00BFA041002084B010B58A
:1089700082B004AC84E80F000446FFF7B4FF9DF812
:1089800020309DF82420019200939DF81C309DF822
:1089900018209DF814102046FFF789FF02B0BDE8AB
:1089A000104004B0704730B583B004460D460192C4
:1089B0000A4601461846FFF7BDFF29462046FFF745
:1089C000C9FF024601A9204604F0C6FB012120464A
:1089D00004F028FC03B030BD0048704784430020F9
:1089E0006422427000228270014941600272704725
:1089F00000C0014008B50248FFF7F2FF08BD00BF04
:108A00008443002030B58DB00546104C0DF1180C94
:108A1000A646BEE80F00ACE80F009EE803008CE815
:108A200003008DE8030006AB0FCBFFF79FFF0DF1AE
:108A30000C0C04F1180393E807008CE807000022EF
:108A40006146281D04F016FF0DB030BD08B30300C9
:108A500008B5064B1B7803B108BDFFF7BDFFFFF754
:108A6000D1FF024B01221A70F6E700BF80430020BD
:108A7000F0B583B007EE903A4B7806EE903AF8EEF8
:108A8000666A9FED326A86EE867AF8EEE77A67EEDE
:108A9000877AFCEEE77ACDED017A9DF804509DF8D7
:108AA000203007EE903AF8EEE77A67EE877AFCEE30
:108AB000E77ACDED017A9DF804409DF8243007EE69
:108AC000903AF8EEE77A67EE877AFCEEE77ACDED3A
:108AD000017A9DF804E000210EE048F2070715E056
:108AE00048F2070722E048F2070C10331844184BED
:108AF00023F810C00131C9B2072925D80B4604FA62
:108B000001F010F0800FE8D048F20D0702EB420CA4
:108B10004FEACC0003EBCC0C0D4E26F81C7005FA86
:108B200003F616F0800FDBD048F20D0703F1080CB6
:108B30008444074E26F81C700EFA03FC1CF0800FCC
:108B4000D1D048F20D0CD0E703B0F0BD0000C84210
:108B50009043002010B582B0062B0BD8DFE803F05D
:108B6000040C131A21282F0000230193009364237F
:108B7000FFF77EFF02B010BD002301936424009430
:108B8000FFF776FFF6E76423019300230093FFF7D6
:108B90006FFFEFE70023019364230093FFF768FF63
:108BA000E8E76423019300240094FFF761FFE1E705
:108BB0006423019300930023FFF75AFFDAE764234D
:108BC00001930093FFF754FFD4E7000030B585B060
:108BD0000546002300930193029303930E4B0093E9
:108BE0004823ADF8043003E00121204604F03EFFA5
:108BF0002C1D204604F014FF0028F5D001231A464E
:108C00006946204604F0B6FE4FF49650034B43F0FD
:108C10000103984705B030BD9043002000B3030026
:108C200008B501238B70FFF7D1FF08BD70B582B086
:108C300005460E4600240194009423462246FFF781
:108C400017FF019400942346012231462846FFF77E
:108C50000FFF019400942346022231462846FFF775
:108C600007FF02B070BD10B5044600228A70FFF7FE
:108C7000DDFF2046FFF7AAFF10BD10B504466423B0
:108C80004370022300220146FFF764FF214620467D
:108C9000FFF7C6FF10BD10B50446642343700323DD
:108CA00000220146FFF756FF21462046FFF7B8FF96
:108CB00010BD10B504466423437001230022014611
:108CC000FFF748FF21462046FFF7AAFF10BD08B571
:108CD000FFF790FE08BD08B500231A4600F12C01ED
:108CE0001C3003F00BFF00B908BD0120FCE70000B9
:108CF00084B070B4844604A880E80E000B9B43B196
:108D0000012B0CD10CF11C041D4B0FCB84E80F0080
:108D100005E01C4B0CF11C040FCB84E80F00079EF0
:108D2000CCF80C60049DCCF800509DF818308CF8FD
:108D30000830059CCCF804400998CCF81400089A37
:108D4000CCF810200A99CCF818108CF83960CCF8BF
:108D500034508CF838408CF82D008CF82E108CF89C
:108D60002C208CF82F30FF238CF8313006238CF820
:108D7000303001238CF84032002070BC04B07047C2
:108D800044B3030034B3030070B584B00546144601
:108D900000F59F7630460DF00DF8E4B205F13C0386
:108DA00000960194029303940022694605F1200085
:108DB00005F07CFC08B904B070BD0120FBE70000A1
:108DC00010B582B08646CDE90012DDE900018EE8DB
:108DD0000500CEF808300EF1180C0E4C0FCCACE8A4
:108DE0000F000FCCACE80F0094E803008CE8030000
:108DF000049BCEF814309DF8053003330EF10C02BD
:108E00000EEBC30393E8030082E80300704602B050
:108E100010BD00BF54B3030008B500212F20FFF799
:108E200084FD08BD08B501212F20FFF77EFD08BD98
:108E300070470C207047000008B541F28733994213
:108E400034DC41F2883303FB01F05B1A90FBF3F052
:108E500007EE900AF8EEE77A17EE900A0CF04AFF58
:108E600018A3D3E900230CF02BFE41EC100B0CF0FF
:108E700033FB51EC100B0CF005FF0F4B03FB00F024
:108E80000E4A82FB0031C317C3EBA11303F69853BC
:108E90000B4890FBF3F0A0F58520A0F2FE2082FBAA
:108EA0000032C017C0EBA21000B208BD6FF488708A
:108EB000FBE700BFAFF30080A68C0400D34D621027
:108EC00090F0D73D000000000088B34070B5054623
:108ED000FFF794F9074E31460748FFF735F90AF0D6
:108EE00027F90446B6F9001041802846FFF7A4FF91
:108EF000A08070BD20440020242B002008B5FFF77F
:108F0000E5FF08BD0020704708B540F2DC520321A0
:108F1000FFF779FB08BD08B500220221FFF773FBBC
:108F200008BD08B50A460121FFF76DFB08BD08B56D
:108F30000C2904D94FF4C861FFF7F3FF08BD01EB1A
:108F4000810101EB8101890001F5C87189B2FFF748
:108F5000E8FFF3E708B564220021FFF754FB08BDE2
:108F600010B50446FFF7D0FF2046FFF7D4FF4FF4BB
:108F7000C8712046FFF7D5FF2046FFF7EBFF10BD75
:108F800008B5FFF713FB08BD30B583B00446FFF703
:108F9000D3FA20252A46002104F516700CF03CFF78
:108FA0002A46002104F51E700CF036FF0025A4F8B7
:108FB0009852A4F89A520C4A00942B4606CA04F51B
:108FC0002770FFF7FDFE094A00942B4606CA04F5F8
:108FD0003770FFF7F5FE2046FFF7D2FF2046FFF778
:108FE000BFFF204603B030BD8CB3030084B3030041
:108FF000BFF34F8F0549CA6802F4E062044B134384
:10900000CB60BFF34F8F00BFFDE700BF00ED00E076
:109010000400FA054FF08053D3F83031082B01D00B
:1090200000207047012070474FF08053D3F8303153
:10903000082B01D000207047012070474FF080536B
:10904000D3F83021D3F83431082A01D000207047FA
:10905000002B04D8DFE803F0010001207047002056
:1090600070474FF08053D3F83021D3F83431082AB9
:1090700001D000207047002B04D8DFE803F0010086
:1090800001207047002070474FF08053D3F8302103
:10909000D3F83431082A01D000207047002B04D8BF
:1090A000DFE803F0010001207047002070474FF017
:1090B0008053D3F83021D3F83431082A01D000206E
:1090C0007047002B04D8DFE803F00100012070474F
:1090D000002070474FF08053D3F83031082B01D077
:1090E00000207047012070474FF08053D3F83021A3
:1090F000D3F83431082A01D000207047032B01D85F
:10910000002070470120704708B5FFF7EDFF38B128
:109110004FF01023D3F808224FF08043C3F85825AE
:1091200008BD0000024BD3F80034002BFAD0704782
:1091300000E0014008B5034BC3F80405FFF7F2FF58
:1091400008BD00BF00E00140014B024A1A607047B1
:10915000282B00200090D00338B5FFF75BFF40B10B
:109160004FF080430022C3F80C21C3F81021C3F84C
:109170003825FFF759FF002846D04FF08052D2F82B
:109180000414554BC3F82015D2F80814C3F824155D
:10919000D2F80C14C3F82815D2F81014C3F82C1503
:1091A000D2F81414C3F83015D2F81814C3F83415D3
:1091B000D2F81C14C3F84015D2F82014C3F8441593
:1091C000D2F82414C3F84815D2F82814C3F84C1563
:1091D000D2F82C14C3F85015D2F83014C3F8541533
:1091E000D2F83414C3F86015D2F83814C3F86415F3
:1091F000D2F83C14C3F86815D2F84014C3F86C15C3
:10920000D2F84424C3F87025FFF718FF18B1334B88
:10921000334AC3F88C26FFF724FF18B1314BFB22E9
:10922000C3F81825FFF730FF70B14FF08041D1F837
:10923000E43E23F00F034FF08052D2F8582202F0A0
:109240000F021343C1F8E43EFFF731FF20B1264B74
:109250004FF40072C3F84026FFF73CFF60B14FF0B7
:109260008043D3F8003413F0010F05D04FF0804352
:109270006FF00102C3F800241C4AD2F8883043F48E
:109280007003C2F88830BFF34F8FBFF36F8FFFF7C3
:109290003BFF4FF01023D3F80032002B08DB4FF0D8
:1092A0001023D3F80432002B02DBFFF74DFF38BD4B
:1092B0000120FFF73FFF4FF010241225C4F80052A1
:1092C000FFF730FFC4F80452FFF72CFF0020FFF730
:1092D00031FFFFF78DFE00BF00C00040005000408E
:1092E0004881030000F000400090024000ED00E0E3
:1092F00048B300B5864642B34FF0000C06E01EF8B6
:109300000C00604480B201301FFA80FC0CF10100B7
:10931000884207DA10886045F1D80EEB0C004078DF
:109320009842ECD18C4512D20CF102039BB21EF88C
:109330000C0078B1013880B250B103EB000C6145EC
:109340000ADB138004E000207047002000E00020CA
:109350005DF804FB0020FBE70020F9E770B582B060
:109360000023ADF80630DAB10446164609230DF1A4
:109370000602FFF7BDFF0546BDF806301C448BB161
:1093800098B130460CF000FDA84201D000200AE060
:109390002A46214630460CF0D2FC40B1002002E0C3
:1093A000002000E0002002B070BD0020FBE701209B
:1093B000F9E7000000230BB10020704703EB8302A4
:1093C000054931F82220824201D00133F3E703EB53
:1093D000830301EB830070474844002030B5B0F8A8
:1093E00004C002EB0C04944594BFACEB0C0CACEB4A
:1093F000020CC2889D189A4294BF921AD21A4B88C6
:10940000B0F800E073450ED3408883420DD88B88B6
:1094100063450CD3A3420CD8CB8893420BD3AB4209
:109420000BD8012000E0002030BD0020FCE7002028
:10943000FAE70020F8E70020F6E70020F4E7000054
:1094400008B5024B9B6903B1984708BD2C44002026
:1094500010B58088FFF7AEFF38B10446406805F0CC
:109460001BFB18B94FF6FF73238010BDFFF7E8FF11
:10947000F8E7000000B583B002460B46497A69B9A7
:10948000197A41B90D494968586805F0ADFA88B1B3
:10949000FFF7D6FF0EE009498968F5E70021197248
:1094A000064B5B6933B101218DF80410ADF806005D
:1094B00001A8984703B05DF804FB00BF2C440020CE
:1094C00070B5C37B8688012B1DD104464FF6FF7013
:1094D000FFF770FF0546B8B10680002303720F4BFB
:1094E00003CBC5F80A00C5F80E104FF6FF7340F223
:1094F000F31204F1100105F10A00FFF76FFF687223
:10950000074BDB8923B170BD0420FFF799FFFAE711
:1095100029463046FFF7AEFFF5E700BF24440020A0
:109520002C44002070B5044686883046FFF742FF81
:1095300070B105464FF6FF7340F2F31204F10801D3
:109540000A30FFF74BFF687229463046FFF792FF5B
:1095500070BD0000C288124BDB899A4200D0704770
:1095600070B50446038A022B00D070BD858828465A
:10957000FFF720FF06460028F7D004F1120000F0A4
:10958000C9F920B131462846FFF774FFEDE770684E
:1095900005F082FA0028E8D0FFF752FFE5E700BFA8
:1095A0002C44002008B50388122B0FD006D8102BAE
:1095B00009D0112B09D1FFF74BFF06E0502B04D146
:1095C000FFF7C8FF01E0FFF77BFF08BDFFF7AAFF29
:1095D000FBE7000008B50146014806F091FB08BD15
:1095E0005C440020F0B583B00190B9B116460F4637
:1095F000019D85B9284603B0F0BD0134132CF9D87C
:10960000214601A806F07CFB0028F6D03146A0B226
:10961000B8470135F1E700242546EFE70025E9E7E3
:10962000132801D90020704738B50446054D01467E
:10963000284606F03EFB2146281F06F03AFB012093
:1096400038BD00BF6444002038B50546002407E05B
:10965000054800EB84002946043006F044FB013441
:109660001D2CF5D938BD00BF5C44002008B501466B
:10967000014806F038FB08BD6444002008B512B16B
:1096800006F017FB08BD06F02EFBFBE730B583B0F4
:109690000546019100230360019B93B9284603B05E
:1096A00030BD0134132CF9D8214601A806F028FB5F
:1096B0000028F6D02B685A1C2A6005EB43039C80D7
:1096C000EFE70024EEE7000010B598B0134A936866
:1096D000DB431793516817A806F07AFB17996C467D
:1096E0006846FFF7D3FF0DF1300C0FCCACE80F004C
:1096F0000FCCACE80F0094E807008CE807000024CA
:1097000007E018AB03EB440333F82C0CFFF79CFF86
:1097100001340C9BA342F4D818B010BD5C44002067
:1097200070B5044685880388103B0A2B1ED8DFE8F5
:1097300003F0061A1D1D1D1D1D1D1D3B1E00FFF7FC
:10974000C3FF2846FFF76CFF38B1E37B022B0DD136
:1097500029461B4806F0ADFA08E01A4AF021042019
:1097600005F0ACF802E02846FFF780FF70BD027AF2
:109770001609154C3F2A94BF002201222946204693
:10978000FFF77CFF022E94BF002201222946201FF2
:10979000FFF774FF012E94BF002201222946A4F195
:1097A0000800FFF76BFFE1E7037A002BDED1427A76
:1097B000C2F3C00229460448FFF760FFD6E700BFA6
:1097C00068440020E867030074440020132801D98E
:1097D0000020704708B50146014806F091FA08BD1F
:1097E0006044002010B50446FFF7F0FF08B90020E0
:1097F00010BD2146034806F083FA08B90120F7E7B7
:109800000220F5E76844002010B50446FFF7DEFFAC
:1098100008B9002010BD2146034806F071FA08B9C6
:109820000120F7E70220F5E76444002010B5044664
:10983000FFF7CCFF00B910BD2146024806F060FAE0
:10984000F9E700BF6C44002010B50446FFF7BEFFE7
:1098500000B910BD2146024806F052FAF9E700BFF0
:109860007044002010B50446FFF7B0FF00B910BDEA
:109870002146024806F044FAF9E700BF744400208C
:1098800038B505460C460846FFF7A4FE08B9002087
:1098900038BD2846FFF79AFF0028F8D00634044860
:1098A00000EB84002946043006F02AFAF0E700BFF6
:1098B0005C44002070B506460C4615460846FFF786
:1098C00089FE00B970BD3046FFF780FF0028F9D04F
:1098D0000634044800EB84002A4631460430FFF782
:1098E000CDFEEFE75C44002070B504460E461546F9
:1098F000FFF770FE08B9002070BDA01D044B03EBFC
:10990000800358682A463146FFF76CFEF4E700BF33
:109910005C440020007800F001007047A0DF704731
:10992000A1DF7047ADDF7047B3DF7047B4DF70472A
:109930008379012B01D0002070470379012B01D0DE
:1099400000207047428842F602139A4201D000205C
:1099500070470120704738B50446408800F052FE39
:10996000A080002505B138BD204601F01FFF01355C
:10997000F8E700B587B001AB002201920292039292
:109980000492059208228DF80420ADF80600039198
:109990001846FFF7E0FF07B05DF804FB70B586B02E
:1099A000002301930293039304930593ADF80600FB
:1099B0004FF6FF7398422ED0044600F0D3FC0546C4
:1099C00011283FD015D8D0B10B2826D110238DF8FF
:1099D00004301D481D4BC01AC008000422461C4913
:1099E00040F0020007F00AFD01A8FFF7B4FF0022D3
:1099F0000CE043F2020398420FD1002206E00F234D
:109A00008DF8043001A8FFF7A6FF0022114B19784A
:109A10002046FFF74FFF06B070BD0B4E0B4BF61AFA
:109A2000F6083604284607F009F9024623460A4993
:109A300046F0010007F0ECFC29462046FFF799FFAD
:109A40000022E3E70122E1E7B860030010600300B1
:109A5000A4680300DD4400202469030008B5FFF773
:109A60009DFF08BD10B5044600F0DEFC00B910BD36
:109A70000122034B19782046FFF71CFFF7E700BFD0
:109A8000DC44002010B582B0044600F0BBFD00238A
:109A90006A46092101F0CEF9052801D002B010BDB7
:109AA0000122034B19782046FFF704FFF6E700BFB9
:109AB000DA44002008B500220649074B1878FFF762
:109AC00013FF00B108BD00220449054B1878FFF7C9
:109AD0000BFFF7E7019D0200DE440020159B02000A
:109AE000DA44002008B500220249034B1878FFF73A
:109AF000FBFE08BD199E0200DC44002008B50022D0
:109B00000249034B1878FFF7EFFE08BD5D9A02008B
:109B1000DD44002010B582B004460023019342F6D4
:109B2000A623ADF8043001238DF80630084B1B68DE
:109B300000936A4601A9FFF7F1FE08B102B010BD1B
:109B40000122044B19782046FFF7B4FEF6E700BF68
:109B50009CB30300D944002010B5044638B12368F3
:109B6000012B09D1BFF35F8F0023236010BD05498E
:109B7000922006F009F8F2E70249932006F004F873
:109B8000F0E700BF78690300F0B585B006460F46E0
:109B90000DF10E00FFF7C8FE10B9012400250DE0FD
:109BA0001A494FF4997005F0EFFFF6E7BDF8002071
:109BB00042F602139A421DD00134A4B2BDF80E3011
:109BC000A3421FD90223ADF804300022ADF80620CD
:109BD0006946CDF808D02046FFF7A8FE034690B9A5
:109BE000002DE3D1BDF8002042F605239A42E3D1CF
:109BF0000125E1E7029701AA21463046FFF792FED0
:109C0000034600E00523184605B0F0BDD069030007
:109C100010B5044648B10121204606F0AEF8BFF366
:109C20005F8FB0FA80F0400910BD0249852005F031
:109C3000ABFFF0E77869030070B586B0054600F029
:109C4000F1FA112848D0044619D8002847D00B282B
:109C500048D0264E264BF61AF6083604204606F063
:109C6000EDFF02462B46234946F0010007F0D0FBEA
:109C700021462846FFF77DFE0024224624E0862860
:109C800006D043F202039842E3D1002422461BE0AF
:109C900001AC0026019602960396049605960723CA
:109CA0008DF80430ADF806501048114BC01AC008AA
:109CB00000042A46104940F0020007F09FFB2046AE
:109CC000FFF749FE344632460C4909782846FFF72B
:109CD000F1FD204606B070BD00240122F4E7012406
:109CE0000022F1E700242246EEE700BFB86003003F
:109CF00010600300D06A0300986A0300DE4400206D
:109D000010B504460648FFF783FF00B910BD204692
:109D1000FFF792FF0028F9D10148FFF71DFFF5E793
:109D2000E044002070B586B0054600F091FB044683
:109D300011280CD811283CD8DFE800F0173B3B3B3A
:109D40003B3B333B283B3B3B3B3B3B3B3B5D43F29D
:109D50000203984252D043F20143984229D1284647
:109D6000FFF71CFE0024012238E001A80023019324
:109D700043608360C360036111238DF80430ADF844
:109D80000650FFF7E8FD0124224627E001A92846F6
:109D9000FFF7FAFE28B9BDF8043013B10024012200
:109DA0001CE0284600F02EFC00F084FB0024224634
:109DB00014E0144E144BF61AF6083604204606F04A
:109DC0003DFF02462B46114946F0010007F020FBFB
:109DD00021462846FFF7CDFD002401220C4B1978BF
:109DE0002846FFF767FD22460A4B19782846FFF7F9
:109DF00061FD06B070BD00240122EFE700240122BE
:109E0000ECE700BFB860030010600300106B0300B4
:109E1000DC440020DB44002010B50446044B1978D4
:109E2000FFF72EFD00B110BD2046FFF77BFFFAE7DC
:109E3000DB440020037803B1704710B50446408826
:109E4000FFF7ACFD6088FFF70DFE6088FFF71AFE94
:109E5000FFF730FE10BD000010B582B00378092B6B
:109E600003D0FFF727FE02B010BD0446437A002B53
:109E7000F7D1037A072B1DD0082B2CD0012BF0D162
:109E80006A460121808801F09FFA0028E9D1019BF0
:109E90001B78002BE5D0A08800F0E8FB4FF6FF739D
:109EA0009842DED00122104B1978FFF703FDFFF72F
:109EB00019FED6E7808800F0D9FB04464FF6FF7301
:109EC0009842CED00122094B1978FFF7F3FC2046C7
:109ED000FFF7D8FDC5E7064B1B68012BC1D104482D
:109EE000FFF73AFEBDE700BFDC440020DE4400205F
:109EF000E044002030B583B004460D4600220092B5
:109F000001920123ADF8003009238DF80230104B87
:109F10001978FFF7CFFC5DB10E4B0193204600F09E
:109F200071FB0022694600F0F7FF18B903B030BD9D
:109F3000094BF2E7094C0A4AA41AE408240406F083
:109F40007DFE0246074944F0020007F057FAEDE7AC
:109F5000DA44002098B3030094B30300B860030010
:109F600010600300506B030070B586B0044685880E
:109F70000388353B1F2B14D8DFE803F04A951313F1
:109F800013131313131313131313131313131313A1
:109F9000131313131313133C131013192846FFF74D
:109FA000FDFCFFF7ABFDFFF79DFD06B070BD01AEF8
:109FB00000240194029403940494059412238DF8D0
:109FC0000430ADF80650284600F01CFBADF8080040
:109FD00000F070FA22464D4B19782846FFF76AFCCC
:109FE00022464B4B19782846FFF764FC3046FFF7B2
:109FF000B2FCD6E70630FFF79BFC0028D1D0012247
:10A00000444B19782846FFF755FCFFF753FDC8E786
:10A01000414B19782846FFF733FC0028C1D00022B5
:10A020003D4B19782846FFF745FCE288B2F5857F5D
:10A0300010D0A2B96289012A1CD1A289012A24D098
:10A040003648374BC01AC0080004364940F00200B9
:10A0500007F0D4F900212846FFF74CFFA1E72F486D
:10A060002F4BC01AC00800042F4940F0020007F02F
:10A07000C5F9EFE729482A4BC01AC00800042B494C
:10A0800040F0020007F0BAF9D7E70022E18928463C
:10A09000FFF746FC0028DDD10122254B1978284620
:10A0A000FFF708FC7DE7224B19782846FFF7E8FB0D
:10A0B00000283FF476AF00221D4B19782846FFF7A1
:10A0C000F9FBE28852B9E289012A13D1217C0039D7
:10A0D00018BF01212846FFF70DFF62E70F48104B1C
:10A0E000C01AC0080004104940F0020007F086F9C9
:10A0F0000021EFE709480A4BC01AC00800040949CB
:10A1000040F0020007F07AF90021E3E7DB44002089
:10A11000DC440020DE440020D9440020B860030065
:10A1200010600300286C0300B06B0300EC6B0300AD
:10A13000D8440020AFDF7047B1DF7047B2DF70470F
:10A14000B3DF704738B50446808800F08FFA60802E
:10A15000002505B138BD204601F02CFB0135F8E79C
:10A1600030B589B0234B93E8030008AB03E9030043
:10A170000BE007238DF804301046FFF7E3FF36E0CD
:10A180001D4C208800F047FF20801B4B18884FF69D
:10A19000FF7398422BD0002206A900F0BDFE0446B2
:10A1A0000028EDD001AA00230193029303930493A6
:10A1B0000593114B1B88ADF80830112817D086285D
:10A1C000D7D00E4D0E4BED1AED082D0406F036FDDE
:10A1D0000246094B1B880B4945F0010007F018F9AE
:10A1E00008238DF80430039401A8FFF7ABFF09B0F2
:10A1F00030BD00BFA8B30300E6440020C0600300E8
:10A2000010600300786C030008B5054B1A884FF600
:10A21000FF739A4200D108BDFFF7A2FFFBE700BF22
:10A22000E64400202DE9F04784B0824600F0EAF9C8
:10A230004FF6FF73984200F087800746012449E0FB
:10A2400002AA0821384601F0BFF888B9B8F80420FE
:10A2500003998B889A420DD1063128460BF06FFD89
:10A2600040B90821384601F025F9D8B90B2607E096
:10A27000052807D13A460821384601F073F9064609
:10A28000002525E0334C344AA41AE408240406F0DF
:10A29000D5FC02465346314944F0010007F0B8F8B6
:10A2A000032653E02B4D2C4AAD1AED082D0406F081
:10A2B000C5FC03463A462A4945F0010007F0A8F8D4
:10A2C0000326DDE701250821384601F0F3F818BB25
:10A2D000002D3BD022460134A4B26B4608213846FB
:10A2E00001F078F8814638BBDDF804800323454649
:10A2F00045F8063B08F1040229465046FFF71EFFC9
:10A30000064600289CD00C28DCD0052801D000256A
:10A31000D9E74E460025D6E70E4E0F4AB61AF60884
:10A32000360406F08BFC03463A460D4946F0010020
:10A3300007F06EF80326CBE7072802D100250C268C
:10A34000C6E706460025C3E743F20206304604B0DE
:10A35000BDE8F087C060030010600300D06C03000C
:10A36000086D03002DE9F04182B0054600F04AF97E
:10A370004FF6FF73984205D10324002637464FF06D
:10A38000010825E06A46082101F01EF820B9019B6A
:10A390009F1D9E881C68F2E7032400263746EEE7DF
:10A3A00026B14FF00008032446460FE01B481C4B23
:10A3B000C01AC00800042A461A4940F0010007F0FC
:10A3C0001DF84FF00008032000E011200B281CD1DD
:10A3D0002346324639462846FFF7AEFE0428F4D01D
:10A3E00008280CD00B28F1D114F0020F09D1002F4E
:10A3F000D6D04FF00008032446464746E6E7002043
:10A40000E4E74FF000080124E0E7B8F1000F02D0C4
:10A4100002B0BDE8F0810B20FAE700BFC060030086
:10A4200010600300886D030000B585B00DF10F03C7
:10A43000029300F0E7F801AA012100F0C5FF20B95E
:10A44000029B187805B05DF804FB0020FAE70000D5
:10A4500010B504461348FFF773FE90B1124C134A2F
:10A46000A41AE408240406F0E9FB0246104944F06B
:10A47000010006F0C3FF032010BD43F2030398421E
:10A48000FAD14FF6FF72074B19882046FFF752FEAC
:10A4900043F203039842F0D1024A13880133138038
:10A4A000EBE700BFE4440020C0600300106003003D
:10A4B000006E030000B583B08446064A92E80300AC
:10A4C000CDE9000100226946604600F025FD03B099
:10A4D0005DF804FBB0B3030046DF704738B50546AE
:10A4E000002405E0044B53F82430284698470134F3
:10A4F000012CF7D938BD00BFB8B3030000230F2BE0
:10A5000003D8C25C1AB90133F9E700207047012073
:10A51000704778B181B108B503780A785340012BB0
:10A520000CD80622013101300BF009FCB0FA80F0A2
:10A53000400908BD00207047002070470020F8E760
:10A540002DE9F04104460D4600F1110701F1110813
:10A550001022013101300BF0F2FB50B90646601CAD
:10A56000FFF7CCFF30B1681CFFF7C8FF10B1012620
:10A5700000E0002606F0010641463846FFF7C9FF15
:10A58000637C03F0FE03042B0CD0062B11D06B7CF4
:10A5900003F0FE03042B0ED0062B01D0012302E0B2
:10A5A000002300E0002300B13BB946B153B10020C5
:10A5B00006E00023F7E70023F5E7012000E0002094
:10A5C000BDE8F0810120FBE770B584B006460D467A
:10A5D00000F06CFC01AA0DF10E01072000F06EFCEA
:10A5E00050B1BDF80E40AC42F4D002993046FFF7AE
:10A5F000A7FF0028EED001E04FF6FF74204604B01C
:10A6000070BD000013280DD810B50446FFF7DEF822
:10A6100028B104EB8404054B33F8140010BD4FF649
:10A62000FF70FBE74FF6FF70704700BFE844002063
:10A63000132816D838B504460D46FFF7C7F868B199
:10A6400004EB8404084B03EB4403D3F802202A6094
:10A65000DA881B7AAA80AB71002038BD43F2020071
:10A66000FBE743F202007047E844002038B5054696
:10A670004FF6FF73984216D0002401E00134A4B2D3
:10A68000132C0CD804EB8403084A32F81330AB4285
:10A69000F4D12046FFF79AF80028EFD001E04FF6FA
:10A6A000FF74204638BD0446FBE700BFE8440020A5
:10A6B000038843B9072B04D8C21892782AB901330A
:10A6C000F8E700207047012070470120704738B537
:10A6D00004460D46FFF7ECFF58B122882B889A42BA
:10A6E00008D10822A91CA01C0BF029FBB0FA80F0AD
:10A6F000400938BD0020FCE730B585B0054600F0C4
:10A70000D5FB01AA0DF10E01072000F0D7FB88B19F
:10A71000029C04F146012846FFF7D9FF30B904F145
:10A720002A012846FFF7D3FF0028EAD0BDF80E0023
:10A7300005B030BD4FF6FF70FAE70000132804D8CB
:10A7400000EB8000014B23F810107047E844002014
:10A7500038B50546FFF78AFF0446284600F0B4FEE8
:10A7600040B9132C06D804EB8404034B4FF6FF7258
:10A7700023F8142038BD00BFE844002010B58CB089
:10A78000144600230AE0C3F10F0C10F80CE003F1AB
:10A7900030020DEB020C0CF830EC01330F2BF2D928
:10A7A00000230493059306938DF81C3007E0C3F152
:10A7B0000F02C85C30326A4402F8200C0133022BCD
:10A7C000F5D96846FFF788FE002307E0C3F10F02C2
:10A7D00030326A4412F8102CE2540133022BF5D9BE
:10A7E0000CB010BD0346027802F0FE02042A01D02C
:10A7F0000020704730B585B0084603ACB3F80110AF
:10A80000DA78ADF80C108DF80E2001A99A889B79A2
:10A81000ADF804208B7002AD2A46FFF7AFFF03228C
:10A82000294620460BF08BFAB0FA80F0400905B0BB
:10A8300030BD00000388102B72D100B593B00DF12C
:10A840001C0E00F1040CBCE80F00AEE80F00BCE8E1
:10A850000F00AEE80F009CE807008EE807009DF8A7
:10A86000203003F0FE03062B1BD14FF6FF71BDF81D
:10A870001C202C4B02EB820023F8101003EB40034A
:10A880000898C3F80200BDF824C09DF82600A3F87C
:10A8900006C018724FF6FF73994236D113B05DF8B7
:10A8A00004FB00F003FB9DF820305A08032B15D958
:10A8B000022A10D102AA0DF10601072000F0FEFACB
:10A8C00000B30399013108A8FFF78CFF0028F1D0ED
:10A8D000BDF80610CBE74FF6FF71C8E702AA0DF1ED
:10A8E0000601072000F0EAFA48B10399113108A8DF
:10A8F000FFF70FFE0028F1D0BDF80610B7E74FF6BE
:10A90000FF71B4E74FF6FF71B1E7ADF80A20ADF87B
:10A910000C1000238DF8083002A8FFF7DFFDBDE71B
:10A92000704700BFE84400208ADF70478BDF704724
:10A930008CDF704790F82E3043F0040380F82E30FF
:10A94000A0230386502343860022828690F82E306F
:10A9500062F3C40380F82E30012380F82F30704753
:10A960004FF4C8734385062383841823C3840023CC
:10A970000385704700B587B00023019302930393CA
:10A980000493059306238DF804300B1D02930B8866
:10A99000ADF80C3000F12E030593C36B13B101AA7F
:10A9A0001046984707B05DF804FB000030B587B04B
:10A9B0000023019302930393049305930B79012BD6
:10A9C00001D007B030BD05460C460C480C4BC01AF0
:10A9D000C00800040B4940F0040006F009FDEB6BD1
:10A9E000002BEED004228DF804202E350595227917
:10A9F0008DF8082001A89847E3E700BF70600300C6
:10AA000010600300806E03002DE9F04105460E46FC
:10AA100091F82070B0F81C80002401E00134E4B209
:10AA2000BC4209D206EB44124146A869FEF796FCE7
:10AA300003460028F2D000E000231846BDE8F0816C
:10AA400090F82E3003F01803082B03D0182B03D0F6
:10AA500000207047012070470120704708B5FFF7BC
:10AA600065FF08BD2DE9F04186B090F82C8090F884
:10AA7000233013B906B0BDE8F08104468D1C00F107
:10AA80002E0600F12407FFF7E9FF0023019302934C
:10AA900003930493059343463A4631462846FFF70D
:10AAA00047FF06460D4D0E4BED1AED082D0445F0FF
:10AAB00004050C49284606F09BFC05238DF804305C
:10AAC000029632460849284606F098FC002ED1D05E
:10AAD000E36B002BCED001A89847CBE77060030052
:10AAE00010600300986E0300A46E030070B586B07A
:10AAF00004460D46002301930293039304930593A8
:10AB000000F12E030593FFF79BFFC8B994F822606C
:10AB100094F821302BBB002211460295002E3AD02A
:10AB2000914230D003238DF80430E36B0BB101A8C0
:10AB3000984704F160010020FFF7F6FE06B070BDF3
:10AB400002238DF804300295E36B01A8984704F1C5
:10AB500060010020FFF7E8FE29462046FFF782FF4C
:10AB6000ECE721462846FFF74FFF034640B19DF82A
:10AB70000C2042F001028DF80C2001221146CCE796
:10AB800000220121C9E700238DF804302946204620
:10AB9000FFF768FFC9E7002BC4D000238DF804300D
:10ABA00029462046FFF75EFFBFE700283CD038B5B6
:10ABB0000D460446C263232200210BF02DF94DB34C
:10ABC0002B7984F823302B7B84F82C302B68CBB185
:10ABD000186859689A68C4F82E00C4F83210C4F88E
:10ABE00036209B896387AA6882B104F12403106828
:10ABF000516803C304F1400323661F23A4F86430A3
:10AC0000002038BD2046FFF795FEECE72046FFF711
:10AC1000A7FEEFE72046FFF78DFE2046FFF7A0FED8
:10AC2000002384F82330E5E70E20704710B586B086
:10AC3000002837D004460023019302930393049322
:10AC40000593FFF70BFF2046FFF7FAFE30B1E36BE9
:10AC500023B101228DF8042001A8984704F1600176
:10AC600004F12E00FFF760FE0446082800D068B902
:10AC70000D480E4BC01AC00800040D4940F00400F6
:10AC800006F0B6FB0024204606B010BD0648074B70
:10AC9000C01AC00800042246064940F0010006F030
:10ACA000ADFBF0E70E24EEE77060030010600300D8
:10ACB000E06E0300BC6E030008B50346084603F1CE
:10ACC0000802194631F8043B1B2B0AD01D2B04D077
:10ACD000102B05D1FFF74EFE02E01146FFF706FFED
:10ACE00008BDFFF763FEFBE7A0F5804080B2704728
:10ACF00000F5804080B27047A0F5804080B2704778
:10AD00000138082806D8DFE800F00705050707071F
:10AD100007070700002070470120704738B5054637
:10AD20004FF6FF734380002404B138BD284600F07D
:10AD300017FB0134F8E700B587B001AB00220192A0
:10AD4000029203920492059208228DF80420ADF835
:10AD5000080003911846FFF7E1FF07B05DF804FB18
:10AD600030B587B00023234A1370019302934FF646
:10AD7000FF7000F0AFFC044606E0204600F052FCF5
:10AD8000204600F0A7FC04464FF6FF739C420AD011
:10AD90002046FFF7A9FF01AA03A904F009FE48F223
:10ADA00009639842E9D04FF6FF739C4201D107B086
:10ADB00030BD2046FFF798FF04F0B8FD054648F285
:10ADC0000763984212D00028F1D00B480B4BC01AF1
:10ADD000C008000423462A46094940F0010006F055
:10ADE00017FB29462046FFF7A6FFE0E7014B0122AB
:10ADF0001A70DCE7B8450020E06003001060030033
:10AE0000F86E0300F0B583B00E461546002300939C
:10AE10000193FFF769FF04463046FFF76DFF0146D7
:10AE20006B462A46204604F0A7FD08B903B0F0BDE2
:10AE30000520FBE7F0B587B0FF282DD805460C4666
:10AE400017461E460846FFF75BFF38B303AA2146A4
:10AE50002846FFF7D7FF28BB01A903A804F0FAFC96
:10AE6000054608BBBC70019B5B883B8076B19C00AB
:10AE70003368A34228BF23461E461A4602997868C3
:10AE80000AF098FFB44203D90C2508E0029B7B60CE
:10AE900003A804F00BFD02E0072500E00725284683
:10AEA00007B0F0BD0525FAE70525F8E7024B0022BB
:10AEB0001A605A60704700BFB0450020F0B587B0F7
:10AEC00007460E461446FFF71BFF18B90125284612
:10AED00007B0F0BD05463846FFF70EFF0D4A03A93F
:10AEE00004F058FD08B10025F1E701A903A804F01A
:10AEF000B1FC08B10025EAE7A770019B5A882280BF
:10AF0000029A62609888FFF7F3FE308003A804F08D
:10AF1000CDFCDCE7B0450020F0B587B0FF2858D85D
:10AF200005460C4617468E783046FFF7E9FE0028A6
:10AF300051D02846FFF7D8FEADF80C003046FFF799
:10AF4000DBFEADF80E0063680493238805936A4620
:10AF5000A1782846FFF756FF05281AD003A96846AE
:10AF600004F0DAFC0446E4B148F20D639C4220D8B8
:10AF700048F202639C421CD3A4F50643023B0B2B10
:10AF800017D8DFE803F0141616162A0C1616161634
:10AF9000160C03A9684604F0B9FC0446E3E7112443
:10AFA00014E09FB13946684604F010FD0EE010240D
:10AFB0000CE00B480B4BC01AC00800042B4622467D
:10AFC000094940F0010006F023FA0324204607B0A7
:10AFD000F0BD0724FAE70724F8E78624F6E700BF68
:10AFE000E060030010600300446F030008B54FF6F3
:10AFF000FF7000F0FDFA08BDFF2806D808B500F084
:10B00000FFFAFFF7ADFE002008BD0720704708B526
:10B0100000F016FB08BD08B500F044FB08BD08B5FC
:10B0200000F058FB08BD4FF6FF7303808370FF23C9
:10B030004372837A23F002038372DBB223F00103AD
:10B040008372002303724360704700000B68032B78
:10B0500014D810B403EB4302094C34F82220824286
:10B0600004D00133032BF5D9002004E00B6003EB7F
:10B07000430304EB83005DF8044B704700207047E6
:10B08000BC45002030B583B005460C460023019333
:10B0900001A9FFF7DBFF06E0019B0133019301A942
:10B0A0002846FFF7D3FF48B18378A342F4D1837ACF
:10B0B00013F0030FF0D14368002BEDD103B030BD86
:10B0C0000023032B0DDC03EB4301074A02EB810253
:10B0D0005268824201D00133F3E7034800EB81005C
:10B0E00070470020704700BFBC45002008B5FF2115
:10B0F0004FF6FF70FFF7C6FF08BD58B170B50D469B
:10B1000014460646FFF7F2FF306010B10580336841
:10B110009C7070BD7047000038B50546002405E0FE
:10B12000044B53F82430284698470134032CF7D9B0
:10B1300038BD00BFC0B3030003EB83031B019BB208
:10B14000817042609B080380704708B59BB2FFF78F
:10B15000F3FF08BD8378013B072B13D8DFE803F02A
:10B1600007121212120A040D1423038070470123E0
:10B170000380704701230380704743689B8809332D
:10B180009B0803807047000038B50546002406E0A0
:10B19000697A2144C9B2054800F093FC01342B7A46
:10B1A000A342F5D82846FFF73EFF38BDEC45002006
:10B1B00030B583B0044600230093019383788DF863
:10B1C0000230417A2D4800F068FC20B30246237A11
:10B1D000A1786846FFF7B9FF6846FFF7BBFF224634
:10B1E00032F8040B6946FFF797FE112838D01FD8B4
:10B1F00060B3072832D0224D224BED1AED082D0402
:10B2000005F01CFD024623881F4945F0010006F0A9
:10B21000FFF8032022E01A481A4BC01AC0080004A5
:10B22000627A1A4940F0010006F0E8F8032015E0C0
:10B230008628E0D1A37A23F00203A372DBB243F0A5
:10B240000103A372124B01221A7007E0A37A23F0C4
:10B250000203A372DBB223F00103A37203B030BD7B
:10B26000A37A43F00203A372DBB223F00103A372BB
:10B27000074B01221A700020F0E700BFEC450020C8
:10B28000D860030010600300F06F0300B06F03008C
:10B29000B945002030B587B00446FFF789FF10B9E3
:10B2A000012007B030BD4FF6FF72ADF806202288AE
:10B2B000ADF80820862807D107238DF8043001A8AF
:10B2C000FFF72AFF0020ECE708228DF80420039006
:10B2D000074D084AAD1AED082D0405F0AFFC0246F3
:10B2E0002388054945F0010006F092F8E7E700BF22
:10B2F000D8600300106003002070030038B5164BBF
:10B300001B783BB305460024134B1C700DE0124B19
:10B3100001221A7001B93DB104EB44000F4B03EB5D
:10B320008000FFF7B7FFA8B10134032C12D804EB5B
:10B3300044020A4B03EB82039B7AC3F3400113F0F0
:10B34000020FE4D1054B03EB82039B7A13F0010F4C
:10B35000EAD0DCE738BD00BFB9450020BC4500207D
:10B3600038B50446C068FFF7ABFE23780A2B0AD035
:10B37000142B15D0092B1BD1637ADBB9E0B1FFF791
:10B3800003FF00250DE0637AC3B9C8B1002545600D
:10B39000837A43F0020383720A4B01221A7003E09E
:10B3A00001252046FFF7B8FE2846FFF7A7FF38BD66
:10B3B0000025F6E70025F4E70025F2E70025F0E791
:10B3C0000025EEE7B945002008B50023FFF732FD60
:10B3D00008BD0000002B59D0F0B583B006460C46DE
:10B3E00015461F46CB1FDBB2012B51D8531E032B32
:10B3F00051D8FFF747FE0190D0B1037AAB424CD150
:10B40000019E737AFF2B1DD00026019B1D72597A75
:10B41000244800F042FB024618B3ABB2214638463E
:10B42000FFF78AFE002E3AD0082C28D0002030E00A
:10B430002246314601A8FFF760FE019B002BDFD1B9
:10B44000112026E02946174800F050FB7072019841
:10B45000437AFF2B01D00126D7E7FFF7E4FD112047
:10B4600017E01148114BC01AC0080004019B5A7A1A
:10B470000F4940F0010005F0C1FF032009E03B88BF
:10B480007A689B00063B9380002002E00E20704704
:10B49000072003B0F0BD0720FBE70F20F9E70020ED
:10B4A000F7E700BFEC450020D86003001060030000
:10B4B0008070030008B5FFF7E5FD18B1FFF764FEE3
:10B4C000002008BD0520FCE770B584B005460023C8
:10B4D000039303A9FFF7BAFD044607E0039B01337A
:10B4E000039303A92846FFF7B1FD0446D4B1A17820
:10B4F0002846FFF7DFFF0028F0D00528EED0154ED4
:10B50000154AB61AF608360405F098FB0246A378E9
:10B5100000932B46114946F0010005F084FF0320FB
:10B5200004B070BD2846FFF767FD0028F8D0072853
:10B53000F6D0084C084BE41AE408240405F07EFB1E
:10B5400003462A46064944F0010005F061FF032046
:10B55000E6E700BFD860030010600300F47003004A
:10B560004C710300CB1FDBB2012B11D870B506461E
:10B570000C4615461046FFF74AFD58B121463046A5
:10B58000FFF780FD40B105808470FFF711FE70BDAC
:10B59000072070470720FAE70520F8E710B50446B2
:10B5A00008464FF6FF739C4204D0FF2C0CD94FF68F
:10B5B000FF7010BD4FF4807104F0ABFB80B2B0F5AA
:10B5C000807FF6D12046F4E7214604F07EFB08B9DF
:10B5D0002046EEE74FF6FF70EBE708B50346FF287D
:10B5E00000D908BD0846194604F07DFBF9E70000C4
:10B5F00008B50249FFF7D2FF08BD00BFFC45002097
:10B600004FF6FF73984209D010B504460449FFF77E
:10B61000C5FF844214BF0020012010BD00207047E8
:10B620001C46002038B50446044D2946FFF7D5FFD7
:10B6300005F120012046FFF7D0FF38BDFC45002072
:10B64000FF2801D90020704708B50146014804F0E1
:10B6500057FB08BDFC450020FF2801D9002070479A
:10B6600008B50146014804F04BFB08BD1C4600200C
:10B6700038B50D464FF6FF7398420DD0441CA4B266
:10B6800001E00134A4B2FF2C08D82146284604F07A
:10B6900037FB0028F5D003E00024F4E74FF6FF74F1
:10B6A000204638BD10B50A49FFF7E2FF044604E022
:10B6B00007492046FFF7DCFF04464FF6FF739C4224
:10B6C00004D02046FFF7C8FF0028F1D1204610BD66
:10B6D000FC45002008B50249FFF7CAFF08BD00BFBE
:10B6E0001C46002038B50546002405E0054B53F8FC
:10B6F0002430284698470134034B1B78A342F5DCDD
:10B7000038BD00BF404600203C46002010B586B042
:10B7100084880288102A06D0154B19782046FEF737
:10B72000AFF806B010BD034600228DF8032001A833
:10B73000019242608260C260026101228DF80420A1
:10B740004FF6FF72ADF80820ADF8064008330393BA
:10B750000DF103030493FFF7C5FF9DF80320044B8D
:10B7600019782046FEF7A6F89DF80300D9E700BF38
:10B770002C2B0020094B1B7803B9704710B50446E9
:10B78000FFF7C4FF00B110BD2046FFF753F8204675
:10B7900001F03AF82046FEF7E7FBF4E75A460020AE
:10B7A00018B108B5FFF79EFF08BD704708B5FFF751
:10B7B00099FF08BD08B5FFF795FF08BD08B5FFF76D
:10B7C00091FF08BD2DE9F04F87B00193364B1B78F0
:10B7D000002B63D083468A4691464FF6FF70FFF7F1
:10B7E0001AFC0446002305930422049202AA029341
:10B7F000536005AB039304AB0621FFF71BFB07283F
:10B8000050D04FF6FF77B8464FF0FF35002611E0D5
:10B81000059BB34201D3A0461E46AB4201D2274648
:10B820001D462046FFF7F7FB044604AB02AA06219B
:10B83000FFF700FB0028EBD00528F2D04FF6FF738E
:10B840009C421BD1984517D09F4213D00020BBF1DA
:10B85000000F01D0ABF80080BAF1000F01D0CAF898
:10B860000060B9F1000F01D0A9F80070019BB3B1DD
:10B870001D6014E00520EAE70520E8E70B4D0C4BBE
:10B88000ED1AED082D0405F0D9F9024623460949C1
:10B8900045F0010005F0BCFD032000E0082007B0E2
:10B8A000BDE8F08F0520FAE75A460020B06003009B
:10B8B00010600300B471030008B500231A460C4958
:10B8C0000C48FFF77FFF052804D068B1052809D090
:10B8D00000220AE0074B4FF6FF721A80044B002249
:10B8E0001A60F2E7012200E00122034B1A7008BD42
:10B8F000504600204C4600205946002070B586B0C6
:10B9000004468088FEF7B2FE60802378093B032B53
:10B9100000F28380DFE803F00232457E637AE3B908
:10B920004E4B1B6813B1E26893420ED04C4B1B7810
:10B93000002B72D0A2884B4B1B889A426DD1237A80
:10B94000062B6AD1FFF7B8FF67E00023434A136074
:10B95000A188444A1180E3605FE0012B5DD1404B38
:10B960001B78002B59D0A2883E4B1B889A4254D199
:10B97000237A062B51D1FFF79FFF4EE0637A002B0D
:10B980004BD1364B1B68002B47D0E268934244D121
:10B990000022324B1A6034490B68013B0B60E260B5
:10B9A0003BE0324B1D7855B901252D4B1B7823B157
:10B9B000A2882C4B1B889A4229D08DB32DE04FF6DC
:10B9C000FF70FFF728FB4FF6FF739842EDD1184642
:10B9D000FFF725FB4FF6FF739842E6D10025234B76
:10B9E0001D7001AE019502950395049505950D23F3
:10B9F0008DF804304FF6FF73ADF80830ADF806301F
:10BA00002046FFF76FFE3046FFF76CFECDE7FFF7ED
:10BA100053FFD2E7154B1B7823B92046FFF762FE90
:10BA200006B070BD0023114A137001AD019302935B
:10BA30000393049305930E238DF804304FF6FF73A0
:10BA4000ADF80830ADF80630A36803932046FFF741
:10BA500049FE2846FFF746FEE2E700BF54460020B5
:10BA6000594600204C4600205046002058460020F1
:10BA700008B504F02AF980F00100C0B2BFF35F8F6F
:10BA800008BD08B5BFF35F8F04F03AF908BD08B5EB
:10BA9000BFF35F8F04F027F908BD38B5054668B1DC
:10BAA0000C46006850B1686840B1FF2907D0FFF725
:10BAB000E8FF20B12868EB6803FB040038BD0020D4
:10BAC000FCE790B138B50C46054603681BB14068E9
:10BAD00008B1FF2900D138BDFFF7D3FF0028FAD005
:10BAE00021466868FFF7D3FFF5E77047F8B550B314
:10BAF0000F460646036843B3436843B30025FF245B
:10BB000005E02B1B0133BB421BD00135EDB2B368FE
:10BB10009D4215D229467068FFF7AAFF18B1FF2C85
:10BB2000EFD12C46EDE7FF2CEFD005E02146304663
:10BB3000FFF7C7FF0134E4B2A542F7D8FF24E4E7DA
:10BB4000FF242046F8BDFF24FBE7FF24F9E7FF248C
:10BB5000F7E77EDF70477FDF704786DF704708B505
:10BB6000FFF7F7FF042800D008BD1120FCE719B14A
:10BB700008B5FFF7F4FF08BD0020704738B504464C
:10BB80004088FEF73FFDA080002505B138BD204666
:10BB900000F00AFE0135F8E700B587B001AB0022DE
:10BBA0000192029203920492059205228DF80420DC
:10BBB000ADF806001846FFF7E1FF07B05DF804FB9B
:10BBC00000B587B001AB0022019202920392049269
:10BBD000059208228DF80420ADF80600039118465E
:10BBE000FFF7CCFF07B05DF804FB000010B586B08E
:10BBF000944601AC002201920292039204920592B3
:10BC00004FF0040E8DF804E0ADF806008DF80C102E
:10BC1000ADF80EC08DF81030044B1978FDF74AFED0
:10BC20002046FFF7ABFF06B010BD00BF302B002051
:10BC300000B587B001AB00220192029203920492F8
:10BC4000059202228DF80420ADF806008DF80C1044
:10BC50001846FFF793FF07B05DF804FB70B5054683
:10BC60000C4616460A460E4B1978FDF723FE04B91A
:10BC700070BD321E18BF01220A4B19782846FDF705
:10BC800019FE012E14BF00220122074B1978284605
:10BC9000FDF710FE31462846FFF7CAFFE8E700BF70
:10BCA000302B00202F2B00202E2B002000B587B03A
:10BCB00001AB0022019202920392049205920622A5
:10BCC0008DF80420ADF8060003911846FFF756FFE3
:10BCD00007B05DF804FB10B504460088FDF782FD4F
:10BCE000012805D0214631F8040BFFF7DFFF10BD16
:10BCF00002462088237913F0010F00D1022201218E
:10BD0000FFF7ACFFEEE700B587B001AB0022019270
:10BD1000029203920492059207228DF80420ADF856
:10BD200006001846FFF72AFF07B05DF804FB00B5D0
:10BD300087B003238DF804300388ADF806304379CB
:10BD400013F0040F0AD001238DF80C308DF80D107C
:10BD500001A8FFF713FF07B05DF804FB0223F3E728
:10BD6000F0B583B043B304460E4617461D4600F5B2
:10BD700080706B460122072180B2FFF72BFB112850
:10BD800018D030BB5022002101980AF045F8019BE1
:10BD90001E70019901F134032B60EF6001F118036B
:10BDA0002B614B1C6B611B4BEB6111312046FEF785
:10BDB0003FFCF0B903B0F0BD1748184BC01AC008DB
:10BDC0000004174A174940F0010005F017FB032053
:10BDD000F0E7114D114BED1AED082D0404F02EFF84
:10BDE00002462346104945F0010005F011FB0320EF
:10BDF000E0E7094D094BED1AED082D0404F01EFF94
:10BE000002462346094945F0020005F001FB0820DF
:10BE1000D0E700BF5C460020F06003001060030024
:10BE2000D0B303003073030064730300C8730300CE
:10BE30002DE9F84304460D461646184B1978FDF7D0
:10BE40001FFD90B1012704F58070072180B2FFF734
:10BE500031FB804608B1052809D133462A463946C8
:10BE60002046FFF7C3FEBDE8F8830227EBE70C4B43
:10BE70000C4AA3EB02094FEAD9094FEA094904F039
:10BE8000DDFE02462346084949F0010005F0C0FAEC
:10BE900041462046FFF794FEDFE700BF2E2B00202F
:10BEA000F0600300106003001874030070B50646CC
:10BEB0000C4615460C4B1978FDF7E2FC00B970BD35
:10BEC0000A4B19783046FDF7DBFC28B12A4621469B
:10BED0003046FFF7ADFFF2E72B4622460021304601
:10BEE000FFF784FEEBE700BF302B00202F2B002054
:10BEF00008B503793D2B06D04FF488510022008805
:10BF0000FFF7D4FF08BD41F23D01F7E708B54279DC
:10BF100002F0030201790088FFF7C8FF08BD0000A6
:10BF2000F0B585B0044600F10C063046FEF7E4FBA0
:10BF30004FF6FF73984227D0054601462088FEF74A
:10BF4000FDFB002201212088FFF788FE4FF6FF73DA
:10BF50009D421ED1002700231A4639462088FFF74C
:10BF6000FCFD0646082833D000283CD1A37D13F001
:10BF7000010F4BD0002F49D1002341F20602194690
:10BF80002088FFF733FE41E02088FEF73BFB0546A3
:10BF9000D7E702AA07212846FFF716FAA0B9039FA0
:10BFA000A37D13F0010F11D097F8443013F0010F67
:10BFB00001D03437CFE7314607F14600FEF787FB63
:10BFC0000028F6D10027C6E70027C4E70027C2E70C
:10BFD0000F48104BC01AC00800040F4940F002007F
:10BFE00005F006FA12E00A4F0A4BFF1AFF083F0459
:10BFF00004F024FE024600952388084947F001001A
:10C0000005F011FA31462088FFF7DAFD05B0F0BDE2
:10C01000F06003001060030084740300F4740300F4
:10C020002DE9F04385B00446078800225D4B19785E
:10C030003846FDF73FFC637913F0040F3FD007F556
:10C040008076B6B202AB012207213046FFF7C2F973
:10C05000804600283AD13846FEF7D4FA05464FF616
:10C06000FF73984249D04FF000082A460721304616
:10C07000FFF778FA8146002800F08680862800F0D5
:10C080008880494E494BF61AF608360404F0D6FD6E
:10C09000024600953B46464946F0010005F0C3F9CB
:10C0A00049463846FFF78CFD00212046FFF73FFE4A
:10C0B000B8F1000F07D02846FEF74AFB03E0002145
:10C0C0002046FFF734FE05B0BDE8F083364D374B10
:10C0D000ED1AED082D0404F0B1FD02463B4635494A
:10C0E00045F0010005F094F941463846FFF768FD38
:10C0F00000212046FFF71BFEE5E719460398FEF7EF
:10C1000063FA05464FF6FF7398421CD00146384645
:10C11000FEF714FB284B19783846FDF7B1FB804633
:10C1200010B14FF00008A0E73846FFF735FD224B6D
:10C1300019783846FDF7A4FB002896D10021204647
:10C14000FFF7F5FDBFE7FEF751FF05464FF6FF731A
:10C15000984206D001463846FEF7F0FA4FF0010843
:10C1600083E71148114BC01AC0080004134940F07E
:10C17000010005F03DF904213846FFF721FD0021BB
:10C180002046FFF7D4FD9EE701212046FFF7CFFDB3
:10C1900099E73846FFF7B7FD01212046FFF7C7FDB5
:10C1A00091E700BF302B0020F06003001060030017
:10C1B000F4750300647503002D2B0020C075030087
:10C1C00008B5037913B9FFF72BFF08BDFFF79EFEF3
:10C1D000FBE7000010B586B00446144B19780088C0
:10C1E000FDF74EFB08B106B010BD2088FDF71EFB21
:10C1F00038B9012341F2060200212088FFF7F6FC3E
:10C20000F1E700220A4B19782088FDF753FB03233E
:10C210008DF804302388ADF8063000238DF80C30FB
:10C220008DF80D3001A8FFF7A9FCDCE72F2B0020CB
:10C23000302B00202DE9F04188B007460D46164608
:10C24000FDF7D0FA044620220021684609F0E4FDFB
:10C25000012C16D0002C4FD0002D3FD03846FEF7D1
:10C26000D1F94FF6FF73984227D0012C10D04FF030
:10C2700000082B7813F0010F25D10396204B07936C
:10C280002EE000221F4B19783846FDF713FBE1E73B
:10C290001C4B19783846FDF7F3FA10B14FF000083F
:10C2A000E7E73846FFF778FC164B19783846FDF774
:10C2B000E7FA28B14FF00008DBE74FF00008D8E7B5
:10C2C0004FF08508D5E7B8F1850F09D06B463246A7
:10C2D00021463846FFF744FD58B901E04FF0850884
:10C2E000012C00D000256B462A4641463846FFF710
:10C2F00032FC08B0BDE8F08143F20200F9E700BF6C
:10C300005C4600202D2B002038B504460D46FDF775
:10C3100069FA012802D043F2020038BD29462046BE
:10C32000FFF725FCF9E708B50388113B092B09D86D
:10C33000DFE803F00508090D0808080811150430A6
:10C34000FFF7D6FD08BD0430FFF7C5FCFAE704305F
:10C35000FFF7E6FDF6E70430FFF732FFF2E70430BF
:10C36000FFF738FFEEE700000022026042608260C3
:10C37000014A126802607047A446002010B50446C6
:10C380001046002323606360A360E3602361217093
:10C390006280FEF737F9A080204610BD00B583B05B
:10C3A0006A460721FFF710F838B9019B93F844302B
:10C3B00013F0010F02D0012000E0002003B05DF86F
:10C3C00004FB38B50546002404B138BD2846FFF704
:10C3D000E7F90134F8E708B5FFF7F3FF08BD70B5DA
:10C3E00086B00D46144601AE024606213046FFF7E0
:10C3F000C5FF039504943046FFF7E3FF06B070BD18
:10C4000030B587B002460C4601AD08212846FFF73B
:10C41000B5FF03942846FFF7D4FF07B030BD0000F6
:10C4200010B50446134611290DD000226BB10A4BFA
:10C4300019782046FDF73EFA0022084B197820466D
:10C44000FDF738FA10BD0122F0E7044B19782046B9
:10C45000FDF730FAF6E700BF312B0020342B002027
:10C4600070B586B00646112933D8DFE801F04632B0
:10C47000323232323232463232323209323232469D
:10C4800015461F481F4BC01AC008000432461E49FB
:10C4900040F0020004F0B2FF324604210DEB01002F
:10C4A000FFF76CFF8DB12B7813F0010F0FD1022332
:10C4B0008DF80C3000238DF8103041F20113ADF8E7
:10C4C0000E3001A8FFF77DFF17E00223F0E70123FC
:10C4D000EEE70C460A4D0B4BED1AED082D0408460D
:10C4E00004F0ACFB02463346084945F0010004F075
:10C4F0008FFF21463046FFF783FF06B070BD00BFB7
:10C50000E860030010600300607603001877030002
:10C5100070B584B004460D4601AE3046FFF724FFE7
:10C52000324629462046FFF75AFF094B1A680199FF
:10C530002046FFF77FFE0546012201462046FFF711
:10C540006FFF019A29462046FFF78AFF04B070BDAD
:10C550009C46002008B50021FFF7DAFF08BD000067
:10C560002DE9F04385B0044616461F46884691B92A
:10C5700001AD2846FFF7F8FE2A4600212046FFF7C6
:10C580002EFFDDF80490284B1B7833B99DF80D3051
:10C590001BB9052625E04FF00009324649462046E2
:10C5A000FFF7B2FE0546002201462046FFF738FF9E
:10C5B000112D1AD80123AB4042F60112134229D1A2
:10C5C00013F4003F15D04246184B19782046FDF76A
:10C5D00071F93246164B19782046FDF76BF90026A3
:10C5E000E7B9304605B0BDE8F08343F202039D424F
:10C5F00012D0104E104BF61AF6083604284604F0F6
:10C600001DFB024623460D4946F0010004F000FFE1
:10C610000326E5E72E46E3E72E46E1E74A462946AC
:10C620002046FFF71DFFDCE7A0460020322B00204C
:10C63000332B0020E86003001060030084770300C0
:10C6400038B50446084B1978FDF71AF90546074B2B
:10C6500019782046FDF714F9014601232A462046A1
:10C66000FFF77EFF38BD00BF332B0020322B0020A8
:10C67000002943D0F8B505460C46FDF7C5F8064637
:10C6800000283DD02846FDF7BDFF0746022E14BF07
:10C6900000260126237866F3000323704FF6FF730C
:10C6A000C31A18BF0123227863F3C30222702846FD
:10C6B000FDF7BCF8237860F3410323702846FDF7AB
:10C6C000C3F8237860F3820323702846FDF7CAF885
:10C6D00030B10122237862F3041323700020F8BDE7
:10C6E0002846FDF7A3F808B90022F3E73846FFF71C
:10C6F00055FE08B90022EDE70122EBE70E20704756
:10C7000043F20200EBE710B582B00C4600238DF82F
:10C710000430E0238DF8043001A9FFF7A9FF9DF84C
:10C720000430DB435BB222781A4010B912B9012001
:10C7300000E0002002B010BD30B583B00446194BB4
:10C740001B6833B34088FDF771F8014608B902460B
:10C7500021E000258DF80450237AC3F340012A46D6
:10C7600061F382028DF80420D2B263F3C3028DF824
:10C770000420C3F38003D2B263F304128DF80420C3
:10C7800001A96088FFF7BFFF80F00102D2B22946FD
:10C7900001E00022012101236088FFF7E1FE03B0E0
:10C7A00030BD00BFA446002010B504460378062B18
:10C7B00007D0132B01D1FFF7BFFF2046FFF70BFE79
:10C7C00010BD81684088FFF7A3FEF9E708B503783C
:10C7D0000C2B02D8092B02D208BD142BFCD100224D
:10C7E0000549064B1878FDF77FF800220449054BF0
:10C7F0001878FDF779F8EFE755C50200312B0020D6
:10C8000041C60200342B002008B5FFF78CFD002242
:10C810000549064B1878FDF767F800220449054BD7
:10C820001878FDF761F808BD55C50200312B0020CE
:10C8300041C60200342B00200268134600E01B684A
:10C8400013B18B42FBD101E00A60016070470346DF
:10C85000006808B102681A607047000038B50546E4
:10C8600040B9064C2046FFF7F2FF28B1436828463E
:10C870009847F7E7024CF5E738BD00BFB046002007
:10C88000B846002010B5044610B1012C06D010BDEA
:10C89000054B01225A70FFF7E1FFF6E70120024B3A
:10C8A0009870FFF7DBFFF2E7A846002000B1704761
:10C8B00008B5034B01225A70FFF7D0FF08BD00BF37
:10C8C000A846002008B505F089F920B9074BD3F830
:10C8D00000342BB108BD06497B2003F055F9F5E77C
:10C8E00000F0EEF9034B00229A70F3E700000140DC
:10C8F000EC770300A846002010B5104B1B784BB115
:10C9000085240F4BD3F8003413B10C4B01229A70DD
:10C91000204610BD094B00229A605A601A61DA6005
:10C92000084800F07FF9044605F058F918B1034BA8
:10C9300001221A70E5E700F08DF9F8E7A84600201B
:10C940000000014085C8020010B582B00446224BA9
:10C950001B78D3B1204B9B78E3B114B163680120FD
:10C96000984700238DF807300DF1070002F018F901
:10C97000194AD3680133D3609DF8070002F022F909
:10C98000154BDB680BB302B010BD1449F62003F061
:10C99000FBF8DFE700238DF807300DF1070002F008
:10C9A000FFF81CB121460E48FFF746FF0A4BDB6833
:10C9B00043B1094AD3680133D3609DF8070002F000
:10C9C00001F9DDE700F05CF9F3E704494FF4897001
:10C9D00003F0DAF8D7E700BFA8460020EC770300A1
:10C9E000B846002000B583B0144B1B78B3B1134B8D
:10C9F000DB68CBB100238DF807300DF1070002F0A2
:10CA0000CFF80E4BDA68013ADA60DB6893B19DF833
:10CA1000070002F0D7F803B05DF804FB084940F2C4
:10CA2000171003F0B1F8E2E705494FF48C7003F0FA
:10CA3000ABF8DFE7FFF746FFE9E700BFA8460020B5
:10CA4000EC77030000B583B001280DD0032823D074
:10CA500038B9184B0122C3F88020BFF34F8FBFF3C2
:10CA60006F8F03B05DF804FB00238DF807300DF1E4
:10CA7000070002F095F8104B1B7853B10E4BDA68A3
:10CA80000132DA6001229A709DF8070002F09AF8EC
:10CA9000E7E7FFF731FFF1E7074B1B7823B100F021
:10CAA000D9F8FFF79FFFDCE7044940F2522003F07A
:10CAB0006BF8F4E700E100E0A8460020EC77030003
:10CAC00000B587B003788DF804304368029383681B
:10CAD0008DF80C30C368049303698DF81430054B4E
